{
  "_format": "hh-sol-artifact-1",
  "contractName": "MedicalProduct",
  "sourceName": "contracts/MedicalProduct.sol",
  "abi": [
    {
      "anonymous": false,
      "inputs": [
        {
          "indexed": false,
          "internalType": "bytes32",
          "name": "manufacturerId",
          "type": "bytes32"
        },
        {
          "indexed": false,
          "internalType": "bytes32",
          "name": "manufacturerName",
          "type": "bytes32"
        },
        {
          "indexed": false,
          "internalType": "bytes32",
          "name": "productBrand",
          "type": "bytes32"
        }
      ],
      "name": "ManufacturerRegistered",
      "type": "event"
    },
    {
      "anonymous": false,
      "inputs": [
        {
          "indexed": false,
          "internalType": "bytes32",
          "name": "manufacturerId",
          "type": "bytes32"
        },
        {
          "indexed": false,
          "internalType": "uint256",
          "name": "productId",
          "type": "uint256"
        },
        {
          "indexed": false,
          "internalType": "bytes32",
          "name": "productSN",
          "type": "bytes32"
        },
        {
          "indexed": false,
          "internalType": "bytes32",
          "name": "productName",
          "type": "bytes32"
        }
      ],
      "name": "ProductAdded",
      "type": "event"
    },
    {
      "anonymous": false,
      "inputs": [
        {
          "indexed": true,
          "internalType": "bytes32",
          "name": "manufacturerId",
          "type": "bytes32"
        },
        {
          "indexed": true,
          "internalType": "bytes32",
          "name": "sellerId",
          "type": "bytes32"
        }
      ],
      "name": "SellerAdded",
      "type": "event"
    },
    {
      "inputs": [
        {
          "internalType": "bytes32",
          "name": "_manufacturerID",
          "type": "bytes32"
        },
        {
          "internalType": "bytes32",
          "name": "_manufacturerName",
          "type": "bytes32"
        },
        {
          "internalType": "bytes32",
          "name": "_productName",
          "type": "bytes32"
        },
        {
          "internalType": "bytes32",
          "name": "_productSN",
          "type": "bytes32"
        },
        {
          "internalType": "bytes32",
          "name": "_productBrand",
          "type": "bytes32"
        },
        {
          "internalType": "uint256",
          "name": "_productPrice",
          "type": "uint256"
        },
        {
          "internalType": "uint256",
          "name": "_productID",
          "type": "uint256"
        },
        {
          "internalType": "bytes32",
          "name": "_productTime",
          "type": "bytes32"
        }
      ],
      "name": "addProduct",
      "outputs": [],
      "stateMutability": "nonpayable",
      "type": "function"
    },
    {
      "inputs": [
        {
          "internalType": "bytes32",
          "name": "_manufacturerId",
          "type": "bytes32"
        },
        {
          "internalType": "bytes32",
          "name": "_sellerName",
          "type": "bytes32"
        },
        {
          "internalType": "bytes32",
          "name": "_sellerBrand",
          "type": "bytes32"
        },
        {
          "internalType": "bytes32",
          "name": "_sellerID",
          "type": "bytes32"
        },
        {
          "internalType": "uint256",
          "name": "_sellerNum",
          "type": "uint256"
        },
        {
          "internalType": "bytes32",
          "name": "_sellerManager",
          "type": "bytes32"
        },
        {
          "internalType": "bytes32",
          "name": "_sellerAddress",
          "type": "bytes32"
        }
      ],
      "name": "addSeller",
      "outputs": [],
      "stateMutability": "nonpayable",
      "type": "function"
    },
    {
      "inputs": [
        {
          "internalType": "bytes32",
          "name": "_sellerID",
          "type": "bytes32"
        },
        {
          "internalType": "bytes32",
          "name": "_sellerName",
          "type": "bytes32"
        },
        {
          "internalType": "bytes32",
          "name": "_sellerBrand",
          "type": "bytes32"
        },
        {
          "internalType": "uint256",
          "name": "_sellerNum",
          "type": "uint256"
        },
        {
          "internalType": "bytes32",
          "name": "_sellerManager",
          "type": "bytes32"
        },
        {
          "internalType": "bytes32",
          "name": "_sellerAddress",
          "type": "bytes32"
        }
      ],
      "name": "checkSellerConflict",
      "outputs": [
        {
          "internalType": "bool",
          "name": "exists",
          "type": "bool"
        },
        {
          "internalType": "bool",
          "name": "hasConflict",
          "type": "bool"
        },
        {
          "components": [
            {
              "internalType": "bytes32",
              "name": "sellerId",
              "type": "bytes32"
            },
            {
              "internalType": "bytes32",
              "name": "sellerName",
              "type": "bytes32"
            },
            {
              "internalType": "bytes32",
              "name": "sellerBrand",
              "type": "bytes32"
            },
            {
              "internalType": "uint256",
              "name": "sellerNum",
              "type": "uint256"
            },
            {
              "internalType": "bytes32",
              "name": "sellerManager",
              "type": "bytes32"
            },
            {
              "internalType": "bytes32",
              "name": "sellerAddress",
              "type": "bytes32"
            }
          ],
          "internalType": "struct MedicalProduct.seller",
          "name": "existingSeller",
          "type": "tuple"
        }
      ],
      "stateMutability": "view",
      "type": "function"
    },
    {
      "inputs": [
        {
          "internalType": "bytes32",
          "name": "_productSN",
          "type": "bytes32"
        }
      ],
      "name": "checkStatus",
      "outputs": [
        {
          "internalType": "bytes32",
          "name": "",
          "type": "bytes32"
        }
      ],
      "stateMutability": "view",
      "type": "function"
    },
    {
      "inputs": [
        {
          "internalType": "bytes32",
          "name": "_consumerID",
          "type": "bytes32"
        }
      ],
      "name": "getPurchaseHistory",
      "outputs": [
        {
          "internalType": "bytes32[]",
          "name": "",
          "type": "bytes32[]"
        },
        {
          "internalType": "bytes32[]",
          "name": "",
          "type": "bytes32[]"
        },
        {
          "internalType": "bytes32[]",
          "name": "",
          "type": "bytes32[]"
        },
        {
          "internalType": "bytes32[]",
          "name": "",
          "type": "bytes32[]"
        },
        {
          "internalType": "bytes32[]",
          "name": "",
          "type": "bytes32[]"
        },
        {
          "internalType": "bytes32[]",
          "name": "",
          "type": "bytes32[]"
        }
      ],
      "stateMutability": "view",
      "type": "function"
    },
    {
      "inputs": [
        {
          "internalType": "bytes32",
          "name": "",
          "type": "bytes32"
        },
        {
          "internalType": "bytes32",
          "name": "",
          "type": "bytes32"
        }
      ],
      "name": "isSellerAssociated",
      "outputs": [
        {
          "internalType": "bool",
          "name": "",
          "type": "bool"
        }
      ],
      "stateMutability": "view",
      "type": "function"
    },
    {
      "inputs": [
        {
          "internalType": "bytes32",
          "name": "",
          "type": "bytes32"
        }
      ],
      "name": "manufacturedTime",
      "outputs": [
        {
          "internalType": "bytes32",
          "name": "",
          "type": "bytes32"
        }
      ],
      "stateMutability": "view",
      "type": "function"
    },
    {
      "inputs": [
        {
          "internalType": "bytes32",
          "name": "_productSN",
          "type": "bytes32"
        },
        {
          "internalType": "bytes32",
          "name": "_sellerID",
          "type": "bytes32"
        },
        {
          "internalType": "bytes32",
          "name": "_manufacturerID",
          "type": "bytes32"
        },
        {
          "internalType": "bytes32",
          "name": "_productTime",
          "type": "bytes32"
        }
      ],
      "name": "manufacturerSellProduct",
      "outputs": [],
      "stateMutability": "nonpayable",
      "type": "function"
    },
    {
      "inputs": [
        {
          "internalType": "bytes32",
          "name": "",
          "type": "bytes32"
        }
      ],
      "name": "manufacturerToSellerTime",
      "outputs": [
        {
          "internalType": "bytes32",
          "name": "",
          "type": "bytes32"
        }
      ],
      "stateMutability": "view",
      "type": "function"
    },
    {
      "inputs": [
        {
          "internalType": "bytes32",
          "name": "",
          "type": "bytes32"
        }
      ],
      "name": "productItems",
      "outputs": [
        {
          "internalType": "bytes32",
          "name": "manufacturerId",
          "type": "bytes32"
        },
        {
          "internalType": "uint256",
          "name": "productId",
          "type": "uint256"
        },
        {
          "internalType": "bytes32",
          "name": "productSN",
          "type": "bytes32"
        },
        {
          "internalType": "bytes32",
          "name": "productName",
          "type": "bytes32"
        },
        {
          "internalType": "bytes32",
          "name": "productBrand",
          "type": "bytes32"
        },
        {
          "internalType": "uint256",
          "name": "productPrice",
          "type": "uint256"
        },
        {
          "internalType": "bytes32",
          "name": "productStatus",
          "type": "bytes32"
        },
        {
          "internalType": "bytes32",
          "name": "productTime",
          "type": "bytes32"
        }
      ],
      "stateMutability": "view",
      "type": "function"
    },
    {
      "inputs": [
        {
          "internalType": "bytes32",
          "name": "",
          "type": "bytes32"
        }
      ],
      "name": "productsForSale",
      "outputs": [
        {
          "internalType": "bytes32",
          "name": "",
          "type": "bytes32"
        }
      ],
      "stateMutability": "view",
      "type": "function"
    },
    {
      "inputs": [
        {
          "internalType": "bytes32",
          "name": "",
          "type": "bytes32"
        }
      ],
      "name": "productsManufactured",
      "outputs": [
        {
          "internalType": "bytes32",
          "name": "",
          "type": "bytes32"
        }
      ],
      "stateMutability": "view",
      "type": "function"
    },
    {
      "inputs": [
        {
          "internalType": "bytes32",
          "name": "",
          "type": "bytes32"
        }
      ],
      "name": "productsSold",
      "outputs": [
        {
          "internalType": "bytes32",
          "name": "",
          "type": "bytes32"
        }
      ],
      "stateMutability": "view",
      "type": "function"
    },
    {
      "inputs": [
        {
          "internalType": "bytes32",
          "name": "",
          "type": "bytes32"
        },
        {
          "internalType": "uint256",
          "name": "",
          "type": "uint256"
        }
      ],
      "name": "productsWithConsumer",
      "outputs": [
        {
          "internalType": "bytes32",
          "name": "",
          "type": "bytes32"
        }
      ],
      "stateMutability": "view",
      "type": "function"
    },
    {
      "inputs": [
        {
          "internalType": "bytes32",
          "name": "",
          "type": "bytes32"
        },
        {
          "internalType": "uint256",
          "name": "",
          "type": "uint256"
        }
      ],
      "name": "productsWithSeller",
      "outputs": [
        {
          "internalType": "bytes32",
          "name": "",
          "type": "bytes32"
        }
      ],
      "stateMutability": "view",
      "type": "function"
    },
    {
      "inputs": [
        {
          "internalType": "bytes32",
          "name": "_manufacturerId",
          "type": "bytes32"
        }
      ],
      "name": "queryInventory",
      "outputs": [
        {
          "internalType": "uint256[]",
          "name": "",
          "type": "uint256[]"
        },
        {
          "internalType": "bytes32[]",
          "name": "",
          "type": "bytes32[]"
        },
        {
          "internalType": "bytes32[]",
          "name": "",
          "type": "bytes32[]"
        },
        {
          "internalType": "uint256[]",
          "name": "",
          "type": "uint256[]"
        },
        {
          "internalType": "uint256",
          "name": "",
          "type": "uint256"
        }
      ],
      "stateMutability": "view",
      "type": "function"
    },
    {
      "inputs": [
        {
          "internalType": "bytes32",
          "name": "_sellerID",
          "type": "bytes32"
        }
      ],
      "name": "queryProductsList",
      "outputs": [
        {
          "internalType": "bytes32[]",
          "name": "",
          "type": "bytes32[]"
        },
        {
          "internalType": "bytes32[]",
          "name": "",
          "type": "bytes32[]"
        },
        {
          "internalType": "bytes32[]",
          "name": "",
          "type": "bytes32[]"
        },
        {
          "internalType": "bytes32[]",
          "name": "",
          "type": "bytes32[]"
        },
        {
          "internalType": "uint256[]",
          "name": "",
          "type": "uint256[]"
        },
        {
          "internalType": "bytes32[]",
          "name": "",
          "type": "bytes32[]"
        }
      ],
      "stateMutability": "view",
      "type": "function"
    },
    {
      "inputs": [
        {
          "internalType": "bytes32",
          "name": "_manufacturerID",
          "type": "bytes32"
        }
      ],
      "name": "querySellersList",
      "outputs": [
        {
          "internalType": "bytes32[]",
          "name": "",
          "type": "bytes32[]"
        },
        {
          "internalType": "bytes32[]",
          "name": "",
          "type": "bytes32[]"
        },
        {
          "internalType": "bytes32[]",
          "name": "",
          "type": "bytes32[]"
        },
        {
          "internalType": "uint256[]",
          "name": "",
          "type": "uint256[]"
        },
        {
          "internalType": "bytes32[]",
          "name": "",
          "type": "bytes32[]"
        },
        {
          "internalType": "bytes32[]",
          "name": "",
          "type": "bytes32[]"
        }
      ],
      "stateMutability": "view",
      "type": "function"
    },
    {
      "inputs": [
        {
          "internalType": "bytes32",
          "name": "_manufacturerID",
          "type": "bytes32"
        },
        {
          "internalType": "bytes32",
          "name": "_manufacturerName",
          "type": "bytes32"
        },
        {
          "internalType": "bytes32",
          "name": "_productBrand",
          "type": "bytes32"
        }
      ],
      "name": "registerManufacturer",
      "outputs": [],
      "stateMutability": "nonpayable",
      "type": "function"
    },
    {
      "inputs": [
        {
          "internalType": "bytes32",
          "name": "_productSN",
          "type": "bytes32"
        },
        {
          "internalType": "bytes32",
          "name": "_consumerID",
          "type": "bytes32"
        },
        {
          "internalType": "bytes32",
          "name": "_productTime",
          "type": "bytes32"
        }
      ],
      "name": "sellerSellProduct",
      "outputs": [],
      "stateMutability": "nonpayable",
      "type": "function"
    },
    {
      "inputs": [
        {
          "internalType": "bytes32",
          "name": "",
          "type": "bytes32"
        }
      ],
      "name": "sellers",
      "outputs": [
        {
          "internalType": "bytes32",
          "name": "sellerId",
          "type": "bytes32"
        },
        {
          "internalType": "bytes32",
          "name": "sellerName",
          "type": "bytes32"
        },
        {
          "internalType": "bytes32",
          "name": "sellerBrand",
          "type": "bytes32"
        },
        {
          "internalType": "uint256",
          "name": "sellerNum",
          "type": "uint256"
        },
        {
          "internalType": "bytes32",
          "name": "sellerManager",
          "type": "bytes32"
        },
        {
          "internalType": "bytes32",
          "name": "sellerAddress",
          "type": "bytes32"
        }
      ],
      "stateMutability": "view",
      "type": "function"
    },
    {
      "inputs": [
        {
          "internalType": "bytes32",
          "name": "",
          "type": "bytes32"
        },
        {
          "internalType": "uint256",
          "name": "",
          "type": "uint256"
        }
      ],
      "name": "sellersWithManufacturer",
      "outputs": [
        {
          "internalType": "bytes32",
          "name": "",
          "type": "bytes32"
        }
      ],
      "stateMutability": "view",
      "type": "function"
    },
    {
      "inputs": [
        {
          "internalType": "bytes32",
          "name": "",
          "type": "bytes32"
        }
      ],
      "name": "sellingTime",
      "outputs": [
        {
          "internalType": "bytes32",
          "name": "",
          "type": "bytes32"
        }
      ],
      "stateMutability": "view",
      "type": "function"
    },
    {
      "inputs": [
        {
          "internalType": "bytes32",
          "name": "_productSN",
          "type": "bytes32"
        },
        {
          "internalType": "bytes32",
          "name": "_consumerID",
          "type": "bytes32"
        }
      ],
      "name": "verifyProduct",
      "outputs": [
        {
          "internalType": "bool",
          "name": "",
          "type": "bool"
        },
        {
          "internalType": "string",
          "name": "",
          "type": "string"
        }
      ],
      "stateMutability": "view",
      "type": "function"
    }
  ],
  "bytecode": "0x6080604052348015600f57600080fd5b50612d118061001f6000396000f3fe608060405234801561001057600080fd5b50600436106101585760003560e01c80639ea4695d116100c3578063cd4f6a2e1161007c578063cd4f6a2e146104b5578063d277893c146104e5578063e262113f14610501578063e5d194ab14610531578063ea947b551461054d578063f27b2f401461056957610158565b80639ea4695d146103905780639fe33dfe146103c5578063a090f47c146103f5578063a220027814610425578063b7d16fb314610455578063c20805b41461048557610158565b806368a6b9da1161011557806368a6b9da1461027b57806369f3363a146102ab5780637b8d84de146102df5780638f6115871461030f57806392162bc41461032b5780639cd777dd1461036057610158565b8063130aa81f1461015d57806314c52c671461019257806318607f30146101c95780631b3658c8146101fe578063344b5d511461021a5780634b9930011461024b575b600080fd5b61017760048036038101906101729190611e72565b61059b565b60405161018996959493929190612025565b60405180910390f35b6101ac60048036038101906101a79190611e72565b6108b2565b6040516101c09897969594939291906120ce565b60405180910390f35b6101e360048036038101906101de9190611e72565b6108fa565b6040516101f59695949392919061214c565b60405180910390f35b610218600480360381019061021391906121d9565b610936565b005b610234600480360381019061022f919061227b565b610af6565b604051610242929190612366565b60405180910390f35b61026560048036038101906102609190612396565b610b51565b60405161027291906123d6565b60405180910390f35b61029560048036038101906102909190611e72565b610b82565b6040516102a291906123d6565b60405180910390f35b6102c560048036038101906102c09190611e72565b610b9a565b6040516102d69594939291906123f1565b60405180910390f35b6102f960048036038101906102f49190611e72565b610df4565b60405161030691906123d6565b60405180910390f35b61032960048036038101906103249190612460565b610e0c565b005b61034560048036038101906103409190611e72565b611000565b604051610357969594939291906124c7565b60405180910390f35b61037a60048036038101906103759190612396565b61131d565b60405161038791906123d6565b60405180910390f35b6103aa60048036038101906103a59190611e72565b61134e565b6040516103bc96959493929190612552565b60405180910390f35b6103df60048036038101906103da919061227b565b61169e565b6040516103ec91906125dd565b60405180910390f35b61040f600480360381019061040a9190611e72565b6116cd565b60405161041c91906123d6565b60405180910390f35b61043f600480360381019061043a9190611e72565b6116e5565b60405161044c91906123d6565b60405180910390f35b61046f600480360381019061046a9190611e72565b611710565b60405161047c91906123d6565b60405180910390f35b61049f600480360381019061049a9190611e72565b611728565b6040516104ac91906123d6565b60405180910390f35b6104cf60048036038101906104ca9190611e72565b611740565b6040516104dc91906123d6565b60405180910390f35b6104ff60048036038101906104fa91906125f8565b611758565b005b61051b60048036038101906105169190612396565b6119da565b60405161052891906123d6565b60405180910390f35b61054b600480360381019061054691906126ae565b611a0b565b005b610567600480360381019061056291906126ae565b611b4c565b005b610583600480360381019061057e9190612701565b611c3a565b60405161059293929190612809565b60405180910390f35b60608060608060608060006008600089815260200190815260200160002080548060200260200160405190810160405280929190818152602001828054801561060357602002820191906000526020600020905b8154815260200190600101908083116105ef575b5050505050905060008151905060008167ffffffffffffffff81111561062c5761062b612841565b5b60405190808252806020026020018201604052801561065a5781602001602082028036833780820191505090505b50905060008267ffffffffffffffff81111561067957610678612841565b5b6040519080825280602002602001820160405280156106a75781602001602082028036833780820191505090505b50905060008367ffffffffffffffff8111156106c6576106c5612841565b5b6040519080825280602002602001820160405280156106f45781602001602082028036833780820191505090505b50905060008467ffffffffffffffff81111561071357610712612841565b5b6040519080825280602002602001820160405280156107415781602001602082028036833780820191505090505b50905060008567ffffffffffffffff8111156107605761075f612841565b5b60405190808252806020026020018201604052801561078e5781602001602082028036833780820191505090505b50905060005b8681101561088f576000600160008a84815181106107b5576107b4612870565b5b60200260200101518152602001908152602001600020905080600101548783815181106107e5576107e4612870565b5b602002602001018181525050806002015486838151811061080957610808612870565b5b602002602001018181525050806003015485838151811061082d5761082c612870565b5b602002602001018181525050806004015484838151811061085157610850612870565b5b602002602001018181525050806005015483838151811061087557610874612870565b5b602002602001018181525050508080600101915050610794565b508685858585859c509c509c509c509c509c505050505050505091939550919395565b60026020528060005260406000206000915090508060000154908060010154908060020154908060030154908060040154908060050154908060060154908060070154905088565b60016020528060005260406000206000915090508060000154908060010154908060020154908060030154908060040154908060050154905086565b60096000888152602001908152602001600020600085815260200190815260200160002060009054906101000a900460ff16156109a8576040517f08c379a000000000000000000000000000000000000000000000000000000000815260040161099f90612911565b60405180910390fd5b6000801b600160008681526020019081526020016000206000015403610a48576040518060c001604052808581526020018781526020018681526020018481526020018381526020018281525060016000868152602001908152602001600020600082015181600001556020820151816001015560408201518160020155606082015181600301556080820151816004015560a082015181600501559050505b60086000888152602001908152602001600020849080600181540180825580915050600190039060005260206000200160009091909190915055600160096000898152602001908152602001600020600086815260200190815260200160002060006101000a81548160ff02191690831515021790555083877f96289a1ff1b3040d81dccacf01cf617b4736dbc7189a052a295e780aa792ffe060405160405180910390a350505050505050565b600060606000610b186005600087815260200190815260200160002054611d22565b905083600560008781526020019081526020016000205403610b41576001819250925050610b4a565b60008192509250505b9250929050565b60066020528160005260406000208181548110610b6d57600080fd5b90600052602060002001600091509150505481565b600c6020528060005260406000206000915090505481565b6060806060806000806000808881526020019081526020016000206003018054905090506000806000898152602001908152602001600020600301805480602002602001604051908101604052809291908181526020018280548015610c1f57602002820191906000526020600020905b815481526020019060010190808311610c0b575b5050505050905060008267ffffffffffffffff811115610c4257610c41612841565b5b604051908082528060200260200182016040528015610c705781602001602082028036833780820191505090505b50905060008367ffffffffffffffff811115610c8f57610c8e612841565b5b604051908082528060200260200182016040528015610cbd5781602001602082028036833780820191505090505b50905060008467ffffffffffffffff811115610cdc57610cdb612841565b5b604051908082528060200260200182016040528015610d0a5781602001602082028036833780820191505090505b50905060005b85811015610dd65760008060008e81526020019081526020016000206004016000878481518110610d4457610d43612870565b5b6020026020010151815260200190815260200160002090508060020154858381518110610d7457610d73612870565b5b6020026020010181815250508060040154848381518110610d9857610d97612870565b5b6020026020010181815250508060030154838381518110610dbc57610dbb612870565b5b602002602001018181525050508080600101915050610d10565b50838383838899509950995099509950505050505091939590929450565b600a6020528060005260406000206000915090505481565b6000801b600460008681526020019081526020016000205414610e64576040517f08c379a0000000000000000000000000000000000000000000000000000000008152600401610e5b906129c9565b60405180910390fd5b6000600260008681526020019081526020016000206001015403610ebd576040517f08c379a0000000000000000000000000000000000000000000000000000000008152600401610eb490612a35565b60405180910390fd5b6000801b600160008581526020019081526020016000206000015403610f18576040517f08c379a0000000000000000000000000000000000000000000000000000000008152600401610f0f90612aa1565b60405180910390fd5b6001151560096000848152602001908152602001600020600085815260200190815260200160002060009054906101000a900460ff16151514610f90576040517f08c379a0000000000000000000000000000000000000000000000000000000008152600401610f8790612b33565b60405180910390fd5b6006600084815260200190815260200160002084908060018154018082558091505060019003906000526020600020016000909190919091505582600460008681526020019081526020016000208190555080600b60008681526020019081526020016000208190555050505050565b60608060608060608060006006600089815260200190815260200160002080548060200260200160405190810160405280929190818152602001828054801561106857602002820191906000526020600020905b815481526020019060010190808311611054575b5050505050905060008151905060008167ffffffffffffffff81111561109157611090612841565b5b6040519080825280602002602001820160405280156110bf5781602001602082028036833780820191505090505b50905060008267ffffffffffffffff8111156110de576110dd612841565b5b60405190808252806020026020018201604052801561110c5781602001602082028036833780820191505090505b50905060008367ffffffffffffffff81111561112b5761112a612841565b5b6040519080825280602002602001820160405280156111595781602001602082028036833780820191505090505b50905060008467ffffffffffffffff81111561117857611177612841565b5b6040519080825280602002602001820160405280156111a65781602001602082028036833780820191505090505b50905060008567ffffffffffffffff8111156111c5576111c4612841565b5b6040519080825280602002602001820160405280156111f35781602001602082028036833780820191505090505b50905060005b868110156112fa57600088828151811061121657611215612870565b5b602002602001015190506000600260008381526020019081526020016000209050806000015488848151811061124f5761124e612870565b5b602002602001018181525050806003015487848151811061127357611272612870565b5b602002602001018181525050806004015486848151811061129757611296612870565b5b60200260200101818152505080600501548584815181106112bb576112ba612870565b5b60200260200101818152505080600601548484815181106112df576112de612870565b5b602002602001018181525050505080806001019150506111f9565b508487858585859c509c509c509c509c509c505050505050505091939550919395565b6007602052816000526040600020818154811061133957600080fd5b90600052602060002001600091509150505481565b6060806060806060806000600760008981526020019081526020016000208054806020026020016040519081016040528092919081815260200182805480156113b657602002820191906000526020600020905b8154815260200190600101908083116113a2575b5050505050905060008151905060008167ffffffffffffffff8111156113df576113de612841565b5b60405190808252806020026020018201604052801561140d5781602001602082028036833780820191505090505b50905060008267ffffffffffffffff81111561142c5761142b612841565b5b60405190808252806020026020018201604052801561145a5781602001602082028036833780820191505090505b50905060008367ffffffffffffffff81111561147957611478612841565b5b6040519080825280602002602001820160405280156114a75781602001602082028036833780820191505090505b50905060008467ffffffffffffffff8111156114c6576114c5612841565b5b6040519080825280602002602001820160405280156114f45781602001602082028036833780820191505090505b50905060008567ffffffffffffffff81111561151357611512612841565b5b6040519080825280602002602001820160405280156115415781602001602082028036833780820191505090505b50905060005b8681101561167b57600088828151811061156457611563612870565b5b60200260200101519050600460008281526020019081526020016000205487838151811061159557611594612870565b5b60200260200101818152505060036000828152602001908152602001600020548683815181106115c8576115c7612870565b5b602002602001018181525050600a6000828152602001908152602001600020548583815181106115fb576115fa612870565b5b602002602001018181525050600b60008281526020019081526020016000205484838151811061162e5761162d612870565b5b602002602001018181525050600c60008281526020019081526020016000205483838151811061166157611660612870565b5b602002602001018181525050508080600101915050611547565b508684848785859c509c509c509c509c509c505050505050505091939550919395565b60096020528160005260406000206020528060005260406000206000915091509054906101000a900460ff1681565b60046020528060005260406000206000915090505481565b6000806002600084815260200190815260200160002090506000816006015490508092505050919050565b600b6020528060005260406000206000915090505481565b60036020528060005260406000206000915090505481565b60056020528060005260406000206000915090505481565b6040518061010001604052808981526020018381526020018681526020018781526020018581526020018481526020017f417661696c61626c65000000000000000000000000000000000000000000000081526020018281525060026000878152602001908152602001600020600082015181600001556020820151816001015560408201518160020155606082015181600301556080820151816004015560a0820151816005015560c0820151816006015560e0820151816007015590505087600360008781526020019081526020016000208190555080600a60008781526020019081526020016000208190555060008060008a815260200190815260200160002090506000801b81600001540361187f578881600001819055508781600101819055505b6000805b82600201805490508110156118cf57868360020182815481106118a9576118a8612870565b5b9060005260206000200154036118c257600191506118cf565b8080600101915050611883565b508061190157816002018690806001815401808255809150506001900390600052602060002001600090919091909150555b60008260040160008681526020019081526020016000209050600081600001540361197657848160000181905550888160020181905550878160010181905550868160040181905550826003018590806001815401808255809150506001900390600052602060002001600090919091909150555b80600301600081548092919061198b90612b82565b91905055507fc540fbf22c1fb216605338079a638d447385a97f649f9b472c422fe37e0c12648b868a8c6040516119c59493929190612bca565b60405180910390a15050505050505050505050565b600860205281600052604060002081815481106119f657600080fd5b90600052602060002001600091509150505481565b60006002600085815260200190815260200160002090506000816006015490507f417661696c61626c6500000000000000000000000000000000000000000000008103611b45577f536f6c640000000000000000000000000000000000000000000000000000000082600601819055506007600085815260200190815260200160002085908060018154018082558091505060019003906000526020600020016000909190919091505583600560008781526020019081526020016000208190555082600c6000878152602001908152602001600020819055506000826000015490506000836001015490506000806000848152602001908152602001600020905060008160040160008481526020019081526020016000209050806003016000815480929190611b3b90612c0f565b9190505550505050505b5050505050565b6000801b6000808581526020019081526020016000206000015414611ba6576040517f08c379a0000000000000000000000000000000000000000000000000000000008152600401611b9d90612c84565b60405180910390fd5b60008060008581526020019081526020016000209050838160000181905550828160010181905550806002018290806001815401808255809150506001900390600052602060002001600090919091909150557f84015f7ed02ad8a3075ee08ab14ec9f6df27afbacab46d846fdb0d6bc723629f848484604051611c2c93929190612ca4565b60405180910390a150505050565b600080611c45611df2565b6000600160008b81526020019081526020016000206040518060c0016040529081600082015481526020016001820154815260200160028201548152602001600382015481526020016004820154815260200160058201548152505090506000801b816000015103611cc1576000808293509350935050611d16565b6000898260200151141580611cda575088826040015114155b80611ce9575087826060015114155b80611cf8575086826080015114155b80611d075750858260a0015114155b90506001818394509450945050505b96509650969350505050565b60606000602067ffffffffffffffff811115611d4157611d40612841565b5b6040519080825280601f01601f191660200182016040528015611d735781602001600182028036833780820191505090505b50905060005b6020811015611de857838160208110611d9557611d94612870565b5b1a60f81b828281518110611dac57611dab612870565b5b60200101907effffffffffffffffffffffffffffffffffffffffffffffffffffffffffffff1916908160001a9053508080600101915050611d79565b5080915050919050565b6040518060c001604052806000801916815260200160008019168152602001600080191681526020016000815260200160008019168152602001600080191681525090565b600080fd5b6000819050919050565b611e4f81611e3c565b8114611e5a57600080fd5b50565b600081359050611e6c81611e46565b92915050565b600060208284031215611e8857611e87611e37565b5b6000611e9684828501611e5d565b91505092915050565b600081519050919050565b600082825260208201905092915050565b6000819050602082019050919050565b611ed481611e3c565b82525050565b6000611ee68383611ecb565b60208301905092915050565b6000602082019050919050565b6000611f0a82611e9f565b611f148185611eaa565b9350611f1f83611ebb565b8060005b83811015611f50578151611f378882611eda565b9750611f4283611ef2565b925050600181019050611f23565b5085935050505092915050565b600081519050919050565b600082825260208201905092915050565b6000819050602082019050919050565b6000819050919050565b611f9c81611f89565b82525050565b6000611fae8383611f93565b60208301905092915050565b6000602082019050919050565b6000611fd282611f5d565b611fdc8185611f68565b9350611fe783611f79565b8060005b83811015612018578151611fff8882611fa2565b975061200a83611fba565b925050600181019050611feb565b5085935050505092915050565b600060c082019050818103600083015261203f8189611eff565b905081810360208301526120538188611eff565b905081810360408301526120678187611eff565b9050818103606083015261207b8186611fc7565b9050818103608083015261208f8185611eff565b905081810360a08301526120a38184611eff565b9050979650505050505050565b6120b981611e3c565b82525050565b6120c881611f89565b82525050565b6000610100820190506120e4600083018b6120b0565b6120f1602083018a6120bf565b6120fe60408301896120b0565b61210b60608301886120b0565b61211860808301876120b0565b61212560a08301866120bf565b61213260c08301856120b0565b61213f60e08301846120b0565b9998505050505050505050565b600060c08201905061216160008301896120b0565b61216e60208301886120b0565b61217b60408301876120b0565b61218860608301866120bf565b61219560808301856120b0565b6121a260a08301846120b0565b979650505050505050565b6121b681611f89565b81146121c157600080fd5b50565b6000813590506121d3816121ad565b92915050565b600080600080600080600060e0888a0312156121f8576121f7611e37565b5b60006122068a828b01611e5d565b97505060206122178a828b01611e5d565b96505060406122288a828b01611e5d565b95505060606122398a828b01611e5d565b945050608061224a8a828b016121c4565b93505060a061225b8a828b01611e5d565b92505060c061226c8a828b01611e5d565b91505092959891949750929550565b6000806040838503121561229257612291611e37565b5b60006122a085828601611e5d565b92505060206122b185828601611e5d565b9150509250929050565b60008115159050919050565b6122d0816122bb565b82525050565b600081519050919050565b600082825260208201905092915050565b60005b838110156123105780820151818401526020810190506122f5565b60008484015250505050565b6000601f19601f8301169050919050565b6000612338826122d6565b61234281856122e1565b93506123528185602086016122f2565b61235b8161231c565b840191505092915050565b600060408201905061237b60008301856122c7565b818103602083015261238d818461232d565b90509392505050565b600080604083850312156123ad576123ac611e37565b5b60006123bb85828601611e5d565b92505060206123cc858286016121c4565b9150509250929050565b60006020820190506123eb60008301846120b0565b92915050565b600060a082019050818103600083015261240b8188611fc7565b9050818103602083015261241f8187611eff565b905081810360408301526124338186611eff565b905081810360608301526124478185611fc7565b905061245660808301846120bf565b9695505050505050565b6000806000806080858703121561247a57612479611e37565b5b600061248887828801611e5d565b945050602061249987828801611e5d565b93505060406124aa87828801611e5d565b92505060606124bb87828801611e5d565b91505092959194509250565b600060c08201905081810360008301526124e18189611eff565b905081810360208301526124f58188611eff565b905081810360408301526125098187611eff565b9050818103606083015261251d8186611eff565b905081810360808301526125318185611fc7565b905081810360a08301526125458184611eff565b9050979650505050505050565b600060c082019050818103600083015261256c8189611eff565b905081810360208301526125808188611eff565b905081810360408301526125948187611eff565b905081810360608301526125a88186611eff565b905081810360808301526125bc8185611eff565b905081810360a08301526125d08184611eff565b9050979650505050505050565b60006020820190506125f260008301846122c7565b92915050565b600080600080600080600080610100898b03121561261957612618611e37565b5b60006126278b828c01611e5d565b98505060206126388b828c01611e5d565b97505060406126498b828c01611e5d565b965050606061265a8b828c01611e5d565b955050608061266b8b828c01611e5d565b94505060a061267c8b828c016121c4565b93505060c061268d8b828c016121c4565b92505060e061269e8b828c01611e5d565b9150509295985092959890939650565b6000806000606084860312156126c7576126c6611e37565b5b60006126d586828701611e5d565b93505060206126e686828701611e5d565b92505060406126f786828701611e5d565b9150509250925092565b60008060008060008060c0878903121561271e5761271d611e37565b5b600061272c89828a01611e5d565b965050602061273d89828a01611e5d565b955050604061274e89828a01611e5d565b945050606061275f89828a016121c4565b935050608061277089828a01611e5d565b92505060a061278189828a01611e5d565b9150509295509295509295565b60c0820160008201516127a46000850182611ecb565b5060208201516127b76020850182611ecb565b5060408201516127ca6040850182611ecb565b5060608201516127dd6060850182611f93565b5060808201516127f06080850182611ecb565b5060a082015161280360a0850182611ecb565b50505050565b60006101008201905061281f60008301866122c7565b61282c60208301856122c7565b612839604083018461278e565b949350505050565b7f4e487b7100000000000000000000000000000000000000000000000000000000600052604160045260246000fd5b7f4e487b7100000000000000000000000000000000000000000000000000000000600052603260045260246000fd5b7f53656c6c657220616c7265616479206173736f6369617465642077697468207460008201527f686973206d616e75666163747572657200000000000000000000000000000000602082015250565b60006128fb6030836122e1565b91506129068261289f565b604082019050919050565b6000602082019050818103600083015261292a816128ee565b9050919050565b7f446f75626c652073656c6c696e67206973206e6f7420616c6c6f7765642e205060008201527f726f6475637420697320616c726561647920736f6c6420746f20736f6d65206f60208201527f746865722073656c6c6572210000000000000000000000000000000000000000604082015250565b60006129b3604c836122e1565b91506129be82612931565b606082019050919050565b600060208201905081810360008301526129e2816129a6565b9050919050565b7f50726f6475637420646f65736e27742065786973740000000000000000000000600082015250565b6000612a1f6015836122e1565b9150612a2a826129e9565b602082019050919050565b60006020820190508181036000830152612a4e81612a12565b9050919050565b7f53656c6c657220646f6573206e6f742065786973740000000000000000000000600082015250565b6000612a8b6015836122e1565b9150612a9682612a55565b602082019050919050565b60006020820190508181036000830152612aba81612a7e565b9050919050565b7f53656c6c6572206973206e6f74206173736f636961746564207769746820746860008201527f6973206d616e7566616374757265720000000000000000000000000000000000602082015250565b6000612b1d602f836122e1565b9150612b2882612ac1565b604082019050919050565b60006020820190508181036000830152612b4c81612b10565b9050919050565b7f4e487b7100000000000000000000000000000000000000000000000000000000600052601160045260246000fd5b6000612b8d82611f89565b91507fffffffffffffffffffffffffffffffffffffffffffffffffffffffffffffffff8203612bbf57612bbe612b53565b5b600182019050919050565b6000608082019050612bdf60008301876120b0565b612bec60208301866120bf565b612bf960408301856120b0565b612c0660608301846120b0565b95945050505050565b6000612c1a82611f89565b915060008203612c2d57612c2c612b53565b5b600182039050919050565b7f4d616e75666163747572657220616c7265616479207265676973746572656400600082015250565b6000612c6e601f836122e1565b9150612c7982612c38565b602082019050919050565b60006020820190508181036000830152612c9d81612c61565b9050919050565b6000606082019050612cb960008301866120b0565b612cc660208301856120b0565b612cd360408301846120b0565b94935050505056fea26469706673582212205e38b06b34b5e5b6affaac613f90266713a085ace2e0bb0b25c1977eea8b638b64736f6c634300081c0033",
  "linkReferences": {},
  "deployedLinkReferences": {},
  "address": "0x119BD5059386E823469332Ad169c96b7d0836d6C",
  "networkId": "1337"
}