{
  "_format": "hh-sol-artifact-1",
  "contractName": "MedicalProduct",
  "sourceName": "contracts/MedicalProduct.sol",
  "abi": [
    {
      "inputs": [
        {
          "internalType": "bytes32",
          "name": "_manufactuerID",
          "type": "bytes32"
        },
        {
          "internalType": "bytes32",
          "name": "_productName",
          "type": "bytes32"
        },
        {
          "internalType": "bytes32",
          "name": "_productSN",
          "type": "bytes32"
        },
        {
          "internalType": "bytes32",
          "name": "_productBrand",
          "type": "bytes32"
        },
        {
          "internalType": "uint256",
          "name": "_productPrice",
          "type": "uint256"
        },
        {
          "internalType": "uint256",
          "name": "_productID",
          "type": "uint256"
        },
        {
          "internalType": "bytes32",
          "name": "_productTime",
          "type": "bytes32"
        }
      ],
      "name": "addProduct",
      "outputs": [],
      "stateMutability": "nonpayable",
      "type": "function"
    },
    {
      "inputs": [
        {
          "internalType": "bytes32",
          "name": "_manufacturerId",
          "type": "bytes32"
        },
        {
          "internalType": "bytes32",
          "name": "_sellerName",
          "type": "bytes32"
        },
        {
          "internalType": "bytes32",
          "name": "_sellerBrand",
          "type": "bytes32"
        },
        {
          "internalType": "bytes32",
          "name": "_sellerID",
          "type": "bytes32"
        },
        {
          "internalType": "uint256",
          "name": "_sellerNum",
          "type": "uint256"
        },
        {
          "internalType": "bytes32",
          "name": "_sellerManager",
          "type": "bytes32"
        },
        {
          "internalType": "bytes32",
          "name": "_sellerAddress",
          "type": "bytes32"
        }
      ],
      "name": "addSeller",
      "outputs": [],
      "stateMutability": "nonpayable",
      "type": "function"
    },
    {
      "inputs": [
        {
          "internalType": "bytes32",
          "name": "_productSN",
          "type": "bytes32"
        }
      ],
      "name": "checkStatus",
      "outputs": [
        {
          "internalType": "bytes32",
          "name": "",
          "type": "bytes32"
        }
      ],
      "stateMutability": "view",
      "type": "function"
    },
    {
      "inputs": [
        {
          "internalType": "bytes32",
          "name": "_consumerID",
          "type": "bytes32"
        }
      ],
      "name": "getPurchaseHistory",
      "outputs": [
        {
          "internalType": "bytes32[]",
          "name": "",
          "type": "bytes32[]"
        },
        {
          "internalType": "bytes32[]",
          "name": "",
          "type": "bytes32[]"
        },
        {
          "internalType": "bytes32[]",
          "name": "",
          "type": "bytes32[]"
        },
        {
          "internalType": "bytes32[]",
          "name": "",
          "type": "bytes32[]"
        },
        {
          "internalType": "bytes32[]",
          "name": "",
          "type": "bytes32[]"
        },
        {
          "internalType": "bytes32[]",
          "name": "",
          "type": "bytes32[]"
        }
      ],
      "stateMutability": "view",
      "type": "function"
    },
    {
      "inputs": [
        {
          "internalType": "bytes32",
          "name": "",
          "type": "bytes32"
        }
      ],
      "name": "manufacturedTime",
      "outputs": [
        {
          "internalType": "bytes32",
          "name": "",
          "type": "bytes32"
        }
      ],
      "stateMutability": "view",
      "type": "function"
    },
    {
      "inputs": [
        {
          "internalType": "bytes32",
          "name": "_productSN",
          "type": "bytes32"
        },
        {
          "internalType": "bytes32",
          "name": "_sellerID",
          "type": "bytes32"
        },
        {
          "internalType": "bytes32",
          "name": "_productTime",
          "type": "bytes32"
        }
      ],
      "name": "manufacturerSellProduct",
      "outputs": [],
      "stateMutability": "nonpayable",
      "type": "function"
    },
    {
      "inputs": [
        {
          "internalType": "bytes32",
          "name": "",
          "type": "bytes32"
        }
      ],
      "name": "manufacturerToSellerTime",
      "outputs": [
        {
          "internalType": "bytes32",
          "name": "",
          "type": "bytes32"
        }
      ],
      "stateMutability": "view",
      "type": "function"
    },
    {
      "inputs": [
        {
          "internalType": "bytes32",
          "name": "",
          "type": "bytes32"
        }
      ],
      "name": "productItems",
      "outputs": [
        {
          "internalType": "bytes32",
          "name": "manufacturerId",
          "type": "bytes32"
        },
        {
          "internalType": "uint256",
          "name": "productId",
          "type": "uint256"
        },
        {
          "internalType": "bytes32",
          "name": "productSN",
          "type": "bytes32"
        },
        {
          "internalType": "bytes32",
          "name": "productName",
          "type": "bytes32"
        },
        {
          "internalType": "bytes32",
          "name": "productBrand",
          "type": "bytes32"
        },
        {
          "internalType": "uint256",
          "name": "productPrice",
          "type": "uint256"
        },
        {
          "internalType": "bytes32",
          "name": "productStatus",
          "type": "bytes32"
        },
        {
          "internalType": "bytes32",
          "name": "productTime",
          "type": "bytes32"
        }
      ],
      "stateMutability": "view",
      "type": "function"
    },
    {
      "inputs": [
        {
          "internalType": "bytes32",
          "name": "",
          "type": "bytes32"
        }
      ],
      "name": "productsForSale",
      "outputs": [
        {
          "internalType": "bytes32",
          "name": "",
          "type": "bytes32"
        }
      ],
      "stateMutability": "view",
      "type": "function"
    },
    {
      "inputs": [
        {
          "internalType": "bytes32",
          "name": "",
          "type": "bytes32"
        }
      ],
      "name": "productsManufactured",
      "outputs": [
        {
          "internalType": "bytes32",
          "name": "",
          "type": "bytes32"
        }
      ],
      "stateMutability": "view",
      "type": "function"
    },
    {
      "inputs": [
        {
          "internalType": "bytes32",
          "name": "",
          "type": "bytes32"
        }
      ],
      "name": "productsSold",
      "outputs": [
        {
          "internalType": "bytes32",
          "name": "",
          "type": "bytes32"
        }
      ],
      "stateMutability": "view",
      "type": "function"
    },
    {
      "inputs": [
        {
          "internalType": "bytes32",
          "name": "",
          "type": "bytes32"
        },
        {
          "internalType": "uint256",
          "name": "",
          "type": "uint256"
        }
      ],
      "name": "productsWithConsumer",
      "outputs": [
        {
          "internalType": "bytes32",
          "name": "",
          "type": "bytes32"
        }
      ],
      "stateMutability": "view",
      "type": "function"
    },
    {
      "inputs": [
        {
          "internalType": "bytes32",
          "name": "",
          "type": "bytes32"
        },
        {
          "internalType": "uint256",
          "name": "",
          "type": "uint256"
        }
      ],
      "name": "productsWithSeller",
      "outputs": [
        {
          "internalType": "bytes32",
          "name": "",
          "type": "bytes32"
        }
      ],
      "stateMutability": "view",
      "type": "function"
    },
    {
      "inputs": [
        {
          "internalType": "bytes32",
          "name": "_manufacturerId",
          "type": "bytes32"
        }
      ],
      "name": "queryInventory",
      "outputs": [
        {
          "internalType": "uint256[]",
          "name": "",
          "type": "uint256[]"
        },
        {
          "internalType": "bytes32[]",
          "name": "",
          "type": "bytes32[]"
        },
        {
          "internalType": "bytes32",
          "name": "",
          "type": "bytes32"
        },
        {
          "internalType": "uint256[]",
          "name": "",
          "type": "uint256[]"
        },
        {
          "internalType": "uint256",
          "name": "",
          "type": "uint256"
        }
      ],
      "stateMutability": "view",
      "type": "function"
    },
    {
      "inputs": [
        {
          "internalType": "bytes32",
          "name": "_sellerID",
          "type": "bytes32"
        }
      ],
      "name": "queryProductsList",
      "outputs": [
        {
          "internalType": "bytes32[]",
          "name": "",
          "type": "bytes32[]"
        },
        {
          "internalType": "bytes32[]",
          "name": "",
          "type": "bytes32[]"
        },
        {
          "internalType": "bytes32[]",
          "name": "",
          "type": "bytes32[]"
        },
        {
          "internalType": "bytes32[]",
          "name": "",
          "type": "bytes32[]"
        },
        {
          "internalType": "uint256[]",
          "name": "",
          "type": "uint256[]"
        },
        {
          "internalType": "bytes32[]",
          "name": "",
          "type": "bytes32[]"
        }
      ],
      "stateMutability": "view",
      "type": "function"
    },
    {
      "inputs": [
        {
          "internalType": "bytes32",
          "name": "_manufacturerID",
          "type": "bytes32"
        }
      ],
      "name": "querySellersList",
      "outputs": [
        {
          "internalType": "bytes32[]",
          "name": "",
          "type": "bytes32[]"
        },
        {
          "internalType": "bytes32[]",
          "name": "",
          "type": "bytes32[]"
        },
        {
          "internalType": "bytes32[]",
          "name": "",
          "type": "bytes32[]"
        },
        {
          "internalType": "uint256[]",
          "name": "",
          "type": "uint256[]"
        },
        {
          "internalType": "bytes32[]",
          "name": "",
          "type": "bytes32[]"
        },
        {
          "internalType": "bytes32[]",
          "name": "",
          "type": "bytes32[]"
        }
      ],
      "stateMutability": "view",
      "type": "function"
    },
    {
      "inputs": [
        {
          "internalType": "bytes32",
          "name": "_productSN",
          "type": "bytes32"
        },
        {
          "internalType": "bytes32",
          "name": "_consumerID",
          "type": "bytes32"
        },
        {
          "internalType": "bytes32",
          "name": "_productTime",
          "type": "bytes32"
        }
      ],
      "name": "sellerSellProduct",
      "outputs": [],
      "stateMutability": "nonpayable",
      "type": "function"
    },
    {
      "inputs": [
        {
          "internalType": "bytes32",
          "name": "",
          "type": "bytes32"
        }
      ],
      "name": "sellers",
      "outputs": [
        {
          "internalType": "bytes32",
          "name": "sellerId",
          "type": "bytes32"
        },
        {
          "internalType": "bytes32",
          "name": "sellerName",
          "type": "bytes32"
        },
        {
          "internalType": "bytes32",
          "name": "sellerBrand",
          "type": "bytes32"
        },
        {
          "internalType": "uint256",
          "name": "sellerNum",
          "type": "uint256"
        },
        {
          "internalType": "bytes32",
          "name": "sellerManager",
          "type": "bytes32"
        },
        {
          "internalType": "bytes32",
          "name": "sellerAddress",
          "type": "bytes32"
        }
      ],
      "stateMutability": "view",
      "type": "function"
    },
    {
      "inputs": [
        {
          "internalType": "bytes32",
          "name": "",
          "type": "bytes32"
        },
        {
          "internalType": "uint256",
          "name": "",
          "type": "uint256"
        }
      ],
      "name": "sellersWithManufacturer",
      "outputs": [
        {
          "internalType": "bytes32",
          "name": "",
          "type": "bytes32"
        }
      ],
      "stateMutability": "view",
      "type": "function"
    },
    {
      "inputs": [
        {
          "internalType": "bytes32",
          "name": "",
          "type": "bytes32"
        }
      ],
      "name": "sellingTime",
      "outputs": [
        {
          "internalType": "bytes32",
          "name": "",
          "type": "bytes32"
        }
      ],
      "stateMutability": "view",
      "type": "function"
    },
    {
      "inputs": [
        {
          "internalType": "bytes32",
          "name": "_productSN",
          "type": "bytes32"
        },
        {
          "internalType": "bytes32",
          "name": "_consumerID",
          "type": "bytes32"
        }
      ],
      "name": "verifyProduct",
      "outputs": [
        {
          "internalType": "bool",
          "name": "",
          "type": "bool"
        },
        {
          "internalType": "string",
          "name": "",
          "type": "string"
        }
      ],
      "stateMutability": "view",
      "type": "function"
    }
  ],
  "bytecode": "0x6080604052348015600f57600080fd5b506121368061001f6000396000f3fe608060405234801561001057600080fd5b50600436106101375760003560e01c806392162bc4116100b8578063a5882b941161007c578063a5882b9414610404578063b7d16fb314610420578063c20805b414610450578063cd4f6a2e14610480578063e262113f146104b0578063e5d194ab146104e057610137565b806392162bc41461030a5780639cd777dd1461033f5780639ea4695d1461036f578063a090f47c146103a4578063a2200278146103d457610137565b80634b993001116100ff5780634b9930011461022a5780635e9794531461025a57806368a6b9da1461027657806369f3363a146102a65780637b8d84de146102da57610137565b8063130aa81f1461013c57806314c52c671461017157806318607f30146101a85780631b3658c8146101dd578063344b5d51146101f9575b600080fd5b61015660048036038101906101519190611810565b6104fc565b604051610168969594939291906119c3565b60405180910390f35b61018b60048036038101906101869190611810565b610813565b60405161019f989796959493929190611a6c565b60405180910390f35b6101c260048036038101906101bd9190611810565b61085b565b6040516101d496959493929190611aea565b60405180910390f35b6101f760048036038101906101f29190611b77565b610897565b005b610213600480360381019061020e9190611c19565b610959565b604051610221929190611d04565b60405180910390f35b610244600480360381019061023f9190611d34565b6109b4565b6040516102519190611d74565b60405180910390f35b610274600480360381019061026f9190611d8f565b6109e5565b005b610290600480360381019061028b9190611810565b610a54565b60405161029d9190611d74565b60405180910390f35b6102c060048036038101906102bb9190611810565b610a6c565b6040516102d1959493929190611de2565b60405180910390f35b6102f460048036038101906102ef9190611810565b610c70565b6040516103019190611d74565b60405180910390f35b610324600480360381019061031f9190611810565b610c88565b60405161033696959493929190611e4a565b60405180910390f35b61035960048036038101906103549190611d34565b610fa5565b6040516103669190611d74565b60405180910390f35b61038960048036038101906103849190611810565b610fd6565b60405161039b96959493929190611ed5565b60405180910390f35b6103be60048036038101906103b99190611810565b611326565b6040516103cb9190611d74565b60405180910390f35b6103ee60048036038101906103e99190611810565b61133e565b6040516103fb9190611d74565b60405180910390f35b61041e60048036038101906104199190611f60565b611369565b005b61043a60048036038101906104359190611810565b61154b565b6040516104479190611d74565b60405180910390f35b61046a60048036038101906104659190611810565b611563565b6040516104779190611d74565b60405180910390f35b61049a60048036038101906104959190611810565b61157b565b6040516104a79190611d74565b60405180910390f35b6104ca60048036038101906104c59190611d34565b611593565b6040516104d79190611d74565b60405180910390f35b6104fa60048036038101906104f59190611d8f565b6115c4565b005b60608060608060608060006008600089815260200190815260200160002080548060200260200160405190810160405280929190818152602001828054801561056457602002820191906000526020600020905b815481526020019060010190808311610550575b5050505050905060008151905060008167ffffffffffffffff81111561058d5761058c612002565b5b6040519080825280602002602001820160405280156105bb5781602001602082028036833780820191505090505b50905060008267ffffffffffffffff8111156105da576105d9612002565b5b6040519080825280602002602001820160405280156106085781602001602082028036833780820191505090505b50905060008367ffffffffffffffff81111561062757610626612002565b5b6040519080825280602002602001820160405280156106555781602001602082028036833780820191505090505b50905060008467ffffffffffffffff81111561067457610673612002565b5b6040519080825280602002602001820160405280156106a25781602001602082028036833780820191505090505b50905060008567ffffffffffffffff8111156106c1576106c0612002565b5b6040519080825280602002602001820160405280156106ef5781602001602082028036833780820191505090505b50905060005b868110156107f0576000600160008a848151811061071657610715612031565b5b602002602001015181526020019081526020016000209050806001015487838151811061074657610745612031565b5b602002602001018181525050806002015486838151811061076a57610769612031565b5b602002602001018181525050806003015485838151811061078e5761078d612031565b5b60200260200101818152505080600401548483815181106107b2576107b1612031565b5b60200260200101818152505080600501548383815181106107d6576107d5612031565b5b6020026020010181815250505080806001019150506106f5565b508685858585859c509c509c509c509c509c505050505050505091939550919395565b60026020528060005260406000206000915090508060000154908060010154908060020154908060030154908060040154908060050154908060060154908060070154905088565b60016020528060005260406000206000915090508060000154908060010154908060020154908060030154908060040154908060050154905086565b6040518060c001604052808581526020018781526020018681526020018481526020018381526020018281525060016000868152602001908152602001600020600082015181600001556020820151816001015560408201518160020155606082015181600301556080820151816004015560a082015181600501559050506008600088815260200190815260200160002084908060018154018082558091505060019003906000526020600020016000909190919091505550505050505050565b60006060600061097b6005600087815260200190815260200160002054611705565b9050836005600087815260200190815260200160002054036109a45760018192509250506109ad565b60008192509250505b9250929050565b600660205281600052604060002081815481106109d057600080fd5b90600052602060002001600091509150505481565b6006600083815260200190815260200160002083908060018154018082558091505060019003906000526020600020016000909190919091505581600460008581526020019081526020016000208190555080600a600085815260200190815260200160002081905550505050565b600b6020528060005260406000206000915090505481565b606080600060606000806000808881526020019081526020016000206002018054905090506000806000898152602001908152602001600020600201805480602002602001604051908101604052809291908181526020018280548015610af257602002820191906000526020600020905b815481526020019060010190808311610ade575b5050505050905060008267ffffffffffffffff811115610b1557610b14612002565b5b604051908082528060200260200182016040528015610b435781602001602082028036833780820191505090505b50905060008367ffffffffffffffff811115610b6257610b61612002565b5b604051908082528060200260200182016040528015610b905781602001602082028036833780820191505090505b50905060005b84811015610c385760008060008d81526020019081526020016000206003016000868481518110610bca57610bc9612031565b5b6020026020010151815260200190815260200160002090508060010154848381518110610bfa57610bf9612031565b5b6020026020010181815250508060020154838381518110610c1e57610c1d612031565b5b602002602001018181525050508080600101915050610b96565b5060008060008c8152602001908152602001600020600101549050838382848899509950995099509950505050505091939590929450565b60096020528060005260406000206000915090505481565b606080606080606080600060066000898152602001908152602001600020805480602002602001604051908101604052809291908181526020018280548015610cf057602002820191906000526020600020905b815481526020019060010190808311610cdc575b5050505050905060008151905060008167ffffffffffffffff811115610d1957610d18612002565b5b604051908082528060200260200182016040528015610d475781602001602082028036833780820191505090505b50905060008267ffffffffffffffff811115610d6657610d65612002565b5b604051908082528060200260200182016040528015610d945781602001602082028036833780820191505090505b50905060008367ffffffffffffffff811115610db357610db2612002565b5b604051908082528060200260200182016040528015610de15781602001602082028036833780820191505090505b50905060008467ffffffffffffffff811115610e0057610dff612002565b5b604051908082528060200260200182016040528015610e2e5781602001602082028036833780820191505090505b50905060008567ffffffffffffffff811115610e4d57610e4c612002565b5b604051908082528060200260200182016040528015610e7b5781602001602082028036833780820191505090505b50905060005b86811015610f82576000888281518110610e9e57610e9d612031565b5b6020026020010151905060006002600083815260200190815260200160002090508060000154888481518110610ed757610ed6612031565b5b6020026020010181815250508060030154878481518110610efb57610efa612031565b5b6020026020010181815250508060040154868481518110610f1f57610f1e612031565b5b6020026020010181815250508060050154858481518110610f4357610f42612031565b5b6020026020010181815250508060060154848481518110610f6757610f66612031565b5b60200260200101818152505050508080600101915050610e81565b508487858585859c509c509c509c509c509c505050505050505091939550919395565b60076020528160005260406000208181548110610fc157600080fd5b90600052602060002001600091509150505481565b60608060608060608060006007600089815260200190815260200160002080548060200260200160405190810160405280929190818152602001828054801561103e57602002820191906000526020600020905b81548152602001906001019080831161102a575b5050505050905060008151905060008167ffffffffffffffff81111561106757611066612002565b5b6040519080825280602002602001820160405280156110955781602001602082028036833780820191505090505b50905060008267ffffffffffffffff8111156110b4576110b3612002565b5b6040519080825280602002602001820160405280156110e25781602001602082028036833780820191505090505b50905060008367ffffffffffffffff81111561110157611100612002565b5b60405190808252806020026020018201604052801561112f5781602001602082028036833780820191505090505b50905060008467ffffffffffffffff81111561114e5761114d612002565b5b60405190808252806020026020018201604052801561117c5781602001602082028036833780820191505090505b50905060008567ffffffffffffffff81111561119b5761119a612002565b5b6040519080825280602002602001820160405280156111c95781602001602082028036833780820191505090505b50905060005b868110156113035760008882815181106111ec576111eb612031565b5b60200260200101519050600460008281526020019081526020016000205487838151811061121d5761121c612031565b5b60200260200101818152505060036000828152602001908152602001600020548683815181106112505761124f612031565b5b602002602001018181525050600960008281526020019081526020016000205485838151811061128357611282612031565b5b602002602001018181525050600a6000828152602001908152602001600020548483815181106112b6576112b5612031565b5b602002602001018181525050600b6000828152602001908152602001600020548383815181106112e9576112e8612031565b5b6020026020010181815250505080806001019150506111cf565b508684848785859c509c509c509c509c509c505050505050505091939550919395565b60046020528060005260406000206000915090505481565b6000806002600084815260200190815260200160002090506000816006015490508092505050919050565b6040518061010001604052808881526020018381526020018681526020018781526020018581526020018481526020017f417661696c61626c65000000000000000000000000000000000000000000000081526020018281525060026000878152602001908152602001600020600082015181600001556020820151816001015560408201518160020155606082015181600301556080820151816004015560a0820151816005015560c0820151816006015560e082015181600701559050508660036000878152602001908152602001600020819055508060096000878152602001908152602001600020819055506000801b60008089815260200190815260200160002060000154036114ad57866000808981526020019081526020016000206000018190555083600080898152602001908152602001600020600101819055505b6000806000898152602001908152602001600020905060008160030160008581526020019081526020016000209050600081600001540361152657838160000181905550878160010181905550816002018490806001815401808255809150506001900390600052602060002001600090919091909150555b80600201600081548092919061153b9061208f565b9190505550505050505050505050565b600a6020528060005260406000206000915090505481565b60036020528060005260406000206000915090505481565b60056020528060005260406000206000915090505481565b600860205281600052604060002081815481106115af57600080fd5b90600052602060002001600091509150505481565b60006002600085815260200190815260200160002090506000816006015490507f417661696c61626c65000000000000000000000000000000000000000000000081036116fe577f536f6c640000000000000000000000000000000000000000000000000000000082600601819055506007600085815260200190815260200160002085908060018154018082558091505060019003906000526020600020016000909190919091505583600560008781526020019081526020016000208190555082600b60008781526020019081526020016000208190555060008260000154905060008360010154905060008060008481526020019081526020016000209050600081600301600084815260200190815260200160002090508060020160008154809291906116f4906120d7565b9190505550505050505b5050505050565b60606000602067ffffffffffffffff81111561172457611723612002565b5b6040519080825280601f01601f1916602001820160405280156117565781602001600182028036833780820191505090505b50905060005b60208110156117cb5783816020811061177857611777612031565b5b1a60f81b82828151811061178f5761178e612031565b5b60200101907effffffffffffffffffffffffffffffffffffffffffffffffffffffffffffff1916908160001a905350808060010191505061175c565b5080915050919050565b600080fd5b6000819050919050565b6117ed816117da565b81146117f857600080fd5b50565b60008135905061180a816117e4565b92915050565b600060208284031215611826576118256117d5565b5b6000611834848285016117fb565b91505092915050565b600081519050919050565b600082825260208201905092915050565b6000819050602082019050919050565b611872816117da565b82525050565b60006118848383611869565b60208301905092915050565b6000602082019050919050565b60006118a88261183d565b6118b28185611848565b93506118bd83611859565b8060005b838110156118ee5781516118d58882611878565b97506118e083611890565b9250506001810190506118c1565b5085935050505092915050565b600081519050919050565b600082825260208201905092915050565b6000819050602082019050919050565b6000819050919050565b61193a81611927565b82525050565b600061194c8383611931565b60208301905092915050565b6000602082019050919050565b6000611970826118fb565b61197a8185611906565b935061198583611917565b8060005b838110156119b657815161199d8882611940565b97506119a883611958565b925050600181019050611989565b5085935050505092915050565b600060c08201905081810360008301526119dd818961189d565b905081810360208301526119f1818861189d565b90508181036040830152611a05818761189d565b90508181036060830152611a198186611965565b90508181036080830152611a2d818561189d565b905081810360a0830152611a41818461189d565b9050979650505050505050565b611a57816117da565b82525050565b611a6681611927565b82525050565b600061010082019050611a82600083018b611a4e565b611a8f602083018a611a5d565b611a9c6040830189611a4e565b611aa96060830188611a4e565b611ab66080830187611a4e565b611ac360a0830186611a5d565b611ad060c0830185611a4e565b611add60e0830184611a4e565b9998505050505050505050565b600060c082019050611aff6000830189611a4e565b611b0c6020830188611a4e565b611b196040830187611a4e565b611b266060830186611a5d565b611b336080830185611a4e565b611b4060a0830184611a4e565b979650505050505050565b611b5481611927565b8114611b5f57600080fd5b50565b600081359050611b7181611b4b565b92915050565b600080600080600080600060e0888a031215611b9657611b956117d5565b5b6000611ba48a828b016117fb565b9750506020611bb58a828b016117fb565b9650506040611bc68a828b016117fb565b9550506060611bd78a828b016117fb565b9450506080611be88a828b01611b62565b93505060a0611bf98a828b016117fb565b92505060c0611c0a8a828b016117fb565b91505092959891949750929550565b60008060408385031215611c3057611c2f6117d5565b5b6000611c3e858286016117fb565b9250506020611c4f858286016117fb565b9150509250929050565b60008115159050919050565b611c6e81611c59565b82525050565b600081519050919050565b600082825260208201905092915050565b60005b83811015611cae578082015181840152602081019050611c93565b60008484015250505050565b6000601f19601f8301169050919050565b6000611cd682611c74565b611ce08185611c7f565b9350611cf0818560208601611c90565b611cf981611cba565b840191505092915050565b6000604082019050611d196000830185611c65565b8181036020830152611d2b8184611ccb565b90509392505050565b60008060408385031215611d4b57611d4a6117d5565b5b6000611d59858286016117fb565b9250506020611d6a85828601611b62565b9150509250929050565b6000602082019050611d896000830184611a4e565b92915050565b600080600060608486031215611da857611da76117d5565b5b6000611db6868287016117fb565b9350506020611dc7868287016117fb565b9250506040611dd8868287016117fb565b9150509250925092565b600060a0820190508181036000830152611dfc8188611965565b90508181036020830152611e10818761189d565b9050611e1f6040830186611a4e565b8181036060830152611e318185611965565b9050611e406080830184611a5d565b9695505050505050565b600060c0820190508181036000830152611e64818961189d565b90508181036020830152611e78818861189d565b90508181036040830152611e8c818761189d565b90508181036060830152611ea0818661189d565b90508181036080830152611eb48185611965565b905081810360a0830152611ec8818461189d565b9050979650505050505050565b600060c0820190508181036000830152611eef818961189d565b90508181036020830152611f03818861189d565b90508181036040830152611f17818761189d565b90508181036060830152611f2b818661189d565b90508181036080830152611f3f818561189d565b905081810360a0830152611f53818461189d565b9050979650505050505050565b600080600080600080600060e0888a031215611f7f57611f7e6117d5565b5b6000611f8d8a828b016117fb565b9750506020611f9e8a828b016117fb565b9650506040611faf8a828b016117fb565b9550506060611fc08a828b016117fb565b9450506080611fd18a828b01611b62565b93505060a0611fe28a828b01611b62565b92505060c0611ff38a828b016117fb565b91505092959891949750929550565b7f4e487b7100000000000000000000000000000000000000000000000000000000600052604160045260246000fd5b7f4e487b7100000000000000000000000000000000000000000000000000000000600052603260045260246000fd5b7f4e487b7100000000000000000000000000000000000000000000000000000000600052601160045260246000fd5b600061209a82611927565b91507fffffffffffffffffffffffffffffffffffffffffffffffffffffffffffffffff82036120cc576120cb612060565b5b600182019050919050565b60006120e282611927565b9150600082036120f5576120f4612060565b5b60018203905091905056fea2646970667358221220596405882a228d51317be6c6427100c1735bc62d592c8887389cd99a4e690fb664736f6c634300081c0033",
  "linkReferences": {},
  "deployedLinkReferences": {},
  "address": "0xD9E3692B272C1705204c6F3E2c05ebDf29B38297",
  "networkId": "1337"
}