{
  "_format": "hh-sol-artifact-1",
  "contractName": "MedicalProduct",
  "sourceName": "contracts/MedicalProduct.sol",
  "abi": [
    {
      "anonymous": false,
      "inputs": [
        {
          "indexed": true,
          "internalType": "bytes32",
          "name": "productSN",
          "type": "bytes32"
        },
        {
          "indexed": true,
          "internalType": "bytes32",
          "name": "sellerId",
          "type": "bytes32"
        },
        {
          "indexed": false,
          "internalType": "bytes32",
          "name": "time",
          "type": "bytes32"
        }
      ],
      "name": "DeliveryAcknowledged",
      "type": "event"
    },
    {
      "anonymous": false,
      "inputs": [
        {
          "indexed": false,
          "internalType": "bytes32",
          "name": "manufacturerId",
          "type": "bytes32"
        },
        {
          "indexed": false,
          "internalType": "bytes32",
          "name": "manufacturerName",
          "type": "bytes32"
        },
        {
          "indexed": false,
          "internalType": "bytes32",
          "name": "productBrand",
          "type": "bytes32"
        }
      ],
      "name": "ManufacturerRegistered",
      "type": "event"
    },
    {
      "anonymous": false,
      "inputs": [
        {
          "indexed": false,
          "internalType": "bytes32",
          "name": "manufacturerId",
          "type": "bytes32"
        },
        {
          "indexed": false,
          "internalType": "uint256",
          "name": "productId",
          "type": "uint256"
        },
        {
          "indexed": false,
          "internalType": "bytes32",
          "name": "productSN",
          "type": "bytes32"
        },
        {
          "indexed": false,
          "internalType": "bytes32",
          "name": "productName",
          "type": "bytes32"
        }
      ],
      "name": "ProductAdded",
      "type": "event"
    },
    {
      "anonymous": false,
      "inputs": [
        {
          "indexed": true,
          "internalType": "bytes32",
          "name": "productSN",
          "type": "bytes32"
        },
        {
          "indexed": false,
          "internalType": "bytes32",
          "name": "manufacturerId",
          "type": "bytes32"
        },
        {
          "indexed": false,
          "internalType": "uint256",
          "name": "productId",
          "type": "uint256"
        },
        {
          "indexed": false,
          "internalType": "bytes32",
          "name": "productName",
          "type": "bytes32"
        },
        {
          "indexed": false,
          "internalType": "bytes32",
          "name": "productBrand",
          "type": "bytes32"
        },
        {
          "indexed": false,
          "internalType": "uint256",
          "name": "productPrice",
          "type": "uint256"
        },
        {
          "indexed": false,
          "internalType": "bytes32",
          "name": "productStatus",
          "type": "bytes32"
        },
        {
          "indexed": false,
          "internalType": "bytes32",
          "name": "productTime",
          "type": "bytes32"
        },
        {
          "indexed": false,
          "internalType": "bytes32",
          "name": "currentOwner",
          "type": "bytes32"
        }
      ],
      "name": "ProductVerified",
      "type": "event"
    },
    {
      "anonymous": false,
      "inputs": [
        {
          "indexed": true,
          "internalType": "bytes32",
          "name": "manufacturerId",
          "type": "bytes32"
        },
        {
          "indexed": true,
          "internalType": "bytes32",
          "name": "sellerId",
          "type": "bytes32"
        }
      ],
      "name": "SellerAdded",
      "type": "event"
    },
    {
      "inputs": [
        {
          "internalType": "bytes32",
          "name": "",
          "type": "bytes32"
        }
      ],
      "name": "acknowledgedBy",
      "outputs": [
        {
          "internalType": "bytes32",
          "name": "",
          "type": "bytes32"
        }
      ],
      "stateMutability": "view",
      "type": "function"
    },
    {
      "inputs": [
        {
          "internalType": "bytes32",
          "name": "",
          "type": "bytes32"
        }
      ],
      "name": "acknowledgedTime",
      "outputs": [
        {
          "internalType": "bytes32",
          "name": "",
          "type": "bytes32"
        }
      ],
      "stateMutability": "view",
      "type": "function"
    },
    {
      "inputs": [
        {
          "internalType": "bytes32",
          "name": "_manufacturerID",
          "type": "bytes32"
        },
        {
          "internalType": "bytes32",
          "name": "_manufacturerName",
          "type": "bytes32"
        },
        {
          "internalType": "bytes32",
          "name": "_productName",
          "type": "bytes32"
        },
        {
          "internalType": "bytes32",
          "name": "_productSN",
          "type": "bytes32"
        },
        {
          "internalType": "bytes32",
          "name": "_productBrand",
          "type": "bytes32"
        },
        {
          "internalType": "uint256",
          "name": "_productPrice",
          "type": "uint256"
        },
        {
          "internalType": "uint256",
          "name": "_productID",
          "type": "uint256"
        },
        {
          "internalType": "bytes32",
          "name": "_productTime",
          "type": "bytes32"
        }
      ],
      "name": "addProduct",
      "outputs": [],
      "stateMutability": "nonpayable",
      "type": "function"
    },
    {
      "inputs": [
        {
          "internalType": "bytes32",
          "name": "_manufacturerId",
          "type": "bytes32"
        },
        {
          "internalType": "bytes32",
          "name": "_sellerName",
          "type": "bytes32"
        },
        {
          "internalType": "bytes32",
          "name": "_sellerBrand",
          "type": "bytes32"
        },
        {
          "internalType": "bytes32",
          "name": "_sellerID",
          "type": "bytes32"
        },
        {
          "internalType": "uint256",
          "name": "_sellerNum",
          "type": "uint256"
        },
        {
          "internalType": "bytes32",
          "name": "_sellerManager",
          "type": "bytes32"
        },
        {
          "internalType": "bytes32",
          "name": "_sellerAddress",
          "type": "bytes32"
        }
      ],
      "name": "addSeller",
      "outputs": [],
      "stateMutability": "nonpayable",
      "type": "function"
    },
    {
      "inputs": [
        {
          "internalType": "bytes32",
          "name": "_sellerID",
          "type": "bytes32"
        },
        {
          "internalType": "bytes32",
          "name": "_sellerName",
          "type": "bytes32"
        },
        {
          "internalType": "bytes32",
          "name": "_sellerBrand",
          "type": "bytes32"
        },
        {
          "internalType": "uint256",
          "name": "_sellerNum",
          "type": "uint256"
        },
        {
          "internalType": "bytes32",
          "name": "_sellerManager",
          "type": "bytes32"
        },
        {
          "internalType": "bytes32",
          "name": "_sellerAddress",
          "type": "bytes32"
        }
      ],
      "name": "checkSellerConflict",
      "outputs": [
        {
          "internalType": "bool",
          "name": "exists",
          "type": "bool"
        },
        {
          "internalType": "bool",
          "name": "hasConflict",
          "type": "bool"
        },
        {
          "components": [
            {
              "internalType": "bytes32",
              "name": "sellerId",
              "type": "bytes32"
            },
            {
              "internalType": "bytes32",
              "name": "sellerName",
              "type": "bytes32"
            },
            {
              "internalType": "bytes32",
              "name": "sellerBrand",
              "type": "bytes32"
            },
            {
              "internalType": "uint256",
              "name": "sellerNum",
              "type": "uint256"
            },
            {
              "internalType": "bytes32",
              "name": "sellerManager",
              "type": "bytes32"
            },
            {
              "internalType": "bytes32",
              "name": "sellerAddress",
              "type": "bytes32"
            }
          ],
          "internalType": "struct MedicalProduct.seller",
          "name": "existingSeller",
          "type": "tuple"
        }
      ],
      "stateMutability": "view",
      "type": "function"
    },
    {
      "inputs": [
        {
          "internalType": "bytes32",
          "name": "_productSN",
          "type": "bytes32"
        }
      ],
      "name": "checkStatus",
      "outputs": [
        {
          "internalType": "bytes32",
          "name": "",
          "type": "bytes32"
        }
      ],
      "stateMutability": "view",
      "type": "function"
    },
    {
      "inputs": [
        {
          "internalType": "bytes32",
          "name": "_sellerId",
          "type": "bytes32"
        }
      ],
      "name": "getProductsForSeller",
      "outputs": [
        {
          "internalType": "bytes32[]",
          "name": "",
          "type": "bytes32[]"
        }
      ],
      "stateMutability": "view",
      "type": "function"
    },
    {
      "inputs": [
        {
          "internalType": "bytes32",
          "name": "_consumerID",
          "type": "bytes32"
        }
      ],
      "name": "getPurchaseHistory",
      "outputs": [
        {
          "internalType": "bytes32[]",
          "name": "",
          "type": "bytes32[]"
        },
        {
          "internalType": "bytes32[]",
          "name": "",
          "type": "bytes32[]"
        },
        {
          "internalType": "bytes32[]",
          "name": "",
          "type": "bytes32[]"
        },
        {
          "internalType": "bytes32[]",
          "name": "",
          "type": "bytes32[]"
        },
        {
          "internalType": "bytes32[]",
          "name": "",
          "type": "bytes32[]"
        },
        {
          "internalType": "bytes32[]",
          "name": "",
          "type": "bytes32[]"
        }
      ],
      "stateMutability": "view",
      "type": "function"
    },
    {
      "inputs": [
        {
          "internalType": "bytes32",
          "name": "",
          "type": "bytes32"
        }
      ],
      "name": "isAcknowledged",
      "outputs": [
        {
          "internalType": "bool",
          "name": "",
          "type": "bool"
        }
      ],
      "stateMutability": "view",
      "type": "function"
    },
    {
      "inputs": [
        {
          "internalType": "bytes32",
          "name": "",
          "type": "bytes32"
        },
        {
          "internalType": "bytes32",
          "name": "",
          "type": "bytes32"
        }
      ],
      "name": "isSellerAssociated",
      "outputs": [
        {
          "internalType": "bool",
          "name": "",
          "type": "bool"
        }
      ],
      "stateMutability": "view",
      "type": "function"
    },
    {
      "inputs": [
        {
          "internalType": "bytes32",
          "name": "",
          "type": "bytes32"
        }
      ],
      "name": "manufacturedTime",
      "outputs": [
        {
          "internalType": "bytes32",
          "name": "",
          "type": "bytes32"
        }
      ],
      "stateMutability": "view",
      "type": "function"
    },
    {
      "inputs": [
        {
          "internalType": "bytes32",
          "name": "_productSN",
          "type": "bytes32"
        },
        {
          "internalType": "bytes32",
          "name": "_sellerID",
          "type": "bytes32"
        },
        {
          "internalType": "bytes32",
          "name": "_manufacturerID",
          "type": "bytes32"
        },
        {
          "internalType": "bytes32",
          "name": "_productTime",
          "type": "bytes32"
        }
      ],
      "name": "manufacturerSellProduct",
      "outputs": [],
      "stateMutability": "nonpayable",
      "type": "function"
    },
    {
      "inputs": [
        {
          "internalType": "bytes32",
          "name": "",
          "type": "bytes32"
        }
      ],
      "name": "manufacturerToSellerTime",
      "outputs": [
        {
          "internalType": "bytes32",
          "name": "",
          "type": "bytes32"
        }
      ],
      "stateMutability": "view",
      "type": "function"
    },
    {
      "inputs": [
        {
          "internalType": "bytes32",
          "name": "",
          "type": "bytes32"
        }
      ],
      "name": "productItems",
      "outputs": [
        {
          "internalType": "bytes32",
          "name": "manufacturerId",
          "type": "bytes32"
        },
        {
          "internalType": "uint256",
          "name": "productId",
          "type": "uint256"
        },
        {
          "internalType": "bytes32",
          "name": "productSN",
          "type": "bytes32"
        },
        {
          "internalType": "bytes32",
          "name": "productName",
          "type": "bytes32"
        },
        {
          "internalType": "bytes32",
          "name": "productBrand",
          "type": "bytes32"
        },
        {
          "internalType": "uint256",
          "name": "productPrice",
          "type": "uint256"
        },
        {
          "internalType": "bytes32",
          "name": "productStatus",
          "type": "bytes32"
        },
        {
          "internalType": "bytes32",
          "name": "productTime",
          "type": "bytes32"
        }
      ],
      "stateMutability": "view",
      "type": "function"
    },
    {
      "inputs": [
        {
          "internalType": "bytes32",
          "name": "",
          "type": "bytes32"
        }
      ],
      "name": "productsForSale",
      "outputs": [
        {
          "internalType": "bytes32",
          "name": "",
          "type": "bytes32"
        }
      ],
      "stateMutability": "view",
      "type": "function"
    },
    {
      "inputs": [
        {
          "internalType": "bytes32",
          "name": "",
          "type": "bytes32"
        }
      ],
      "name": "productsManufactured",
      "outputs": [
        {
          "internalType": "bytes32",
          "name": "",
          "type": "bytes32"
        }
      ],
      "stateMutability": "view",
      "type": "function"
    },
    {
      "inputs": [
        {
          "internalType": "bytes32",
          "name": "",
          "type": "bytes32"
        }
      ],
      "name": "productsSold",
      "outputs": [
        {
          "internalType": "bytes32",
          "name": "",
          "type": "bytes32"
        }
      ],
      "stateMutability": "view",
      "type": "function"
    },
    {
      "inputs": [
        {
          "internalType": "bytes32",
          "name": "",
          "type": "bytes32"
        },
        {
          "internalType": "uint256",
          "name": "",
          "type": "uint256"
        }
      ],
      "name": "productsWithConsumer",
      "outputs": [
        {
          "internalType": "bytes32",
          "name": "",
          "type": "bytes32"
        }
      ],
      "stateMutability": "view",
      "type": "function"
    },
    {
      "inputs": [
        {
          "internalType": "bytes32",
          "name": "",
          "type": "bytes32"
        },
        {
          "internalType": "uint256",
          "name": "",
          "type": "uint256"
        }
      ],
      "name": "productsWithSeller",
      "outputs": [
        {
          "internalType": "bytes32",
          "name": "",
          "type": "bytes32"
        }
      ],
      "stateMutability": "view",
      "type": "function"
    },
    {
      "inputs": [
        {
          "internalType": "bytes32",
          "name": "_manufacturerId",
          "type": "bytes32"
        }
      ],
      "name": "queryInventory",
      "outputs": [
        {
          "internalType": "uint256[]",
          "name": "",
          "type": "uint256[]"
        },
        {
          "internalType": "bytes32[]",
          "name": "",
          "type": "bytes32[]"
        },
        {
          "internalType": "bytes32[]",
          "name": "",
          "type": "bytes32[]"
        },
        {
          "internalType": "uint256[]",
          "name": "",
          "type": "uint256[]"
        },
        {
          "internalType": "uint256",
          "name": "",
          "type": "uint256"
        }
      ],
      "stateMutability": "view",
      "type": "function"
    },
    {
      "inputs": [
        {
          "internalType": "bytes32",
          "name": "_sellerID",
          "type": "bytes32"
        }
      ],
      "name": "queryProductsList",
      "outputs": [
        {
          "internalType": "bytes32[]",
          "name": "",
          "type": "bytes32[]"
        },
        {
          "internalType": "bytes32[]",
          "name": "",
          "type": "bytes32[]"
        },
        {
          "internalType": "bytes32[]",
          "name": "",
          "type": "bytes32[]"
        },
        {
          "internalType": "bytes32[]",
          "name": "",
          "type": "bytes32[]"
        },
        {
          "internalType": "uint256[]",
          "name": "",
          "type": "uint256[]"
        },
        {
          "internalType": "bytes32[]",
          "name": "",
          "type": "bytes32[]"
        }
      ],
      "stateMutability": "view",
      "type": "function"
    },
    {
      "inputs": [
        {
          "internalType": "bytes32",
          "name": "_manufacturerID",
          "type": "bytes32"
        }
      ],
      "name": "querySellersList",
      "outputs": [
        {
          "internalType": "bytes32[]",
          "name": "",
          "type": "bytes32[]"
        },
        {
          "internalType": "bytes32[]",
          "name": "",
          "type": "bytes32[]"
        },
        {
          "internalType": "bytes32[]",
          "name": "",
          "type": "bytes32[]"
        },
        {
          "internalType": "uint256[]",
          "name": "",
          "type": "uint256[]"
        },
        {
          "internalType": "bytes32[]",
          "name": "",
          "type": "bytes32[]"
        },
        {
          "internalType": "bytes32[]",
          "name": "",
          "type": "bytes32[]"
        }
      ],
      "stateMutability": "view",
      "type": "function"
    },
    {
      "inputs": [
        {
          "internalType": "bytes32",
          "name": "_manufacturerID",
          "type": "bytes32"
        },
        {
          "internalType": "bytes32",
          "name": "_manufacturerName",
          "type": "bytes32"
        },
        {
          "internalType": "bytes32",
          "name": "_productBrand",
          "type": "bytes32"
        }
      ],
      "name": "registerManufacturer",
      "outputs": [],
      "stateMutability": "nonpayable",
      "type": "function"
    },
    {
      "inputs": [
        {
          "internalType": "bytes32",
          "name": "_productSN",
          "type": "bytes32"
        },
        {
          "internalType": "bytes32",
          "name": "_sellerID",
          "type": "bytes32"
        },
        {
          "internalType": "bytes32",
          "name": "_ackTime",
          "type": "bytes32"
        }
      ],
      "name": "sellerAcknowledgeDelivery",
      "outputs": [],
      "stateMutability": "nonpayable",
      "type": "function"
    },
    {
      "inputs": [
        {
          "internalType": "bytes32",
          "name": "_productSN",
          "type": "bytes32"
        },
        {
          "internalType": "bytes32",
          "name": "_consumerID",
          "type": "bytes32"
        },
        {
          "internalType": "bytes32",
          "name": "_productTime",
          "type": "bytes32"
        }
      ],
      "name": "sellerSellProduct",
      "outputs": [],
      "stateMutability": "nonpayable",
      "type": "function"
    },
    {
      "inputs": [
        {
          "internalType": "bytes32",
          "name": "",
          "type": "bytes32"
        }
      ],
      "name": "sellers",
      "outputs": [
        {
          "internalType": "bytes32",
          "name": "sellerId",
          "type": "bytes32"
        },
        {
          "internalType": "bytes32",
          "name": "sellerName",
          "type": "bytes32"
        },
        {
          "internalType": "bytes32",
          "name": "sellerBrand",
          "type": "bytes32"
        },
        {
          "internalType": "uint256",
          "name": "sellerNum",
          "type": "uint256"
        },
        {
          "internalType": "bytes32",
          "name": "sellerManager",
          "type": "bytes32"
        },
        {
          "internalType": "bytes32",
          "name": "sellerAddress",
          "type": "bytes32"
        }
      ],
      "stateMutability": "view",
      "type": "function"
    },
    {
      "inputs": [
        {
          "internalType": "bytes32",
          "name": "",
          "type": "bytes32"
        },
        {
          "internalType": "uint256",
          "name": "",
          "type": "uint256"
        }
      ],
      "name": "sellersWithManufacturer",
      "outputs": [
        {
          "internalType": "bytes32",
          "name": "",
          "type": "bytes32"
        }
      ],
      "stateMutability": "view",
      "type": "function"
    },
    {
      "inputs": [
        {
          "internalType": "bytes32",
          "name": "",
          "type": "bytes32"
        }
      ],
      "name": "sellingTime",
      "outputs": [
        {
          "internalType": "bytes32",
          "name": "",
          "type": "bytes32"
        }
      ],
      "stateMutability": "view",
      "type": "function"
    },
    {
      "inputs": [
        {
          "internalType": "bytes32",
          "name": "_productSN",
          "type": "bytes32"
        },
        {
          "internalType": "bytes32",
          "name": "_consumerID",
          "type": "bytes32"
        }
      ],
      "name": "verifyProduct",
      "outputs": [
        {
          "internalType": "bool",
          "name": "",
          "type": "bool"
        },
        {
          "internalType": "string",
          "name": "",
          "type": "string"
        }
      ],
      "stateMutability": "view",
      "type": "function"
    },
    {
      "inputs": [
        {
          "internalType": "bytes32",
          "name": "_productSN",
          "type": "bytes32"
        }
      ],
      "name": "verifyProductForSeller",
      "outputs": [
        {
          "internalType": "bool",
          "name": "exists",
          "type": "bool"
        },
        {
          "internalType": "bytes32",
          "name": "manufacturerId",
          "type": "bytes32"
        },
        {
          "internalType": "uint256",
          "name": "productId",
          "type": "uint256"
        },
        {
          "internalType": "bytes32",
          "name": "productName",
          "type": "bytes32"
        },
        {
          "internalType": "bytes32",
          "name": "productBrand",
          "type": "bytes32"
        },
        {
          "internalType": "uint256",
          "name": "productPrice",
          "type": "uint256"
        },
        {
          "internalType": "bytes32",
          "name": "productStatus",
          "type": "bytes32"
        },
        {
          "internalType": "bytes32",
          "name": "productTime",
          "type": "bytes32"
        },
        {
          "internalType": "bytes32",
          "name": "currentOwner",
          "type": "bytes32"
        },
        {
          "internalType": "bool",
          "name": "acknowledged",
          "type": "bool"
        },
        {
          "internalType": "bytes32",
          "name": "acknowledgedAt",
          "type": "bytes32"
        }
      ],
      "stateMutability": "view",
      "type": "function"
    }
  ],
  "bytecode": "0x60808060405234601557611983908161001b8239f35b600080fdfe608080604052600436101561001357600080fd5b60003560e01c908163130aa81f146113d75750806314c52c671461135e57806318607f30146112fb5780631b3658c814611178578063344b5d511461110b578063381f161414610f515780634b99300114610f2057806352cf016a14610eb357806357fcd4f514610e875780636714fee014610e0a578063678c4ac214610dd957806368a6b9da14610dad57806369f3363a14610c5e5780637b8d84de14610c325780638f61158714610a5957806392162bc4146109185780639cd777dd146108e75780639ea4695d146107335780639fe33dfe146106fb578063a090f47c146106cf578063a2200278146106a0578063b7d16fb314610674578063c20805b414610648578063cd4f6a2e1461061c578063cfdf44c8146105f0578063d277893c146103ae578063e262113f1461036e578063e5d194ab146102aa578063ea947b55146101e85763f27b2f401461016957600080fd5b346101e35760c03660031901126101e35761010060a061019960a435608435606435604435602435600435611845565b90604093929351931515845215156020840152805160408401526020810151606084015260408101516080840152606081015182840152608081015160c0840152015160e0820152f35b600080fd5b346101e3576101f636611560565b91806000526000602052604060002054610265577f84015f7ed02ad8a3075ee08ab14ec9f6df27afbacab46d846fdb0d6bc723629f92606092826000526000602052610252826002604060002086815584600182015501611661565b60405192835260208301526040820152a1005b60405162461bcd60e51b815260206004820152601f60248201527f4d616e75666163747572657220616c72656164792072656769737465726564006044820152606490fd5b346101e3576102b836611560565b90918060005260026020526040600020926006840168417661696c61626c6560b81b8154146102e357005b6314dbdb1960e21b9055806000526007602052610304826040600020611661565b816000526005602052604060002055600052600c6020526040600020556001815491015490600052600060205260046040600020019060005260205260036040600020018054801561035857600019019055005b634e487b7160e01b600052601160045260246000fd5b346101e35761037c3661154a565b906000526008602052604060002080548210156101e35760209161039f9161157a565b90549060031b1c604051908152f35b346101e3576101003660031901126101e35760043560443590606435916084359160c4359160e4356040516103e2816115c4565b83815260078760208301878152604084018281526060850187815260808601908b825260a087019260a435845260c088019468417661696c61626c6560b81b865260e08901968a88526000526002602052604060002098518955516001890155516002880155516003870155516004860155516005850155516006840155519101558560005260036020528260406000205585600052600a6020526040600020558160005260006020526040600020938454156105e0575b600094600060028201908154905b8181106105b3575b505090918093949596156105a3575b5050846000526004810160205260406000209182541561052e575b5050600301938454936000198514610358577fc540fbf22c1fb216605338079a638d447385a97f649f9b472c422fe37e0c1264956001608096019055604051938452602084015260408301526060820152a1005b9060039186845584600285015587600185015560048401550190815491600160401b83101561058d5761058461056d848893600160039701815561157a565b819391549060031b91821b91600019901b19161790565b905590866104da565b634e487b7160e01b600052604160045260246000fd5b6105ac91611661565b86826104bf565b846105be828561157a565b90549060031b1c146105d2576001016104a8565b5060019750839050896104b0565b828555602435600186015561049a565b346101e35760203660031901126101e357600435600052600e6020526020604060002054604051908152f35b346101e35760203660031901126101e35760043560005260056020526020604060002054604051908152f35b346101e35760203660031901126101e35760043560005260036020526020604060002054604051908152f35b346101e35760203660031901126101e357600435600052600b6020526020604060002054604051908152f35b346101e35760203660031901126101e35760043560005260026020526020600660406000200154604051908152f35b346101e35760203660031901126101e35760043560005260046020526020604060002054604051908152f35b346101e3576107093661154a565b906000526009602052604060002090600052602052602060ff604060002054166040519015158152f35b346101e35760203660031901126101e357600435600052600760205260406000206040518082602082945493848152019060005260206000209260005b8181106108ce575050610785925003826115e1565b8051906107918261161b565b9161079b8161161b565b926107a58261161b565b6107ae8361161b565b946107b88461161b565b9360005b818110610839576107ef87610835886108278c6108198b61080b8c6107fd8d6040519b8c9b60c08d5260c08d0190611516565b908b820360208d0152611516565b9089820360408b0152611516565b908782036060890152611516565b908582036080870152611516565b9083820360a0850152611516565b0390f35b806108466001928961164d565b51806000526004602052604060002054610860838961164d565b5280600052600360205260406000205461087a838761164d565b5280600052600a602052604060002054610894838861164d565b5280600052600b6020526040600020546108ae838c61164d565b52600052600c6020526040600020546108c7828961164d565b52016107bc565b8454835260019485019486945060209093019201610770565b346101e3576108f53661154a565b906000526007602052604060002080548210156101e35760209161039f9161157a565b346101e35760203660031901126101e357600435600052600660205260406000206040518082602082945493848152019060005260206000209260005b818110610a4057505061096a925003826115e1565b80516109758161161b565b9061097f8161161b565b6109888261161b565b906109928361161b565b9461099c8461161b565b9360005b8181106109d3576107ef87610835886108278c6108198b61080b8c6107fd8d6040519b8c9b60c08d5260c08d0190611516565b806109e06001928561164d565b5160005260026020526006604060002080546109fc848c61164d565b526003810154610a0c848961164d565b526004810154610a1c848a61164d565b526005810154610a2c848d61164d565b520154610a39828961164d565b52016109a0565b8454835260019485019486945060209093019201610955565b346101e35760803660031901126101e357600435602435816000526004602052604060002054610bb257816000526002602052610a9f6001604060002001541515611701565b80600052600160205260406000205415610b75576044356000526009602052604060002081600052602052600160ff60406000205416151503610b1857806000526006602052610af3826040600020611661565b816000526004602052604060002055600052600b602052606435604060002055600080f35b60405162461bcd60e51b815260206004820152602f60248201527f53656c6c6572206973206e6f74206173736f636961746564207769746820746860448201526e34b99036b0b73ab330b1ba3ab932b960891b6064820152608490fd5b60405162461bcd60e51b815260206004820152601560248201527414d95b1b195c88191bd95cc81b9bdd08195e1a5cdd605a1b6044820152606490fd5b60405162461bcd60e51b815260206004820152604c60248201527f446f75626c652073656c6c696e67206973206e6f7420616c6c6f7765642e205060448201527f726f6475637420697320616c726561647920736f6c6420746f20736f6d65206f60648201526b746865722073656c6c65722160a01b608482015260a490fd5b346101e35760203660031901126101e357600435600052600a6020526020604060002054604051908152f35b346101e35760203660031901126101e3576004356000818152602081815260408083206003018054915182815290845282842091949093909284919082019086905b818110610d94575050610cb5925003836115e1565b610cbe8361161b565b610cc78461161b565b90610cd18561161b565b9260005b868110610d3557610d018688610d2b88610d1d89610d0f8a60405198899860a08a5260a08a0190611516565b9088820360208a0152611516565b908682036040880152611516565b908482036060860152611516565b9060808301520390f35b6001908260005260006020526004604060002001610d53828961164d565b51600052602052600360406000206002810154610d70848861164d565b526004810154610d80848961164d565b520154610d8d828861164d565b5201610cd5565b8454835260019485019487945060209093019201610ca0565b346101e35760203660031901126101e357600435600052600c6020526020604060002054604051908152f35b346101e35760203660031901126101e357600435600052600d602052602060ff604060002054166040519015158152f35b346101e35760203660031901126101e3576004356000526006602052604060002060405190816020825491828152019160005260206000209060005b818110610e715761083585610e5d818703826115e1565b604051918291602083526020830190611516565b8254845260209093019260019283019201610e46565b346101e35760203660031901126101e357600435600052600f6020526020604060002054604051908152f35b346101e35760203660031901126101e357610160610ed2600435611745565b986040989198979297969396959495519a15158b5260208b015260408a01526060890152608088015260a087015260c086015260e08501526101008401521515610120830152610140820152f35b346101e357610f2e3661154a565b906000526006602052604060002080548210156101e35760209161039f9161157a565b346101e357610f5f36611560565b826000939293526002602052610f7e6001604060002001541515611701565b81600052600460205282604060002054036110c657816000526003602052604060002054600052600960205260406000208360005260205260ff60406000205416156110715781600052600d60205260ff60406000205416611035576000828152600d60209081526040808320805460ff19166001179055600e8252808320869055600f82529182902083905590519182527f4f84e2b11d6c5b86fa37af4939fc86b126cc68487db6fd73a391b2d4e5a5cac291a3005b60405162461bcd60e51b8152602060048201526014602482015273105b1c9958591e481858dadb9bdddb195919d95960621b6044820152606490fd5b60405162461bcd60e51b815260206004820152602760248201527f53656c6c6572206e6f74206173736f6369617465642077697468206d616e756660448201526630b1ba3ab932b960c91b6064820152608490fd5b60405162461bcd60e51b815260206004820152601f60248201527f50726f64756374206e6f7420736f6c6420746f20746869732073656c6c6572006044820152606490fd5b346101e35761112261111c3661154a565b90611687565b6040519115158252604060208301528181519182604083015260005b8381106111605750508160006060809484010152601f80199101168101030190f35b6020828201810151606087840101528593500161113e565b346101e35760e03660031901126101e3576004356064359080600052600960205260406000208260005260205260ff6040600020541661129d578160005260016020526040600020541561122a575b8060005260086020526111de826040600020611661565b8060005260096020526040600020826000526020526040600020600160ff198254161790557f96289a1ff1b3040d81dccacf01cf617b4736dbc7189a052a295e780aa792ffe0600080a3005b604051611236816115a8565b8281526005602082016024358152604083016044358152606084016084358152608085019160a435835260a086019360c4358552886000526001602052604060002096518755516001870155516002860155516003850155516004840155519101556111c7565b60405162461bcd60e51b815260206004820152603060248201527f53656c6c657220616c7265616479206173736f6369617465642077697468207460448201526f3434b99036b0b73ab330b1ba3ab932b960811b6064820152608490fd5b346101e35760203660031901126101e357600435600052600160205260c0604060002080549060018101549060028101546003820154906005600484015493015493604051958652602086015260408501526060840152608083015260a0820152f35b346101e35760203660031901126101e35760043560005260026020526101006040600020805490600181015490600281015460038201546004830154906005840154926007600686015495015495604051978852602088015260408701526060860152608085015260a084015260c083015260e0820152f35b346101e35760203660031901126101e3576004356000526008602052604060002081815491828252602082019060005260206000209260005b8181106114fd575050611425925003826115e1565b8051906114318261161b565b9161143b8161161b565b6114448261161b565b9061144e8361161b565b946114588461161b565b9360005b81811061148f576107ef87610835886108278c6108198b61080b8c6107fd8d6040519b8c9b60c08d5260c08d0190611516565b8061149c6001928961164d565b516000528160205260056040600020838101546114b9848861164d565b5260028101546114c9848961164d565b5260038101546114d9848a61164d565b5260048101546114e9848d61164d565b5201546114f6828961164d565b520161145c565b8454835260019485019486945060209093019201611410565b906020808351928381520192019060005b8181106115345750505090565b8251845260209384019390920191600101611527565b60409060031901126101e3576004359060243590565b60609060031901126101e357600435906024359060443590565b80548210156115925760005260206000200190600090565b634e487b7160e01b600052603260045260246000fd5b60c0810190811067ffffffffffffffff82111761058d57604052565b610100810190811067ffffffffffffffff82111761058d57604052565b90601f8019910116810190811067ffffffffffffffff82111761058d57604052565b67ffffffffffffffff811161058d5760051b60200190565b9061162582611603565b61163260405191826115e1565b8281528092611643601f1991611603565b0190602036910137565b80518210156115925760209160051b010190565b805490600160401b82101561058d578161056d9160016116839401815561157a565b9055565b9190826000526005602052604060002054926040908151946116a983876115e1565b60208652601f19830136602088013760005b602081106116e5575050600052600560205260002054146000146116df5760019190565b60009190565b86518110156115925780826001921a6020828a010153016116bb565b1561170857565b60405162461bcd60e51b8152602060048201526015602482015274141c9bd91d58dd08191bd95cdb89dd08195e1a5cdd605a1b6044820152606490fd5b8060005260026020526001604060002001541561182157806000526002602052604060002091604051611777816115c4565b835481526001840154936020820194855260028101546040830152600381015493606083019485526004820154936080840194855260058301549360a08101948552600760068501549460c0830195865201549260e082019384528060005260046020526040600020549181600052600d60205260ff6040600020541691600052600f60205260406000205490519951985197519651955194519360019a99989796959493929190565b50600090600090600090600090600090600090600090600090600090600090600090565b60409694919593608091885161185a816115a8565b600081526000602082015260008a82015260006060820152600084820152600060a08201525060005260016020526060886000209489519861189b8a6115a8565b60206005885498898d528c600182015493849101528c60028201549e8f9101528c600382015496879101528c600482015498899101520154978860a08d0152156119395714998a159a61192e575b50508815611923575b50508615611918575b5050841561190d575b50506001929190565b141592503880611904565b1415945038806118fb565b1415965038806118f2565b1415985038806118e9565b50505050505050505091506000916000919056fea2646970667358221220622408611df6cc9437abd9e08b10f9695302b38d98d08a5c165db7e65e2d64aa64736f6c634300081c0033",
  "linkReferences": {},
  "deployedLinkReferences": {},
  "address": "0x1cE4d669A973d05b2AB9b78043295F263049c34a",
  "networkId": "1337"
}