{
  "_format": "hh-sol-artifact-1",
  "contractName": "MedicalProduct",
  "sourceName": "contracts/MedicalProduct.sol",
  "abi": [
    {
      "anonymous": false,
      "inputs": [
        {
          "indexed": true,
          "internalType": "bytes32",
          "name": "productSN",
          "type": "bytes32"
        },
        {
          "indexed": true,
          "internalType": "bytes32",
          "name": "sellerId",
          "type": "bytes32"
        },
        {
          "indexed": false,
          "internalType": "bytes32",
          "name": "time",
          "type": "bytes32"
        }
      ],
      "name": "DeliveryAcknowledged",
      "type": "event"
    },
    {
      "anonymous": false,
      "inputs": [
        {
          "indexed": false,
          "internalType": "bytes32",
          "name": "manufacturerId",
          "type": "bytes32"
        },
        {
          "indexed": false,
          "internalType": "bytes32",
          "name": "manufacturerName",
          "type": "bytes32"
        },
        {
          "indexed": false,
          "internalType": "bytes32",
          "name": "productBrand",
          "type": "bytes32"
        }
      ],
      "name": "ManufacturerRegistered",
      "type": "event"
    },
    {
      "anonymous": false,
      "inputs": [
        {
          "indexed": false,
          "internalType": "bytes32",
          "name": "manufacturerId",
          "type": "bytes32"
        },
        {
          "indexed": false,
          "internalType": "uint256",
          "name": "productId",
          "type": "uint256"
        },
        {
          "indexed": false,
          "internalType": "bytes32",
          "name": "productSN",
          "type": "bytes32"
        },
        {
          "indexed": false,
          "internalType": "bytes32",
          "name": "productName",
          "type": "bytes32"
        }
      ],
      "name": "ProductAdded",
      "type": "event"
    },
    {
      "anonymous": false,
      "inputs": [
        {
          "indexed": true,
          "internalType": "bytes32",
          "name": "productSN",
          "type": "bytes32"
        },
        {
          "indexed": false,
          "internalType": "bytes32",
          "name": "manufacturerId",
          "type": "bytes32"
        },
        {
          "indexed": false,
          "internalType": "uint256",
          "name": "productId",
          "type": "uint256"
        },
        {
          "indexed": false,
          "internalType": "bytes32",
          "name": "productName",
          "type": "bytes32"
        },
        {
          "indexed": false,
          "internalType": "bytes32",
          "name": "productBrand",
          "type": "bytes32"
        },
        {
          "indexed": false,
          "internalType": "uint256",
          "name": "productPrice",
          "type": "uint256"
        },
        {
          "indexed": false,
          "internalType": "bytes32",
          "name": "productStatus",
          "type": "bytes32"
        },
        {
          "indexed": false,
          "internalType": "bytes32",
          "name": "productTime",
          "type": "bytes32"
        },
        {
          "indexed": false,
          "internalType": "bytes32",
          "name": "currentOwner",
          "type": "bytes32"
        }
      ],
      "name": "ProductVerified",
      "type": "event"
    },
    {
      "anonymous": false,
      "inputs": [
        {
          "indexed": true,
          "internalType": "bytes32",
          "name": "manufacturerId",
          "type": "bytes32"
        },
        {
          "indexed": true,
          "internalType": "bytes32",
          "name": "sellerId",
          "type": "bytes32"
        }
      ],
      "name": "SellerAdded",
      "type": "event"
    },
    {
      "inputs": [
        {
          "internalType": "bytes32",
          "name": "",
          "type": "bytes32"
        }
      ],
      "name": "acknowledgedBy",
      "outputs": [
        {
          "internalType": "bytes32",
          "name": "",
          "type": "bytes32"
        }
      ],
      "stateMutability": "view",
      "type": "function"
    },
    {
      "inputs": [
        {
          "internalType": "bytes32",
          "name": "",
          "type": "bytes32"
        }
      ],
      "name": "acknowledgedTime",
      "outputs": [
        {
          "internalType": "bytes32",
          "name": "",
          "type": "bytes32"
        }
      ],
      "stateMutability": "view",
      "type": "function"
    },
    {
      "inputs": [
        {
          "internalType": "bytes32",
          "name": "_manufacturerID",
          "type": "bytes32"
        },
        {
          "internalType": "bytes32",
          "name": "_manufacturerName",
          "type": "bytes32"
        },
        {
          "internalType": "bytes32",
          "name": "_productName",
          "type": "bytes32"
        },
        {
          "internalType": "bytes32",
          "name": "_productSN",
          "type": "bytes32"
        },
        {
          "internalType": "bytes32",
          "name": "_productBrand",
          "type": "bytes32"
        },
        {
          "internalType": "uint256",
          "name": "_productPrice",
          "type": "uint256"
        },
        {
          "internalType": "uint256",
          "name": "_productID",
          "type": "uint256"
        },
        {
          "internalType": "bytes32",
          "name": "_productTime",
          "type": "bytes32"
        }
      ],
      "name": "addProduct",
      "outputs": [],
      "stateMutability": "nonpayable",
      "type": "function"
    },
    {
      "inputs": [
        {
          "internalType": "bytes32",
          "name": "_manufacturerId",
          "type": "bytes32"
        },
        {
          "internalType": "bytes32",
          "name": "_sellerName",
          "type": "bytes32"
        },
        {
          "internalType": "bytes32",
          "name": "_sellerBrand",
          "type": "bytes32"
        },
        {
          "internalType": "bytes32",
          "name": "_sellerID",
          "type": "bytes32"
        },
        {
          "internalType": "uint256",
          "name": "_sellerNum",
          "type": "uint256"
        },
        {
          "internalType": "bytes32",
          "name": "_sellerManager",
          "type": "bytes32"
        },
        {
          "internalType": "bytes32",
          "name": "_sellerAddress",
          "type": "bytes32"
        }
      ],
      "name": "addSeller",
      "outputs": [],
      "stateMutability": "nonpayable",
      "type": "function"
    },
    {
      "inputs": [
        {
          "internalType": "bytes32",
          "name": "_sellerID",
          "type": "bytes32"
        },
        {
          "internalType": "bytes32",
          "name": "_sellerName",
          "type": "bytes32"
        },
        {
          "internalType": "bytes32",
          "name": "_sellerBrand",
          "type": "bytes32"
        },
        {
          "internalType": "uint256",
          "name": "_sellerNum",
          "type": "uint256"
        },
        {
          "internalType": "bytes32",
          "name": "_sellerManager",
          "type": "bytes32"
        },
        {
          "internalType": "bytes32",
          "name": "_sellerAddress",
          "type": "bytes32"
        }
      ],
      "name": "checkSellerConflict",
      "outputs": [
        {
          "internalType": "bool",
          "name": "exists",
          "type": "bool"
        },
        {
          "internalType": "bool",
          "name": "hasConflict",
          "type": "bool"
        },
        {
          "components": [
            {
              "internalType": "bytes32",
              "name": "sellerId",
              "type": "bytes32"
            },
            {
              "internalType": "bytes32",
              "name": "sellerName",
              "type": "bytes32"
            },
            {
              "internalType": "bytes32",
              "name": "sellerBrand",
              "type": "bytes32"
            },
            {
              "internalType": "uint256",
              "name": "sellerNum",
              "type": "uint256"
            },
            {
              "internalType": "bytes32",
              "name": "sellerManager",
              "type": "bytes32"
            },
            {
              "internalType": "bytes32",
              "name": "sellerAddress",
              "type": "bytes32"
            }
          ],
          "internalType": "struct MedicalProduct.seller",
          "name": "existingSeller",
          "type": "tuple"
        }
      ],
      "stateMutability": "view",
      "type": "function"
    },
    {
      "inputs": [
        {
          "internalType": "bytes32",
          "name": "_productSN",
          "type": "bytes32"
        }
      ],
      "name": "checkStatus",
      "outputs": [
        {
          "internalType": "bytes32",
          "name": "",
          "type": "bytes32"
        }
      ],
      "stateMutability": "view",
      "type": "function"
    },
    {
      "inputs": [
        {
          "internalType": "bytes32",
          "name": "_sellerId",
          "type": "bytes32"
        }
      ],
      "name": "getProductsForSeller",
      "outputs": [
        {
          "internalType": "bytes32[]",
          "name": "",
          "type": "bytes32[]"
        }
      ],
      "stateMutability": "view",
      "type": "function"
    },
    {
      "inputs": [
        {
          "internalType": "bytes32",
          "name": "_consumerID",
          "type": "bytes32"
        }
      ],
      "name": "getPurchaseHistory",
      "outputs": [
        {
          "internalType": "bytes32[]",
          "name": "",
          "type": "bytes32[]"
        },
        {
          "internalType": "bytes32[]",
          "name": "",
          "type": "bytes32[]"
        },
        {
          "internalType": "bytes32[]",
          "name": "",
          "type": "bytes32[]"
        },
        {
          "internalType": "bytes32[]",
          "name": "",
          "type": "bytes32[]"
        },
        {
          "internalType": "bytes32[]",
          "name": "",
          "type": "bytes32[]"
        },
        {
          "internalType": "bytes32[]",
          "name": "",
          "type": "bytes32[]"
        }
      ],
      "stateMutability": "view",
      "type": "function"
    },
    {
      "inputs": [
        {
          "internalType": "bytes32",
          "name": "",
          "type": "bytes32"
        }
      ],
      "name": "isAcknowledged",
      "outputs": [
        {
          "internalType": "bool",
          "name": "",
          "type": "bool"
        }
      ],
      "stateMutability": "view",
      "type": "function"
    },
    {
      "inputs": [
        {
          "internalType": "bytes32",
          "name": "",
          "type": "bytes32"
        },
        {
          "internalType": "bytes32",
          "name": "",
          "type": "bytes32"
        }
      ],
      "name": "isSellerAssociated",
      "outputs": [
        {
          "internalType": "bool",
          "name": "",
          "type": "bool"
        }
      ],
      "stateMutability": "view",
      "type": "function"
    },
    {
      "inputs": [
        {
          "internalType": "bytes32",
          "name": "",
          "type": "bytes32"
        }
      ],
      "name": "manufacturedTime",
      "outputs": [
        {
          "internalType": "bytes32",
          "name": "",
          "type": "bytes32"
        }
      ],
      "stateMutability": "view",
      "type": "function"
    },
    {
      "inputs": [
        {
          "internalType": "bytes32",
          "name": "_productSN",
          "type": "bytes32"
        },
        {
          "internalType": "bytes32",
          "name": "_sellerID",
          "type": "bytes32"
        },
        {
          "internalType": "bytes32",
          "name": "_manufacturerID",
          "type": "bytes32"
        },
        {
          "internalType": "bytes32",
          "name": "_productTime",
          "type": "bytes32"
        }
      ],
      "name": "manufacturerSellProduct",
      "outputs": [],
      "stateMutability": "nonpayable",
      "type": "function"
    },
    {
      "inputs": [
        {
          "internalType": "bytes32",
          "name": "",
          "type": "bytes32"
        }
      ],
      "name": "manufacturerToSellerTime",
      "outputs": [
        {
          "internalType": "bytes32",
          "name": "",
          "type": "bytes32"
        }
      ],
      "stateMutability": "view",
      "type": "function"
    },
    {
      "inputs": [
        {
          "internalType": "bytes32",
          "name": "",
          "type": "bytes32"
        }
      ],
      "name": "productItems",
      "outputs": [
        {
          "internalType": "bytes32",
          "name": "manufacturerId",
          "type": "bytes32"
        },
        {
          "internalType": "uint256",
          "name": "productId",
          "type": "uint256"
        },
        {
          "internalType": "bytes32",
          "name": "productSN",
          "type": "bytes32"
        },
        {
          "internalType": "bytes32",
          "name": "productName",
          "type": "bytes32"
        },
        {
          "internalType": "bytes32",
          "name": "productBrand",
          "type": "bytes32"
        },
        {
          "internalType": "uint256",
          "name": "productPrice",
          "type": "uint256"
        },
        {
          "internalType": "bytes32",
          "name": "productStatus",
          "type": "bytes32"
        },
        {
          "internalType": "bytes32",
          "name": "productTime",
          "type": "bytes32"
        }
      ],
      "stateMutability": "view",
      "type": "function"
    },
    {
      "inputs": [
        {
          "internalType": "bytes32",
          "name": "",
          "type": "bytes32"
        }
      ],
      "name": "productsForSale",
      "outputs": [
        {
          "internalType": "bytes32",
          "name": "",
          "type": "bytes32"
        }
      ],
      "stateMutability": "view",
      "type": "function"
    },
    {
      "inputs": [
        {
          "internalType": "bytes32",
          "name": "",
          "type": "bytes32"
        }
      ],
      "name": "productsManufactured",
      "outputs": [
        {
          "internalType": "bytes32",
          "name": "",
          "type": "bytes32"
        }
      ],
      "stateMutability": "view",
      "type": "function"
    },
    {
      "inputs": [
        {
          "internalType": "bytes32",
          "name": "",
          "type": "bytes32"
        }
      ],
      "name": "productsSold",
      "outputs": [
        {
          "internalType": "bytes32",
          "name": "",
          "type": "bytes32"
        }
      ],
      "stateMutability": "view",
      "type": "function"
    },
    {
      "inputs": [
        {
          "internalType": "bytes32",
          "name": "",
          "type": "bytes32"
        },
        {
          "internalType": "uint256",
          "name": "",
          "type": "uint256"
        }
      ],
      "name": "productsWithConsumer",
      "outputs": [
        {
          "internalType": "bytes32",
          "name": "",
          "type": "bytes32"
        }
      ],
      "stateMutability": "view",
      "type": "function"
    },
    {
      "inputs": [
        {
          "internalType": "bytes32",
          "name": "",
          "type": "bytes32"
        },
        {
          "internalType": "uint256",
          "name": "",
          "type": "uint256"
        }
      ],
      "name": "productsWithSeller",
      "outputs": [
        {
          "internalType": "bytes32",
          "name": "",
          "type": "bytes32"
        }
      ],
      "stateMutability": "view",
      "type": "function"
    },
    {
      "inputs": [
        {
          "internalType": "bytes32",
          "name": "_manufacturerId",
          "type": "bytes32"
        }
      ],
      "name": "queryInventory",
      "outputs": [
        {
          "internalType": "uint256[]",
          "name": "",
          "type": "uint256[]"
        },
        {
          "internalType": "bytes32[]",
          "name": "",
          "type": "bytes32[]"
        },
        {
          "internalType": "bytes32[]",
          "name": "",
          "type": "bytes32[]"
        },
        {
          "internalType": "uint256[]",
          "name": "",
          "type": "uint256[]"
        },
        {
          "internalType": "uint256",
          "name": "",
          "type": "uint256"
        }
      ],
      "stateMutability": "view",
      "type": "function"
    },
    {
      "inputs": [
        {
          "internalType": "bytes32",
          "name": "_sellerID",
          "type": "bytes32"
        }
      ],
      "name": "queryProductsList",
      "outputs": [
        {
          "internalType": "bytes32[]",
          "name": "",
          "type": "bytes32[]"
        },
        {
          "internalType": "bytes32[]",
          "name": "",
          "type": "bytes32[]"
        },
        {
          "internalType": "bytes32[]",
          "name": "",
          "type": "bytes32[]"
        },
        {
          "internalType": "bytes32[]",
          "name": "",
          "type": "bytes32[]"
        },
        {
          "internalType": "uint256[]",
          "name": "",
          "type": "uint256[]"
        },
        {
          "internalType": "bytes32[]",
          "name": "",
          "type": "bytes32[]"
        }
      ],
      "stateMutability": "view",
      "type": "function"
    },
    {
      "inputs": [
        {
          "internalType": "bytes32",
          "name": "_manufacturerID",
          "type": "bytes32"
        }
      ],
      "name": "querySellersList",
      "outputs": [
        {
          "internalType": "bytes32[]",
          "name": "",
          "type": "bytes32[]"
        },
        {
          "internalType": "bytes32[]",
          "name": "",
          "type": "bytes32[]"
        },
        {
          "internalType": "bytes32[]",
          "name": "",
          "type": "bytes32[]"
        },
        {
          "internalType": "uint256[]",
          "name": "",
          "type": "uint256[]"
        },
        {
          "internalType": "bytes32[]",
          "name": "",
          "type": "bytes32[]"
        },
        {
          "internalType": "bytes32[]",
          "name": "",
          "type": "bytes32[]"
        }
      ],
      "stateMutability": "view",
      "type": "function"
    },
    {
      "inputs": [
        {
          "internalType": "bytes32",
          "name": "_manufacturerID",
          "type": "bytes32"
        },
        {
          "internalType": "bytes32",
          "name": "_manufacturerName",
          "type": "bytes32"
        },
        {
          "internalType": "bytes32",
          "name": "_productBrand",
          "type": "bytes32"
        }
      ],
      "name": "registerManufacturer",
      "outputs": [],
      "stateMutability": "nonpayable",
      "type": "function"
    },
    {
      "inputs": [
        {
          "internalType": "bytes32",
          "name": "_productSN",
          "type": "bytes32"
        },
        {
          "internalType": "bytes32",
          "name": "_sellerID",
          "type": "bytes32"
        },
        {
          "internalType": "bytes32",
          "name": "_ackTime",
          "type": "bytes32"
        }
      ],
      "name": "sellerAcknowledgeDelivery",
      "outputs": [],
      "stateMutability": "nonpayable",
      "type": "function"
    },
    {
      "inputs": [
        {
          "internalType": "bytes32",
          "name": "_productSN",
          "type": "bytes32"
        },
        {
          "internalType": "bytes32",
          "name": "_consumerID",
          "type": "bytes32"
        },
        {
          "internalType": "bytes32",
          "name": "_productTime",
          "type": "bytes32"
        }
      ],
      "name": "sellerSellProduct",
      "outputs": [],
      "stateMutability": "nonpayable",
      "type": "function"
    },
    {
      "inputs": [
        {
          "internalType": "bytes32",
          "name": "",
          "type": "bytes32"
        }
      ],
      "name": "sellers",
      "outputs": [
        {
          "internalType": "bytes32",
          "name": "sellerId",
          "type": "bytes32"
        },
        {
          "internalType": "bytes32",
          "name": "sellerName",
          "type": "bytes32"
        },
        {
          "internalType": "bytes32",
          "name": "sellerBrand",
          "type": "bytes32"
        },
        {
          "internalType": "uint256",
          "name": "sellerNum",
          "type": "uint256"
        },
        {
          "internalType": "bytes32",
          "name": "sellerManager",
          "type": "bytes32"
        },
        {
          "internalType": "bytes32",
          "name": "sellerAddress",
          "type": "bytes32"
        }
      ],
      "stateMutability": "view",
      "type": "function"
    },
    {
      "inputs": [
        {
          "internalType": "bytes32",
          "name": "",
          "type": "bytes32"
        },
        {
          "internalType": "uint256",
          "name": "",
          "type": "uint256"
        }
      ],
      "name": "sellersWithManufacturer",
      "outputs": [
        {
          "internalType": "bytes32",
          "name": "",
          "type": "bytes32"
        }
      ],
      "stateMutability": "view",
      "type": "function"
    },
    {
      "inputs": [
        {
          "internalType": "bytes32",
          "name": "",
          "type": "bytes32"
        }
      ],
      "name": "sellingTime",
      "outputs": [
        {
          "internalType": "bytes32",
          "name": "",
          "type": "bytes32"
        }
      ],
      "stateMutability": "view",
      "type": "function"
    },
    {
      "inputs": [
        {
          "internalType": "bytes32",
          "name": "_productSN",
          "type": "bytes32"
        },
        {
          "internalType": "bytes32",
          "name": "_consumerID",
          "type": "bytes32"
        }
      ],
      "name": "verifyProduct",
      "outputs": [
        {
          "internalType": "bool",
          "name": "",
          "type": "bool"
        },
        {
          "internalType": "string",
          "name": "",
          "type": "string"
        }
      ],
      "stateMutability": "view",
      "type": "function"
    },
    {
      "inputs": [
        {
          "internalType": "bytes32",
          "name": "_productSN",
          "type": "bytes32"
        }
      ],
      "name": "verifyProductForSeller",
      "outputs": [
        {
          "internalType": "bool",
          "name": "exists",
          "type": "bool"
        },
        {
          "internalType": "bytes32",
          "name": "manufacturerId",
          "type": "bytes32"
        },
        {
          "internalType": "uint256",
          "name": "productId",
          "type": "uint256"
        },
        {
          "internalType": "bytes32",
          "name": "productName",
          "type": "bytes32"
        },
        {
          "internalType": "bytes32",
          "name": "productBrand",
          "type": "bytes32"
        },
        {
          "internalType": "uint256",
          "name": "productPrice",
          "type": "uint256"
        },
        {
          "internalType": "bytes32",
          "name": "productStatus",
          "type": "bytes32"
        },
        {
          "internalType": "bytes32",
          "name": "productTime",
          "type": "bytes32"
        },
        {
          "internalType": "bytes32",
          "name": "currentOwner",
          "type": "bytes32"
        },
        {
          "internalType": "bool",
          "name": "acknowledged",
          "type": "bool"
        },
        {
          "internalType": "bytes32",
          "name": "acknowledgedAt",
          "type": "bytes32"
        }
      ],
      "stateMutability": "view",
      "type": "function"
    }
  ],
  "bytecode": "0x60808060405234601557611a64908161001b8239f35b600080fdfe608080604052600436101561001357600080fd5b60003560e01c908163130aa81f1461149d5750806314c52c671461142457806318607f30146113c15780631b3658c81461123e578063344b5d51146111d1578063381f1614146110175780634b99300114610fe657806352cf016a14610f7957806357fcd4f514610f4d5780636714fee014610ed0578063678c4ac214610e9f57806368a6b9da14610e7357806369f3363a14610d245780637b8d84de14610cf85780638f61158714610a9457806392162bc4146109535780639cd777dd146109225780639ea4695d1461076e5780639fe33dfe14610736578063a090f47c1461070a578063a2200278146106db578063b7d16fb3146106af578063c20805b414610683578063cd4f6a2e14610657578063cfdf44c81461062b578063d277893c146103e9578063e262113f146103a9578063e5d194ab146102aa578063ea947b55146101e85763f27b2f401461016957600080fd5b346101e35760c03660031901126101e35761010060a061019960a435608435606435604435602435600435611926565b90604093929351931515845215156020840152805160408401526020810151606084015260408101516080840152606081015182840152608081015160c0840152015160e0820152f35b600080fd5b346101e3576101f636611626565b91806000526000602052604060002054610265577f84015f7ed02ad8a3075ee08ab14ec9f6df27afbacab46d846fdb0d6bc723629f92606092826000526000602052610252826002604060002086815584600182015501611727565b60405192835260208301526040820152a1005b60405162461bcd60e51b815260206004820152601f60248201527f4d616e75666163747572657220616c72656164792072656769737465726564006044820152606490fd5b346101e3576102b836611626565b90918060005260026020526040600020926006840168417661696c61626c6560b81b81540361036c576314dbdb1960e21b9055806000526007602052610302826040600020611727565b816000526005602052604060002055600052600c6020526040600020556001815491015490600052600060205260046040600020019060005260205260036040600020018054801561035657600019019055005b634e487b7160e01b600052601160045260246000fd5b60405162461bcd60e51b8152602060048201526015602482015274283937b23ab1ba1030b63932b0b23c9039b7b6321760591b6044820152606490fd5b346101e3576103b736611610565b906000526008602052604060002080548210156101e3576020916103da91611640565b90549060031b1c604051908152f35b346101e3576101003660031901126101e35760043560443590606435916084359160c4359160e43560405161041d8161168a565b83815260078760208301878152604084018281526060850187815260808601908b825260a087019260a435845260c088019468417661696c61626c6560b81b865260e08901968a88526000526002602052604060002098518955516001890155516002880155516003870155516004860155516005850155516006840155519101558560005260036020528260406000205585600052600a60205260406000205581600052600060205260406000209384541561061b575b600094600060028201908154905b8181106105ee575b505090918093949596156105de575b50508460005260048101602052604060002091825415610569575b5050600301938454936000198514610356577fc540fbf22c1fb216605338079a638d447385a97f649f9b472c422fe37e0c1264956001608096019055604051938452602084015260408301526060820152a1005b9060039186845584600285015587600185015560048401550190815491600160401b8310156105c8576105bf6105a88488936001600397018155611640565b819391549060031b91821b91600019901b19161790565b90559086610515565b634e487b7160e01b600052604160045260246000fd5b6105e791611727565b86826104fa565b846105f98285611640565b90549060031b1c1461060d576001016104e3565b5060019750839050896104eb565b82855560243560018601556104d5565b346101e35760203660031901126101e357600435600052600e6020526020604060002054604051908152f35b346101e35760203660031901126101e35760043560005260056020526020604060002054604051908152f35b346101e35760203660031901126101e35760043560005260036020526020604060002054604051908152f35b346101e35760203660031901126101e357600435600052600b6020526020604060002054604051908152f35b346101e35760203660031901126101e35760043560005260026020526020600660406000200154604051908152f35b346101e35760203660031901126101e35760043560005260046020526020604060002054604051908152f35b346101e35761074436611610565b906000526009602052604060002090600052602052602060ff604060002054166040519015158152f35b346101e35760203660031901126101e357600435600052600760205260406000206040518082602082945493848152019060005260206000209260005b8181106109095750506107c0925003826116a7565b8051906107cc826116e1565b916107d6816116e1565b926107e0826116e1565b6107e9836116e1565b946107f3846116e1565b9360005b8181106108745761082a87610870886108628c6108548b6108468c6108388d6040519b8c9b60c08d5260c08d01906115dc565b908b820360208d01526115dc565b9089820360408b01526115dc565b9087820360608901526115dc565b9085820360808701526115dc565b9083820360a08501526115dc565b0390f35b8061088160019289611713565b5180600052600460205260406000205461089b8389611713565b528060005260036020526040600020546108b58387611713565b5280600052600a6020526040600020546108cf8388611713565b5280600052600b6020526040600020546108e9838c611713565b52600052600c6020526040600020546109028289611713565b52016107f7565b84548352600194850194869450602090930192016107ab565b346101e35761093036611610565b906000526007602052604060002080548210156101e3576020916103da91611640565b346101e35760203660031901126101e357600435600052600660205260406000206040518082602082945493848152019060005260206000209260005b818110610a7b5750506109a5925003826116a7565b80516109b0816116e1565b906109ba816116e1565b6109c3826116e1565b906109cd836116e1565b946109d7846116e1565b9360005b818110610a0e5761082a87610870886108628c6108548b6108468c6108388d6040519b8c9b60c08d5260c08d01906115dc565b80610a1b60019285611713565b516000526002602052600660406000208054610a37848c611713565b526003810154610a478489611713565b526004810154610a57848a611713565b526005810154610a67848d611713565b520154610a748289611713565b52016109db565b8454835260019485019486945060209093019201610990565b346101e35760803660031901126101e357600435602435604435826000526004602052604060002054610c7857826000526002602052610add60016040600020015415156117e2565b81600052600160205260406000205415610c3b57806000526009602052604060002082600052602052600160ff60406000205416151503610bde5782600052600260205260406000205403610b6857806000526006602052610b43826040600020611727565b816000526004602052604060002055600052600b602052606435604060002055600080f35b60405162461bcd60e51b815260206004820152604260248201527f556e617574686f72697a65642073616c6520617474656d70743a2050726f647560448201527f63742062656c6f6e677320746f20616e6f74686572206d616e7566616374757260648201526132b960f11b608482015260a490fd5b60405162461bcd60e51b815260206004820152602f60248201527f53656c6c6572206973206e6f74206173736f636961746564207769746820746860448201526e34b99036b0b73ab330b1ba3ab932b960891b6064820152608490fd5b60405162461bcd60e51b815260206004820152601560248201527414d95b1b195c88191bd95cc81b9bdd08195e1a5cdd605a1b6044820152606490fd5b60405162461bcd60e51b815260206004820152604c60248201527f446f75626c652073656c6c696e67206973206e6f7420616c6c6f7765642e205060448201527f726f6475637420697320616c726561647920736f6c6420746f20736f6d65206f60648201526b746865722073656c6c65722160a01b608482015260a490fd5b346101e35760203660031901126101e357600435600052600a6020526020604060002054604051908152f35b346101e35760203660031901126101e3576004356000818152602081815260408083206003018054915182815290845282842091949093909284919082019086905b818110610e5a575050610d7b925003836116a7565b610d84836116e1565b610d8d846116e1565b90610d97856116e1565b9260005b868110610dfb57610dc78688610df188610de389610dd58a60405198899860a08a5260a08a01906115dc565b9088820360208a01526115dc565b9086820360408801526115dc565b9084820360608601526115dc565b9060808301520390f35b6001908260005260006020526004604060002001610e198289611713565b51600052602052600360406000206002810154610e368488611713565b526004810154610e468489611713565b520154610e538288611713565b5201610d9b565b8454835260019485019487945060209093019201610d66565b346101e35760203660031901126101e357600435600052600c6020526020604060002054604051908152f35b346101e35760203660031901126101e357600435600052600d602052602060ff604060002054166040519015158152f35b346101e35760203660031901126101e3576004356000526006602052604060002060405190816020825491828152019160005260206000209060005b818110610f375761087085610f23818703826116a7565b6040519182916020835260208301906115dc565b8254845260209093019260019283019201610f0c565b346101e35760203660031901126101e357600435600052600f6020526020604060002054604051908152f35b346101e35760203660031901126101e357610160610f98600435611826565b986040989198979297969396959495519a15158b5260208b015260408a01526060890152608088015260a087015260c086015260e08501526101008401521515610120830152610140820152f35b346101e357610ff436611610565b906000526006602052604060002080548210156101e3576020916103da91611640565b346101e35761102536611626565b82600093929352600260205261104460016040600020015415156117e2565b816000526004602052826040600020540361118c57816000526003602052604060002054600052600960205260406000208360005260205260ff60406000205416156111375781600052600d60205260ff604060002054166110fb576000828152600d60209081526040808320805460ff19166001179055600e8252808320869055600f82529182902083905590519182527f4f84e2b11d6c5b86fa37af4939fc86b126cc68487db6fd73a391b2d4e5a5cac291a3005b60405162461bcd60e51b8152602060048201526014602482015273105b1c9958591e481858dadb9bdddb195919d95960621b6044820152606490fd5b60405162461bcd60e51b815260206004820152602760248201527f53656c6c6572206e6f74206173736f6369617465642077697468206d616e756660448201526630b1ba3ab932b960c91b6064820152608490fd5b60405162461bcd60e51b815260206004820152601f60248201527f50726f64756374206e6f7420736f6c6420746f20746869732073656c6c6572006044820152606490fd5b346101e3576111e86111e236611610565b9061174d565b6040519115158252604060208301528181519182604083015260005b8381106112265750508160006060809484010152601f80199101168101030190f35b60208282018101516060878401015285935001611204565b346101e35760e03660031901126101e3576004356064359080600052600960205260406000208260005260205260ff6040600020541661136357816000526001602052604060002054156112f0575b8060005260086020526112a4826040600020611727565b8060005260096020526040600020826000526020526040600020600160ff198254161790557f96289a1ff1b3040d81dccacf01cf617b4736dbc7189a052a295e780aa792ffe0600080a3005b6040516112fc8161166e565b8281526005602082016024358152604083016044358152606084016084358152608085019160a435835260a086019360c43585528860005260016020526040600020965187555160018701555160028601555160038501555160048401555191015561128d565b60405162461bcd60e51b815260206004820152603060248201527f53656c6c657220616c7265616479206173736f6369617465642077697468207460448201526f3434b99036b0b73ab330b1ba3ab932b960811b6064820152608490fd5b346101e35760203660031901126101e357600435600052600160205260c0604060002080549060018101549060028101546003820154906005600484015493015493604051958652602086015260408501526060840152608083015260a0820152f35b346101e35760203660031901126101e35760043560005260026020526101006040600020805490600181015490600281015460038201546004830154906005840154926007600686015495015495604051978852602088015260408701526060860152608085015260a084015260c083015260e0820152f35b346101e35760203660031901126101e3576004356000526008602052604060002081815491828252602082019060005260206000209260005b8181106115c35750506114eb925003826116a7565b8051906114f7826116e1565b91611501816116e1565b61150a826116e1565b90611514836116e1565b9461151e846116e1565b9360005b8181106115555761082a87610870886108628c6108548b6108468c6108388d6040519b8c9b60c08d5260c08d01906115dc565b8061156260019289611713565b5160005281602052600560406000208381015461157f8488611713565b52600281015461158f8489611713565b52600381015461159f848a611713565b5260048101546115af848d611713565b5201546115bc8289611713565b5201611522565b84548352600194850194869450602090930192016114d6565b906020808351928381520192019060005b8181106115fa5750505090565b82518452602093840193909201916001016115ed565b60409060031901126101e3576004359060243590565b60609060031901126101e357600435906024359060443590565b80548210156116585760005260206000200190600090565b634e487b7160e01b600052603260045260246000fd5b60c0810190811067ffffffffffffffff8211176105c857604052565b610100810190811067ffffffffffffffff8211176105c857604052565b90601f8019910116810190811067ffffffffffffffff8211176105c857604052565b67ffffffffffffffff81116105c85760051b60200190565b906116eb826116c9565b6116f860405191826116a7565b8281528092611709601f19916116c9565b0190602036910137565b80518210156116585760209160051b010190565b805490600160401b8210156105c857816105a891600161174994018155611640565b9055565b91909160005260056020526040600020549182156117bc5760409283519361177581866116a7565b60208552601f190136602086013760005b602081106117a057500361179a5760019190565b60009190565b84518110156116585780826001921a6020828801015301611786565b5090506000906040516117d06040826116a7565b60028152614e4160f01b602082015290565b156117e957565b60405162461bcd60e51b8152602060048201526015602482015274141c9bd91d58dd08191bd95cdb89dd08195e1a5cdd605a1b6044820152606490fd5b80600052600260205260016040600020015415611902578060005260026020526040600020916040516118588161168a565b835481526001840154936020820194855260028101546040830152600381015493606083019485526004820154936080840194855260058301549360a08101948552600760068501549460c0830195865201549260e082019384528060005260046020526040600020549181600052600d60205260ff6040600020541691600052600f60205260406000205490519951985197519651955194519360019a99989796959493929190565b50600090600090600090600090600090600090600090600090600090600090600090565b60409694919593608091885161193b8161166e565b600081526000602082015260008a82015260006060820152600084820152600060a08201525060005260016020526060886000209489519861197c8a61166e565b60206005885498898d528c600182015493849101528c60028201549e8f9101528c600382015496879101528c600482015498899101520154978860a08d015215611a1a5714998a159a611a0f575b50508815611a04575b505086156119f9575b505084156119ee575b50506001929190565b1415925038806119e5565b1415945038806119dc565b1415965038806119d3565b1415985038806119ca565b50505050505050505091506000916000919056fea26469706673582212202d6cff4d458184fc1f6ac1d8a281e5be992611050b26f435fe590579eed021eb64736f6c634300081c0033",
  "linkReferences": {},
  "deployedLinkReferences": {},
  "address": "0xC4FCFe1eFFdAf777bF8D8a54084DBb6451EeB1CB",
  "networkId": "11155111"
}