{
  "_format": "hh-sol-artifact-1",
  "contractName": "MedicalProduct",
  "sourceName": "contracts/MedicalProduct.sol",
  "abi": [
    {
      "anonymous": false,
      "inputs": [
        {
          "indexed": false,
          "internalType": "bytes32",
          "name": "manufacturerId",
          "type": "bytes32"
        },
        {
          "indexed": false,
          "internalType": "bytes32",
          "name": "manufacturerName",
          "type": "bytes32"
        },
        {
          "indexed": false,
          "internalType": "bytes32",
          "name": "productBrand",
          "type": "bytes32"
        }
      ],
      "name": "ManufacturerRegistered",
      "type": "event"
    },
    {
      "anonymous": false,
      "inputs": [
        {
          "indexed": false,
          "internalType": "bytes32",
          "name": "manufacturerId",
          "type": "bytes32"
        },
        {
          "indexed": false,
          "internalType": "uint256",
          "name": "productId",
          "type": "uint256"
        },
        {
          "indexed": false,
          "internalType": "bytes32",
          "name": "productSN",
          "type": "bytes32"
        },
        {
          "indexed": false,
          "internalType": "bytes32",
          "name": "productName",
          "type": "bytes32"
        }
      ],
      "name": "ProductAdded",
      "type": "event"
    },
    {
      "inputs": [
        {
          "internalType": "bytes32",
          "name": "_manufacturerID",
          "type": "bytes32"
        },
        {
          "internalType": "bytes32",
          "name": "_manufacturerName",
          "type": "bytes32"
        },
        {
          "internalType": "bytes32",
          "name": "_productName",
          "type": "bytes32"
        },
        {
          "internalType": "bytes32",
          "name": "_productSN",
          "type": "bytes32"
        },
        {
          "internalType": "bytes32",
          "name": "_productBrand",
          "type": "bytes32"
        },
        {
          "internalType": "uint256",
          "name": "_productPrice",
          "type": "uint256"
        },
        {
          "internalType": "uint256",
          "name": "_productID",
          "type": "uint256"
        },
        {
          "internalType": "bytes32",
          "name": "_productTime",
          "type": "bytes32"
        }
      ],
      "name": "addProduct",
      "outputs": [],
      "stateMutability": "nonpayable",
      "type": "function"
    },
    {
      "inputs": [
        {
          "internalType": "bytes32",
          "name": "_manufacturerId",
          "type": "bytes32"
        },
        {
          "internalType": "bytes32",
          "name": "_sellerName",
          "type": "bytes32"
        },
        {
          "internalType": "bytes32",
          "name": "_sellerBrand",
          "type": "bytes32"
        },
        {
          "internalType": "bytes32",
          "name": "_sellerID",
          "type": "bytes32"
        },
        {
          "internalType": "uint256",
          "name": "_sellerNum",
          "type": "uint256"
        },
        {
          "internalType": "bytes32",
          "name": "_sellerManager",
          "type": "bytes32"
        },
        {
          "internalType": "bytes32",
          "name": "_sellerAddress",
          "type": "bytes32"
        }
      ],
      "name": "addSeller",
      "outputs": [],
      "stateMutability": "nonpayable",
      "type": "function"
    },
    {
      "inputs": [
        {
          "internalType": "bytes32",
          "name": "_productSN",
          "type": "bytes32"
        }
      ],
      "name": "checkStatus",
      "outputs": [
        {
          "internalType": "bytes32",
          "name": "",
          "type": "bytes32"
        }
      ],
      "stateMutability": "view",
      "type": "function"
    },
    {
      "inputs": [
        {
          "internalType": "bytes32",
          "name": "_consumerID",
          "type": "bytes32"
        }
      ],
      "name": "getPurchaseHistory",
      "outputs": [
        {
          "internalType": "bytes32[]",
          "name": "",
          "type": "bytes32[]"
        },
        {
          "internalType": "bytes32[]",
          "name": "",
          "type": "bytes32[]"
        },
        {
          "internalType": "bytes32[]",
          "name": "",
          "type": "bytes32[]"
        },
        {
          "internalType": "bytes32[]",
          "name": "",
          "type": "bytes32[]"
        },
        {
          "internalType": "bytes32[]",
          "name": "",
          "type": "bytes32[]"
        },
        {
          "internalType": "bytes32[]",
          "name": "",
          "type": "bytes32[]"
        }
      ],
      "stateMutability": "view",
      "type": "function"
    },
    {
      "inputs": [
        {
          "internalType": "bytes32",
          "name": "",
          "type": "bytes32"
        }
      ],
      "name": "manufacturedTime",
      "outputs": [
        {
          "internalType": "bytes32",
          "name": "",
          "type": "bytes32"
        }
      ],
      "stateMutability": "view",
      "type": "function"
    },
    {
      "inputs": [
        {
          "internalType": "bytes32",
          "name": "_productSN",
          "type": "bytes32"
        },
        {
          "internalType": "bytes32",
          "name": "_sellerID",
          "type": "bytes32"
        },
        {
          "internalType": "bytes32",
          "name": "_productTime",
          "type": "bytes32"
        }
      ],
      "name": "manufacturerSellProduct",
      "outputs": [],
      "stateMutability": "nonpayable",
      "type": "function"
    },
    {
      "inputs": [
        {
          "internalType": "bytes32",
          "name": "",
          "type": "bytes32"
        }
      ],
      "name": "manufacturerToSellerTime",
      "outputs": [
        {
          "internalType": "bytes32",
          "name": "",
          "type": "bytes32"
        }
      ],
      "stateMutability": "view",
      "type": "function"
    },
    {
      "inputs": [
        {
          "internalType": "bytes32",
          "name": "",
          "type": "bytes32"
        }
      ],
      "name": "productItems",
      "outputs": [
        {
          "internalType": "bytes32",
          "name": "manufacturerId",
          "type": "bytes32"
        },
        {
          "internalType": "uint256",
          "name": "productId",
          "type": "uint256"
        },
        {
          "internalType": "bytes32",
          "name": "productSN",
          "type": "bytes32"
        },
        {
          "internalType": "bytes32",
          "name": "productName",
          "type": "bytes32"
        },
        {
          "internalType": "bytes32",
          "name": "productBrand",
          "type": "bytes32"
        },
        {
          "internalType": "uint256",
          "name": "productPrice",
          "type": "uint256"
        },
        {
          "internalType": "bytes32",
          "name": "productStatus",
          "type": "bytes32"
        },
        {
          "internalType": "bytes32",
          "name": "productTime",
          "type": "bytes32"
        }
      ],
      "stateMutability": "view",
      "type": "function"
    },
    {
      "inputs": [
        {
          "internalType": "bytes32",
          "name": "",
          "type": "bytes32"
        }
      ],
      "name": "productsForSale",
      "outputs": [
        {
          "internalType": "bytes32",
          "name": "",
          "type": "bytes32"
        }
      ],
      "stateMutability": "view",
      "type": "function"
    },
    {
      "inputs": [
        {
          "internalType": "bytes32",
          "name": "",
          "type": "bytes32"
        }
      ],
      "name": "productsManufactured",
      "outputs": [
        {
          "internalType": "bytes32",
          "name": "",
          "type": "bytes32"
        }
      ],
      "stateMutability": "view",
      "type": "function"
    },
    {
      "inputs": [
        {
          "internalType": "bytes32",
          "name": "",
          "type": "bytes32"
        }
      ],
      "name": "productsSold",
      "outputs": [
        {
          "internalType": "bytes32",
          "name": "",
          "type": "bytes32"
        }
      ],
      "stateMutability": "view",
      "type": "function"
    },
    {
      "inputs": [
        {
          "internalType": "bytes32",
          "name": "",
          "type": "bytes32"
        },
        {
          "internalType": "uint256",
          "name": "",
          "type": "uint256"
        }
      ],
      "name": "productsWithConsumer",
      "outputs": [
        {
          "internalType": "bytes32",
          "name": "",
          "type": "bytes32"
        }
      ],
      "stateMutability": "view",
      "type": "function"
    },
    {
      "inputs": [
        {
          "internalType": "bytes32",
          "name": "",
          "type": "bytes32"
        },
        {
          "internalType": "uint256",
          "name": "",
          "type": "uint256"
        }
      ],
      "name": "productsWithSeller",
      "outputs": [
        {
          "internalType": "bytes32",
          "name": "",
          "type": "bytes32"
        }
      ],
      "stateMutability": "view",
      "type": "function"
    },
    {
      "inputs": [
        {
          "internalType": "bytes32",
          "name": "_manufacturerId",
          "type": "bytes32"
        }
      ],
      "name": "queryInventory",
      "outputs": [
        {
          "internalType": "uint256[]",
          "name": "",
          "type": "uint256[]"
        },
        {
          "internalType": "bytes32[]",
          "name": "",
          "type": "bytes32[]"
        },
        {
          "internalType": "bytes32[]",
          "name": "",
          "type": "bytes32[]"
        },
        {
          "internalType": "uint256[]",
          "name": "",
          "type": "uint256[]"
        },
        {
          "internalType": "uint256",
          "name": "",
          "type": "uint256"
        }
      ],
      "stateMutability": "view",
      "type": "function"
    },
    {
      "inputs": [
        {
          "internalType": "bytes32",
          "name": "_sellerID",
          "type": "bytes32"
        }
      ],
      "name": "queryProductsList",
      "outputs": [
        {
          "internalType": "bytes32[]",
          "name": "",
          "type": "bytes32[]"
        },
        {
          "internalType": "bytes32[]",
          "name": "",
          "type": "bytes32[]"
        },
        {
          "internalType": "bytes32[]",
          "name": "",
          "type": "bytes32[]"
        },
        {
          "internalType": "bytes32[]",
          "name": "",
          "type": "bytes32[]"
        },
        {
          "internalType": "uint256[]",
          "name": "",
          "type": "uint256[]"
        },
        {
          "internalType": "bytes32[]",
          "name": "",
          "type": "bytes32[]"
        }
      ],
      "stateMutability": "view",
      "type": "function"
    },
    {
      "inputs": [
        {
          "internalType": "bytes32",
          "name": "_manufacturerID",
          "type": "bytes32"
        }
      ],
      "name": "querySellersList",
      "outputs": [
        {
          "internalType": "bytes32[]",
          "name": "",
          "type": "bytes32[]"
        },
        {
          "internalType": "bytes32[]",
          "name": "",
          "type": "bytes32[]"
        },
        {
          "internalType": "bytes32[]",
          "name": "",
          "type": "bytes32[]"
        },
        {
          "internalType": "uint256[]",
          "name": "",
          "type": "uint256[]"
        },
        {
          "internalType": "bytes32[]",
          "name": "",
          "type": "bytes32[]"
        },
        {
          "internalType": "bytes32[]",
          "name": "",
          "type": "bytes32[]"
        }
      ],
      "stateMutability": "view",
      "type": "function"
    },
    {
      "inputs": [
        {
          "internalType": "bytes32",
          "name": "_manufacturerID",
          "type": "bytes32"
        },
        {
          "internalType": "bytes32",
          "name": "_manufacturerName",
          "type": "bytes32"
        },
        {
          "internalType": "bytes32",
          "name": "_productBrand",
          "type": "bytes32"
        }
      ],
      "name": "registerManufacturer",
      "outputs": [],
      "stateMutability": "nonpayable",
      "type": "function"
    },
    {
      "inputs": [
        {
          "internalType": "bytes32",
          "name": "_productSN",
          "type": "bytes32"
        },
        {
          "internalType": "bytes32",
          "name": "_consumerID",
          "type": "bytes32"
        },
        {
          "internalType": "bytes32",
          "name": "_productTime",
          "type": "bytes32"
        }
      ],
      "name": "sellerSellProduct",
      "outputs": [],
      "stateMutability": "nonpayable",
      "type": "function"
    },
    {
      "inputs": [
        {
          "internalType": "bytes32",
          "name": "",
          "type": "bytes32"
        }
      ],
      "name": "sellers",
      "outputs": [
        {
          "internalType": "bytes32",
          "name": "sellerId",
          "type": "bytes32"
        },
        {
          "internalType": "bytes32",
          "name": "sellerName",
          "type": "bytes32"
        },
        {
          "internalType": "bytes32",
          "name": "sellerBrand",
          "type": "bytes32"
        },
        {
          "internalType": "uint256",
          "name": "sellerNum",
          "type": "uint256"
        },
        {
          "internalType": "bytes32",
          "name": "sellerManager",
          "type": "bytes32"
        },
        {
          "internalType": "bytes32",
          "name": "sellerAddress",
          "type": "bytes32"
        }
      ],
      "stateMutability": "view",
      "type": "function"
    },
    {
      "inputs": [
        {
          "internalType": "bytes32",
          "name": "",
          "type": "bytes32"
        },
        {
          "internalType": "uint256",
          "name": "",
          "type": "uint256"
        }
      ],
      "name": "sellersWithManufacturer",
      "outputs": [
        {
          "internalType": "bytes32",
          "name": "",
          "type": "bytes32"
        }
      ],
      "stateMutability": "view",
      "type": "function"
    },
    {
      "inputs": [
        {
          "internalType": "bytes32",
          "name": "",
          "type": "bytes32"
        }
      ],
      "name": "sellingTime",
      "outputs": [
        {
          "internalType": "bytes32",
          "name": "",
          "type": "bytes32"
        }
      ],
      "stateMutability": "view",
      "type": "function"
    },
    {
      "inputs": [
        {
          "internalType": "bytes32",
          "name": "_productSN",
          "type": "bytes32"
        },
        {
          "internalType": "bytes32",
          "name": "_consumerID",
          "type": "bytes32"
        }
      ],
      "name": "verifyProduct",
      "outputs": [
        {
          "internalType": "bool",
          "name": "",
          "type": "bool"
        },
        {
          "internalType": "string",
          "name": "",
          "type": "string"
        }
      ],
      "stateMutability": "view",
      "type": "function"
    }
  ],
  "bytecode": "0x6080604052348015600f57600080fd5b506124448061001f6000396000f3fe608060405234801561001057600080fd5b50600436106101425760003560e01c80639cd777dd116100b8578063c20805b41161007c578063c20805b41461043f578063cd4f6a2e1461046f578063d277893c1461049f578063e262113f146104bb578063e5d194ab146104eb578063ea947b551461050757610142565b80639cd777dd1461034a5780639ea4695d1461037a578063a090f47c146103af578063a2200278146103df578063b7d16fb31461040f57610142565b80634b9930011161010a5780634b993001146102355780635e9794531461026557806368a6b9da1461028157806369f3363a146102b15780637b8d84de146102e557806392162bc41461031557610142565b8063130aa81f1461014757806314c52c671461017c57806318607f30146101b35780631b3658c8146101e8578063344b5d5114610204575b600080fd5b610161600480360381019061015c9190611a1b565b610523565b60405161017396959493929190611bce565b60405180910390f35b61019660048036038101906101919190611a1b565b61083a565b6040516101aa989796959493929190611c77565b60405180910390f35b6101cd60048036038101906101c89190611a1b565b610882565b6040516101df96959493929190611cf5565b60405180910390f35b61020260048036038101906101fd9190611d82565b6108be565b005b61021e60048036038101906102199190611e24565b610980565b60405161022c929190611f0f565b60405180910390f35b61024f600480360381019061024a9190611f3f565b6109db565b60405161025c9190611f7f565b60405180910390f35b61027f600480360381019061027a9190611f9a565b610a0c565b005b61029b60048036038101906102969190611a1b565b610a7b565b6040516102a89190611f7f565b60405180910390f35b6102cb60048036038101906102c69190611a1b565b610a93565b6040516102dc959493929190611fed565b60405180910390f35b6102ff60048036038101906102fa9190611a1b565b610ced565b60405161030c9190611f7f565b60405180910390f35b61032f600480360381019061032a9190611a1b565b610d05565b6040516103419695949392919061205c565b60405180910390f35b610364600480360381019061035f9190611f3f565b611022565b6040516103719190611f7f565b60405180910390f35b610394600480360381019061038f9190611a1b565b611053565b6040516103a6969594939291906120e7565b60405180910390f35b6103c960048036038101906103c49190611a1b565b6113a3565b6040516103d69190611f7f565b60405180910390f35b6103f960048036038101906103f49190611a1b565b6113bb565b6040516104069190611f7f565b60405180910390f35b61042960048036038101906104249190611a1b565b6113e6565b6040516104369190611f7f565b60405180910390f35b61045960048036038101906104549190611a1b565b6113fe565b6040516104669190611f7f565b60405180910390f35b61048960048036038101906104849190611a1b565b611416565b6040516104969190611f7f565b60405180910390f35b6104b960048036038101906104b49190612172565b61142e565b005b6104d560048036038101906104d09190611f3f565b6116b0565b6040516104e29190611f7f565b60405180910390f35b61050560048036038101906105009190611f9a565b6116e1565b005b610521600480360381019061051c9190611f9a565b611822565b005b60608060608060608060006008600089815260200190815260200160002080548060200260200160405190810160405280929190818152602001828054801561058b57602002820191906000526020600020905b815481526020019060010190808311610577575b5050505050905060008151905060008167ffffffffffffffff8111156105b4576105b3612228565b5b6040519080825280602002602001820160405280156105e25781602001602082028036833780820191505090505b50905060008267ffffffffffffffff81111561060157610600612228565b5b60405190808252806020026020018201604052801561062f5781602001602082028036833780820191505090505b50905060008367ffffffffffffffff81111561064e5761064d612228565b5b60405190808252806020026020018201604052801561067c5781602001602082028036833780820191505090505b50905060008467ffffffffffffffff81111561069b5761069a612228565b5b6040519080825280602002602001820160405280156106c95781602001602082028036833780820191505090505b50905060008567ffffffffffffffff8111156106e8576106e7612228565b5b6040519080825280602002602001820160405280156107165781602001602082028036833780820191505090505b50905060005b86811015610817576000600160008a848151811061073d5761073c612257565b5b602002602001015181526020019081526020016000209050806001015487838151811061076d5761076c612257565b5b602002602001018181525050806002015486838151811061079157610790612257565b5b60200260200101818152505080600301548583815181106107b5576107b4612257565b5b60200260200101818152505080600401548483815181106107d9576107d8612257565b5b60200260200101818152505080600501548383815181106107fd576107fc612257565b5b60200260200101818152505050808060010191505061071c565b508685858585859c509c509c509c509c509c505050505050505091939550919395565b60026020528060005260406000206000915090508060000154908060010154908060020154908060030154908060040154908060050154908060060154908060070154905088565b60016020528060005260406000206000915090508060000154908060010154908060020154908060030154908060040154908060050154905086565b6040518060c001604052808581526020018781526020018681526020018481526020018381526020018281525060016000868152602001908152602001600020600082015181600001556020820151816001015560408201518160020155606082015181600301556080820151816004015560a082015181600501559050506008600088815260200190815260200160002084908060018154018082558091505060019003906000526020600020016000909190919091505550505050505050565b6000606060006109a26005600087815260200190815260200160002054611910565b9050836005600087815260200190815260200160002054036109cb5760018192509250506109d4565b60008192509250505b9250929050565b600660205281600052604060002081815481106109f757600080fd5b90600052602060002001600091509150505481565b6006600083815260200190815260200160002083908060018154018082558091505060019003906000526020600020016000909190919091505581600460008581526020019081526020016000208190555080600a600085815260200190815260200160002081905550505050565b600b6020528060005260406000206000915090505481565b6060806060806000806000808881526020019081526020016000206003018054905090506000806000898152602001908152602001600020600301805480602002602001604051908101604052809291908181526020018280548015610b1857602002820191906000526020600020905b815481526020019060010190808311610b04575b5050505050905060008267ffffffffffffffff811115610b3b57610b3a612228565b5b604051908082528060200260200182016040528015610b695781602001602082028036833780820191505090505b50905060008367ffffffffffffffff811115610b8857610b87612228565b5b604051908082528060200260200182016040528015610bb65781602001602082028036833780820191505090505b50905060008467ffffffffffffffff811115610bd557610bd4612228565b5b604051908082528060200260200182016040528015610c035781602001602082028036833780820191505090505b50905060005b85811015610ccf5760008060008e81526020019081526020016000206004016000878481518110610c3d57610c3c612257565b5b6020026020010151815260200190815260200160002090508060020154858381518110610c6d57610c6c612257565b5b6020026020010181815250508060040154848381518110610c9157610c90612257565b5b6020026020010181815250508060030154838381518110610cb557610cb4612257565b5b602002602001018181525050508080600101915050610c09565b50838383838899509950995099509950505050505091939590929450565b60096020528060005260406000206000915090505481565b606080606080606080600060066000898152602001908152602001600020805480602002602001604051908101604052809291908181526020018280548015610d6d57602002820191906000526020600020905b815481526020019060010190808311610d59575b5050505050905060008151905060008167ffffffffffffffff811115610d9657610d95612228565b5b604051908082528060200260200182016040528015610dc45781602001602082028036833780820191505090505b50905060008267ffffffffffffffff811115610de357610de2612228565b5b604051908082528060200260200182016040528015610e115781602001602082028036833780820191505090505b50905060008367ffffffffffffffff811115610e3057610e2f612228565b5b604051908082528060200260200182016040528015610e5e5781602001602082028036833780820191505090505b50905060008467ffffffffffffffff811115610e7d57610e7c612228565b5b604051908082528060200260200182016040528015610eab5781602001602082028036833780820191505090505b50905060008567ffffffffffffffff811115610eca57610ec9612228565b5b604051908082528060200260200182016040528015610ef85781602001602082028036833780820191505090505b50905060005b86811015610fff576000888281518110610f1b57610f1a612257565b5b6020026020010151905060006002600083815260200190815260200160002090508060000154888481518110610f5457610f53612257565b5b6020026020010181815250508060030154878481518110610f7857610f77612257565b5b6020026020010181815250508060040154868481518110610f9c57610f9b612257565b5b6020026020010181815250508060050154858481518110610fc057610fbf612257565b5b6020026020010181815250508060060154848481518110610fe457610fe3612257565b5b60200260200101818152505050508080600101915050610efe565b508487858585859c509c509c509c509c509c505050505050505091939550919395565b6007602052816000526040600020818154811061103e57600080fd5b90600052602060002001600091509150505481565b6060806060806060806000600760008981526020019081526020016000208054806020026020016040519081016040528092919081815260200182805480156110bb57602002820191906000526020600020905b8154815260200190600101908083116110a7575b5050505050905060008151905060008167ffffffffffffffff8111156110e4576110e3612228565b5b6040519080825280602002602001820160405280156111125781602001602082028036833780820191505090505b50905060008267ffffffffffffffff81111561113157611130612228565b5b60405190808252806020026020018201604052801561115f5781602001602082028036833780820191505090505b50905060008367ffffffffffffffff81111561117e5761117d612228565b5b6040519080825280602002602001820160405280156111ac5781602001602082028036833780820191505090505b50905060008467ffffffffffffffff8111156111cb576111ca612228565b5b6040519080825280602002602001820160405280156111f95781602001602082028036833780820191505090505b50905060008567ffffffffffffffff81111561121857611217612228565b5b6040519080825280602002602001820160405280156112465781602001602082028036833780820191505090505b50905060005b8681101561138057600088828151811061126957611268612257565b5b60200260200101519050600460008281526020019081526020016000205487838151811061129a57611299612257565b5b60200260200101818152505060036000828152602001908152602001600020548683815181106112cd576112cc612257565b5b6020026020010181815250506009600082815260200190815260200160002054858381518110611300576112ff612257565b5b602002602001018181525050600a60008281526020019081526020016000205484838151811061133357611332612257565b5b602002602001018181525050600b60008281526020019081526020016000205483838151811061136657611365612257565b5b60200260200101818152505050808060010191505061124c565b508684848785859c509c509c509c509c509c505050505050505091939550919395565b60046020528060005260406000206000915090505481565b6000806002600084815260200190815260200160002090506000816006015490508092505050919050565b600a6020528060005260406000206000915090505481565b60036020528060005260406000206000915090505481565b60056020528060005260406000206000915090505481565b6040518061010001604052808981526020018381526020018681526020018781526020018581526020018481526020017f417661696c61626c65000000000000000000000000000000000000000000000081526020018281525060026000878152602001908152602001600020600082015181600001556020820151816001015560408201518160020155606082015181600301556080820151816004015560a0820151816005015560c0820151816006015560e0820151816007015590505087600360008781526020019081526020016000208190555080600960008781526020019081526020016000208190555060008060008a815260200190815260200160002090506000801b816000015403611555578881600001819055508781600101819055505b6000805b82600201805490508110156115a5578683600201828154811061157f5761157e612257565b5b90600052602060002001540361159857600191506115a5565b8080600101915050611559565b50806115d757816002018690806001815401808255809150506001900390600052602060002001600090919091909150555b60008260040160008681526020019081526020016000209050600081600001540361164c57848160000181905550888160020181905550878160010181905550868160040181905550826003018590806001815401808255809150506001900390600052602060002001600090919091909150555b806003016000815480929190611661906122b5565b91905055507fc540fbf22c1fb216605338079a638d447385a97f649f9b472c422fe37e0c12648b868a8c60405161169b94939291906122fd565b60405180910390a15050505050505050505050565b600860205281600052604060002081815481106116cc57600080fd5b90600052602060002001600091509150505481565b60006002600085815260200190815260200160002090506000816006015490507f417661696c61626c650000000000000000000000000000000000000000000000810361181b577f536f6c640000000000000000000000000000000000000000000000000000000082600601819055506007600085815260200190815260200160002085908060018154018082558091505060019003906000526020600020016000909190919091505583600560008781526020019081526020016000208190555082600b600087815260200190815260200160002081905550600082600001549050600083600101549050600080600084815260200190815260200160002090506000816004016000848152602001908152602001600020905080600301600081548092919061181190612342565b9190505550505050505b5050505050565b6000801b600080858152602001908152602001600020600001541461187c576040517f08c379a0000000000000000000000000000000000000000000000000000000008152600401611873906123b7565b60405180910390fd5b60008060008581526020019081526020016000209050838160000181905550828160010181905550806002018290806001815401808255809150506001900390600052602060002001600090919091909150557f84015f7ed02ad8a3075ee08ab14ec9f6df27afbacab46d846fdb0d6bc723629f848484604051611902939291906123d7565b60405180910390a150505050565b60606000602067ffffffffffffffff81111561192f5761192e612228565b5b6040519080825280601f01601f1916602001820160405280156119615781602001600182028036833780820191505090505b50905060005b60208110156119d65783816020811061198357611982612257565b5b1a60f81b82828151811061199a57611999612257565b5b60200101907effffffffffffffffffffffffffffffffffffffffffffffffffffffffffffff1916908160001a9053508080600101915050611967565b5080915050919050565b600080fd5b6000819050919050565b6119f8816119e5565b8114611a0357600080fd5b50565b600081359050611a15816119ef565b92915050565b600060208284031215611a3157611a306119e0565b5b6000611a3f84828501611a06565b91505092915050565b600081519050919050565b600082825260208201905092915050565b6000819050602082019050919050565b611a7d816119e5565b82525050565b6000611a8f8383611a74565b60208301905092915050565b6000602082019050919050565b6000611ab382611a48565b611abd8185611a53565b9350611ac883611a64565b8060005b83811015611af9578151611ae08882611a83565b9750611aeb83611a9b565b925050600181019050611acc565b5085935050505092915050565b600081519050919050565b600082825260208201905092915050565b6000819050602082019050919050565b6000819050919050565b611b4581611b32565b82525050565b6000611b578383611b3c565b60208301905092915050565b6000602082019050919050565b6000611b7b82611b06565b611b858185611b11565b9350611b9083611b22565b8060005b83811015611bc1578151611ba88882611b4b565b9750611bb383611b63565b925050600181019050611b94565b5085935050505092915050565b600060c0820190508181036000830152611be88189611aa8565b90508181036020830152611bfc8188611aa8565b90508181036040830152611c108187611aa8565b90508181036060830152611c248186611b70565b90508181036080830152611c388185611aa8565b905081810360a0830152611c4c8184611aa8565b9050979650505050505050565b611c62816119e5565b82525050565b611c7181611b32565b82525050565b600061010082019050611c8d600083018b611c59565b611c9a602083018a611c68565b611ca76040830189611c59565b611cb46060830188611c59565b611cc16080830187611c59565b611cce60a0830186611c68565b611cdb60c0830185611c59565b611ce860e0830184611c59565b9998505050505050505050565b600060c082019050611d0a6000830189611c59565b611d176020830188611c59565b611d246040830187611c59565b611d316060830186611c68565b611d3e6080830185611c59565b611d4b60a0830184611c59565b979650505050505050565b611d5f81611b32565b8114611d6a57600080fd5b50565b600081359050611d7c81611d56565b92915050565b600080600080600080600060e0888a031215611da157611da06119e0565b5b6000611daf8a828b01611a06565b9750506020611dc08a828b01611a06565b9650506040611dd18a828b01611a06565b9550506060611de28a828b01611a06565b9450506080611df38a828b01611d6d565b93505060a0611e048a828b01611a06565b92505060c0611e158a828b01611a06565b91505092959891949750929550565b60008060408385031215611e3b57611e3a6119e0565b5b6000611e4985828601611a06565b9250506020611e5a85828601611a06565b9150509250929050565b60008115159050919050565b611e7981611e64565b82525050565b600081519050919050565b600082825260208201905092915050565b60005b83811015611eb9578082015181840152602081019050611e9e565b60008484015250505050565b6000601f19601f8301169050919050565b6000611ee182611e7f565b611eeb8185611e8a565b9350611efb818560208601611e9b565b611f0481611ec5565b840191505092915050565b6000604082019050611f246000830185611e70565b8181036020830152611f368184611ed6565b90509392505050565b60008060408385031215611f5657611f556119e0565b5b6000611f6485828601611a06565b9250506020611f7585828601611d6d565b9150509250929050565b6000602082019050611f946000830184611c59565b92915050565b600080600060608486031215611fb357611fb26119e0565b5b6000611fc186828701611a06565b9350506020611fd286828701611a06565b9250506040611fe386828701611a06565b9150509250925092565b600060a08201905081810360008301526120078188611b70565b9050818103602083015261201b8187611aa8565b9050818103604083015261202f8186611aa8565b905081810360608301526120438185611b70565b90506120526080830184611c68565b9695505050505050565b600060c08201905081810360008301526120768189611aa8565b9050818103602083015261208a8188611aa8565b9050818103604083015261209e8187611aa8565b905081810360608301526120b28186611aa8565b905081810360808301526120c68185611b70565b905081810360a08301526120da8184611aa8565b9050979650505050505050565b600060c08201905081810360008301526121018189611aa8565b905081810360208301526121158188611aa8565b905081810360408301526121298187611aa8565b9050818103606083015261213d8186611aa8565b905081810360808301526121518185611aa8565b905081810360a08301526121658184611aa8565b9050979650505050505050565b600080600080600080600080610100898b031215612193576121926119e0565b5b60006121a18b828c01611a06565b98505060206121b28b828c01611a06565b97505060406121c38b828c01611a06565b96505060606121d48b828c01611a06565b95505060806121e58b828c01611a06565b94505060a06121f68b828c01611d6d565b93505060c06122078b828c01611d6d565b92505060e06122188b828c01611a06565b9150509295985092959890939650565b7f4e487b7100000000000000000000000000000000000000000000000000000000600052604160045260246000fd5b7f4e487b7100000000000000000000000000000000000000000000000000000000600052603260045260246000fd5b7f4e487b7100000000000000000000000000000000000000000000000000000000600052601160045260246000fd5b60006122c082611b32565b91507fffffffffffffffffffffffffffffffffffffffffffffffffffffffffffffffff82036122f2576122f1612286565b5b600182019050919050565b60006080820190506123126000830187611c59565b61231f6020830186611c68565b61232c6040830185611c59565b6123396060830184611c59565b95945050505050565b600061234d82611b32565b9150600082036123605761235f612286565b5b600182039050919050565b7f4d616e75666163747572657220616c7265616479207265676973746572656400600082015250565b60006123a1601f83611e8a565b91506123ac8261236b565b602082019050919050565b600060208201905081810360008301526123d081612394565b9050919050565b60006060820190506123ec6000830186611c59565b6123f96020830185611c59565b6124066040830184611c59565b94935050505056fea2646970667358221220277515e81ce2091c170c95bff54636ad75f821bd4b92f138228e03e9c35f212764736f6c634300081c0033",
  "linkReferences": {},
  "deployedLinkReferences": {},
  "address": "0xa7FfC2503e620961A23e3546d008C5737ef2FB4F",
  "networkId": "1337"
}