{
  "_format": "hh-sol-artifact-1",
  "contractName": "MedicalProduct",
  "sourceName": "contracts/MedicalProduct.sol",
  "abi": [
    {
      "anonymous": false,
      "inputs": [
        {
          "indexed": false,
          "internalType": "bytes32",
          "name": "manufacturerId",
          "type": "bytes32"
        },
        {
          "indexed": false,
          "internalType": "bytes32",
          "name": "manufacturerName",
          "type": "bytes32"
        },
        {
          "indexed": false,
          "internalType": "bytes32",
          "name": "productBrand",
          "type": "bytes32"
        }
      ],
      "name": "ManufacturerRegistered",
      "type": "event"
    },
    {
      "anonymous": false,
      "inputs": [
        {
          "indexed": false,
          "internalType": "bytes32",
          "name": "manufacturerId",
          "type": "bytes32"
        },
        {
          "indexed": false,
          "internalType": "uint256",
          "name": "productId",
          "type": "uint256"
        },
        {
          "indexed": false,
          "internalType": "bytes32",
          "name": "productSN",
          "type": "bytes32"
        },
        {
          "indexed": false,
          "internalType": "bytes32",
          "name": "productName",
          "type": "bytes32"
        }
      ],
      "name": "ProductAdded",
      "type": "event"
    },
    {
      "anonymous": false,
      "inputs": [
        {
          "indexed": true,
          "internalType": "bytes32",
          "name": "manufacturerId",
          "type": "bytes32"
        },
        {
          "indexed": true,
          "internalType": "bytes32",
          "name": "sellerId",
          "type": "bytes32"
        }
      ],
      "name": "SellerAdded",
      "type": "event"
    },
    {
      "inputs": [
        {
          "internalType": "bytes32",
          "name": "_manufacturerID",
          "type": "bytes32"
        },
        {
          "internalType": "bytes32",
          "name": "_manufacturerName",
          "type": "bytes32"
        },
        {
          "internalType": "bytes32",
          "name": "_productName",
          "type": "bytes32"
        },
        {
          "internalType": "bytes32",
          "name": "_productSN",
          "type": "bytes32"
        },
        {
          "internalType": "bytes32",
          "name": "_productBrand",
          "type": "bytes32"
        },
        {
          "internalType": "uint256",
          "name": "_productPrice",
          "type": "uint256"
        },
        {
          "internalType": "uint256",
          "name": "_productID",
          "type": "uint256"
        },
        {
          "internalType": "bytes32",
          "name": "_productTime",
          "type": "bytes32"
        }
      ],
      "name": "addProduct",
      "outputs": [],
      "stateMutability": "nonpayable",
      "type": "function"
    },
    {
      "inputs": [
        {
          "internalType": "bytes32",
          "name": "_manufacturerId",
          "type": "bytes32"
        },
        {
          "internalType": "bytes32",
          "name": "_sellerName",
          "type": "bytes32"
        },
        {
          "internalType": "bytes32",
          "name": "_sellerBrand",
          "type": "bytes32"
        },
        {
          "internalType": "bytes32",
          "name": "_sellerID",
          "type": "bytes32"
        },
        {
          "internalType": "uint256",
          "name": "_sellerNum",
          "type": "uint256"
        },
        {
          "internalType": "bytes32",
          "name": "_sellerManager",
          "type": "bytes32"
        },
        {
          "internalType": "bytes32",
          "name": "_sellerAddress",
          "type": "bytes32"
        }
      ],
      "name": "addSeller",
      "outputs": [],
      "stateMutability": "nonpayable",
      "type": "function"
    },
    {
      "inputs": [
        {
          "internalType": "bytes32",
          "name": "_sellerID",
          "type": "bytes32"
        },
        {
          "internalType": "bytes32",
          "name": "_sellerName",
          "type": "bytes32"
        },
        {
          "internalType": "bytes32",
          "name": "_sellerBrand",
          "type": "bytes32"
        },
        {
          "internalType": "uint256",
          "name": "_sellerNum",
          "type": "uint256"
        },
        {
          "internalType": "bytes32",
          "name": "_sellerManager",
          "type": "bytes32"
        },
        {
          "internalType": "bytes32",
          "name": "_sellerAddress",
          "type": "bytes32"
        }
      ],
      "name": "checkSellerConflict",
      "outputs": [
        {
          "internalType": "bool",
          "name": "exists",
          "type": "bool"
        },
        {
          "internalType": "bool",
          "name": "hasConflict",
          "type": "bool"
        },
        {
          "components": [
            {
              "internalType": "bytes32",
              "name": "sellerId",
              "type": "bytes32"
            },
            {
              "internalType": "bytes32",
              "name": "sellerName",
              "type": "bytes32"
            },
            {
              "internalType": "bytes32",
              "name": "sellerBrand",
              "type": "bytes32"
            },
            {
              "internalType": "uint256",
              "name": "sellerNum",
              "type": "uint256"
            },
            {
              "internalType": "bytes32",
              "name": "sellerManager",
              "type": "bytes32"
            },
            {
              "internalType": "bytes32",
              "name": "sellerAddress",
              "type": "bytes32"
            }
          ],
          "internalType": "struct MedicalProduct.seller",
          "name": "existingSeller",
          "type": "tuple"
        }
      ],
      "stateMutability": "view",
      "type": "function"
    },
    {
      "inputs": [
        {
          "internalType": "bytes32",
          "name": "_productSN",
          "type": "bytes32"
        }
      ],
      "name": "checkStatus",
      "outputs": [
        {
          "internalType": "bytes32",
          "name": "",
          "type": "bytes32"
        }
      ],
      "stateMutability": "view",
      "type": "function"
    },
    {
      "inputs": [
        {
          "internalType": "bytes32",
          "name": "_consumerID",
          "type": "bytes32"
        }
      ],
      "name": "getPurchaseHistory",
      "outputs": [
        {
          "internalType": "bytes32[]",
          "name": "",
          "type": "bytes32[]"
        },
        {
          "internalType": "bytes32[]",
          "name": "",
          "type": "bytes32[]"
        },
        {
          "internalType": "bytes32[]",
          "name": "",
          "type": "bytes32[]"
        },
        {
          "internalType": "bytes32[]",
          "name": "",
          "type": "bytes32[]"
        },
        {
          "internalType": "bytes32[]",
          "name": "",
          "type": "bytes32[]"
        },
        {
          "internalType": "bytes32[]",
          "name": "",
          "type": "bytes32[]"
        }
      ],
      "stateMutability": "view",
      "type": "function"
    },
    {
      "inputs": [
        {
          "internalType": "bytes32",
          "name": "",
          "type": "bytes32"
        },
        {
          "internalType": "bytes32",
          "name": "",
          "type": "bytes32"
        }
      ],
      "name": "isSellerAssociated",
      "outputs": [
        {
          "internalType": "bool",
          "name": "",
          "type": "bool"
        }
      ],
      "stateMutability": "view",
      "type": "function"
    },
    {
      "inputs": [
        {
          "internalType": "bytes32",
          "name": "",
          "type": "bytes32"
        }
      ],
      "name": "manufacturedTime",
      "outputs": [
        {
          "internalType": "bytes32",
          "name": "",
          "type": "bytes32"
        }
      ],
      "stateMutability": "view",
      "type": "function"
    },
    {
      "inputs": [
        {
          "internalType": "bytes32",
          "name": "_productSN",
          "type": "bytes32"
        },
        {
          "internalType": "bytes32",
          "name": "_sellerID",
          "type": "bytes32"
        },
        {
          "internalType": "bytes32",
          "name": "_productTime",
          "type": "bytes32"
        }
      ],
      "name": "manufacturerSellProduct",
      "outputs": [],
      "stateMutability": "nonpayable",
      "type": "function"
    },
    {
      "inputs": [
        {
          "internalType": "bytes32",
          "name": "",
          "type": "bytes32"
        }
      ],
      "name": "manufacturerToSellerTime",
      "outputs": [
        {
          "internalType": "bytes32",
          "name": "",
          "type": "bytes32"
        }
      ],
      "stateMutability": "view",
      "type": "function"
    },
    {
      "inputs": [
        {
          "internalType": "bytes32",
          "name": "",
          "type": "bytes32"
        }
      ],
      "name": "productItems",
      "outputs": [
        {
          "internalType": "bytes32",
          "name": "manufacturerId",
          "type": "bytes32"
        },
        {
          "internalType": "uint256",
          "name": "productId",
          "type": "uint256"
        },
        {
          "internalType": "bytes32",
          "name": "productSN",
          "type": "bytes32"
        },
        {
          "internalType": "bytes32",
          "name": "productName",
          "type": "bytes32"
        },
        {
          "internalType": "bytes32",
          "name": "productBrand",
          "type": "bytes32"
        },
        {
          "internalType": "uint256",
          "name": "productPrice",
          "type": "uint256"
        },
        {
          "internalType": "bytes32",
          "name": "productStatus",
          "type": "bytes32"
        },
        {
          "internalType": "bytes32",
          "name": "productTime",
          "type": "bytes32"
        }
      ],
      "stateMutability": "view",
      "type": "function"
    },
    {
      "inputs": [
        {
          "internalType": "bytes32",
          "name": "",
          "type": "bytes32"
        }
      ],
      "name": "productsForSale",
      "outputs": [
        {
          "internalType": "bytes32",
          "name": "",
          "type": "bytes32"
        }
      ],
      "stateMutability": "view",
      "type": "function"
    },
    {
      "inputs": [
        {
          "internalType": "bytes32",
          "name": "",
          "type": "bytes32"
        }
      ],
      "name": "productsManufactured",
      "outputs": [
        {
          "internalType": "bytes32",
          "name": "",
          "type": "bytes32"
        }
      ],
      "stateMutability": "view",
      "type": "function"
    },
    {
      "inputs": [
        {
          "internalType": "bytes32",
          "name": "",
          "type": "bytes32"
        }
      ],
      "name": "productsSold",
      "outputs": [
        {
          "internalType": "bytes32",
          "name": "",
          "type": "bytes32"
        }
      ],
      "stateMutability": "view",
      "type": "function"
    },
    {
      "inputs": [
        {
          "internalType": "bytes32",
          "name": "",
          "type": "bytes32"
        },
        {
          "internalType": "uint256",
          "name": "",
          "type": "uint256"
        }
      ],
      "name": "productsWithConsumer",
      "outputs": [
        {
          "internalType": "bytes32",
          "name": "",
          "type": "bytes32"
        }
      ],
      "stateMutability": "view",
      "type": "function"
    },
    {
      "inputs": [
        {
          "internalType": "bytes32",
          "name": "",
          "type": "bytes32"
        },
        {
          "internalType": "uint256",
          "name": "",
          "type": "uint256"
        }
      ],
      "name": "productsWithSeller",
      "outputs": [
        {
          "internalType": "bytes32",
          "name": "",
          "type": "bytes32"
        }
      ],
      "stateMutability": "view",
      "type": "function"
    },
    {
      "inputs": [
        {
          "internalType": "bytes32",
          "name": "_manufacturerId",
          "type": "bytes32"
        }
      ],
      "name": "queryInventory",
      "outputs": [
        {
          "internalType": "uint256[]",
          "name": "",
          "type": "uint256[]"
        },
        {
          "internalType": "bytes32[]",
          "name": "",
          "type": "bytes32[]"
        },
        {
          "internalType": "bytes32[]",
          "name": "",
          "type": "bytes32[]"
        },
        {
          "internalType": "uint256[]",
          "name": "",
          "type": "uint256[]"
        },
        {
          "internalType": "uint256",
          "name": "",
          "type": "uint256"
        }
      ],
      "stateMutability": "view",
      "type": "function"
    },
    {
      "inputs": [
        {
          "internalType": "bytes32",
          "name": "_sellerID",
          "type": "bytes32"
        }
      ],
      "name": "queryProductsList",
      "outputs": [
        {
          "internalType": "bytes32[]",
          "name": "",
          "type": "bytes32[]"
        },
        {
          "internalType": "bytes32[]",
          "name": "",
          "type": "bytes32[]"
        },
        {
          "internalType": "bytes32[]",
          "name": "",
          "type": "bytes32[]"
        },
        {
          "internalType": "bytes32[]",
          "name": "",
          "type": "bytes32[]"
        },
        {
          "internalType": "uint256[]",
          "name": "",
          "type": "uint256[]"
        },
        {
          "internalType": "bytes32[]",
          "name": "",
          "type": "bytes32[]"
        }
      ],
      "stateMutability": "view",
      "type": "function"
    },
    {
      "inputs": [
        {
          "internalType": "bytes32",
          "name": "_manufacturerID",
          "type": "bytes32"
        }
      ],
      "name": "querySellersList",
      "outputs": [
        {
          "internalType": "bytes32[]",
          "name": "",
          "type": "bytes32[]"
        },
        {
          "internalType": "bytes32[]",
          "name": "",
          "type": "bytes32[]"
        },
        {
          "internalType": "bytes32[]",
          "name": "",
          "type": "bytes32[]"
        },
        {
          "internalType": "uint256[]",
          "name": "",
          "type": "uint256[]"
        },
        {
          "internalType": "bytes32[]",
          "name": "",
          "type": "bytes32[]"
        },
        {
          "internalType": "bytes32[]",
          "name": "",
          "type": "bytes32[]"
        }
      ],
      "stateMutability": "view",
      "type": "function"
    },
    {
      "inputs": [
        {
          "internalType": "bytes32",
          "name": "_manufacturerID",
          "type": "bytes32"
        },
        {
          "internalType": "bytes32",
          "name": "_manufacturerName",
          "type": "bytes32"
        },
        {
          "internalType": "bytes32",
          "name": "_productBrand",
          "type": "bytes32"
        }
      ],
      "name": "registerManufacturer",
      "outputs": [],
      "stateMutability": "nonpayable",
      "type": "function"
    },
    {
      "inputs": [
        {
          "internalType": "bytes32",
          "name": "_productSN",
          "type": "bytes32"
        },
        {
          "internalType": "bytes32",
          "name": "_consumerID",
          "type": "bytes32"
        },
        {
          "internalType": "bytes32",
          "name": "_productTime",
          "type": "bytes32"
        }
      ],
      "name": "sellerSellProduct",
      "outputs": [],
      "stateMutability": "nonpayable",
      "type": "function"
    },
    {
      "inputs": [
        {
          "internalType": "bytes32",
          "name": "",
          "type": "bytes32"
        }
      ],
      "name": "sellers",
      "outputs": [
        {
          "internalType": "bytes32",
          "name": "sellerId",
          "type": "bytes32"
        },
        {
          "internalType": "bytes32",
          "name": "sellerName",
          "type": "bytes32"
        },
        {
          "internalType": "bytes32",
          "name": "sellerBrand",
          "type": "bytes32"
        },
        {
          "internalType": "uint256",
          "name": "sellerNum",
          "type": "uint256"
        },
        {
          "internalType": "bytes32",
          "name": "sellerManager",
          "type": "bytes32"
        },
        {
          "internalType": "bytes32",
          "name": "sellerAddress",
          "type": "bytes32"
        }
      ],
      "stateMutability": "view",
      "type": "function"
    },
    {
      "inputs": [
        {
          "internalType": "bytes32",
          "name": "",
          "type": "bytes32"
        },
        {
          "internalType": "uint256",
          "name": "",
          "type": "uint256"
        }
      ],
      "name": "sellersWithManufacturer",
      "outputs": [
        {
          "internalType": "bytes32",
          "name": "",
          "type": "bytes32"
        }
      ],
      "stateMutability": "view",
      "type": "function"
    },
    {
      "inputs": [
        {
          "internalType": "bytes32",
          "name": "",
          "type": "bytes32"
        }
      ],
      "name": "sellingTime",
      "outputs": [
        {
          "internalType": "bytes32",
          "name": "",
          "type": "bytes32"
        }
      ],
      "stateMutability": "view",
      "type": "function"
    },
    {
      "inputs": [
        {
          "internalType": "bytes32",
          "name": "_productSN",
          "type": "bytes32"
        },
        {
          "internalType": "bytes32",
          "name": "_consumerID",
          "type": "bytes32"
        }
      ],
      "name": "verifyProduct",
      "outputs": [
        {
          "internalType": "bool",
          "name": "",
          "type": "bool"
        },
        {
          "internalType": "string",
          "name": "",
          "type": "string"
        }
      ],
      "stateMutability": "view",
      "type": "function"
    }
  ],
  "bytecode": "0x6080604052348015600f57600080fd5b50612ad88061001f6000396000f3fe608060405234801561001057600080fd5b50600436106101585760003560e01c80639ea4695d116100c3578063cd4f6a2e1161007c578063cd4f6a2e146104b5578063d277893c146104e5578063e262113f14610501578063e5d194ab14610531578063ea947b551461054d578063f27b2f401461056957610158565b80639ea4695d146103905780639fe33dfe146103c5578063a090f47c146103f5578063a220027814610425578063b7d16fb314610455578063c20805b41461048557610158565b80635e979453116101155780635e9794531461027b57806368a6b9da1461029757806369f3363a146102c75780637b8d84de146102fb57806392162bc41461032b5780639cd777dd1461036057610158565b8063130aa81f1461015d57806314c52c671461019257806318607f30146101c95780631b3658c8146101fe578063344b5d511461021a5780634b9930011461024b575b600080fd5b61017760048036038101906101729190611d9e565b61059b565b60405161018996959493929190611f51565b60405180910390f35b6101ac60048036038101906101a79190611d9e565b6108b2565b6040516101c0989796959493929190611ffa565b60405180910390f35b6101e360048036038101906101de9190611d9e565b6108fa565b6040516101f596959493929190612078565b60405180910390f35b61021860048036038101906102139190612105565b610936565b005b610234600480360381019061022f91906121a7565b610af6565b604051610242929190612292565b60405180910390f35b610265600480360381019061026091906122c2565b610b51565b6040516102729190612302565b60405180910390f35b6102956004803603810190610290919061231d565b610b82565b005b6102b160048036038101906102ac9190611d9e565b610ca2565b6040516102be9190612302565b60405180910390f35b6102e160048036038101906102dc9190611d9e565b610cba565b6040516102f2959493929190612370565b60405180910390f35b61031560048036038101906103109190611d9e565b610f14565b6040516103229190612302565b60405180910390f35b61034560048036038101906103409190611d9e565b610f2c565b604051610357969594939291906123df565b60405180910390f35b61037a600480360381019061037591906122c2565b611249565b6040516103879190612302565b60405180910390f35b6103aa60048036038101906103a59190611d9e565b61127a565b6040516103bc9695949392919061246a565b60405180910390f35b6103df60048036038101906103da91906121a7565b6115ca565b6040516103ec91906124f5565b60405180910390f35b61040f600480360381019061040a9190611d9e565b6115f9565b60405161041c9190612302565b60405180910390f35b61043f600480360381019061043a9190611d9e565b611611565b60405161044c9190612302565b60405180910390f35b61046f600480360381019061046a9190611d9e565b61163c565b60405161047c9190612302565b60405180910390f35b61049f600480360381019061049a9190611d9e565b611654565b6040516104ac9190612302565b60405180910390f35b6104cf60048036038101906104ca9190611d9e565b61166c565b6040516104dc9190612302565b60405180910390f35b6104ff60048036038101906104fa9190612510565b611684565b005b61051b600480360381019061051691906122c2565b611906565b6040516105289190612302565b60405180910390f35b61054b6004803603810190610546919061231d565b611937565b005b6105676004803603810190610562919061231d565b611a78565b005b610583600480360381019061057e91906125c6565b611b66565b604051610592939291906126ce565b60405180910390f35b60608060608060608060006008600089815260200190815260200160002080548060200260200160405190810160405280929190818152602001828054801561060357602002820191906000526020600020905b8154815260200190600101908083116105ef575b5050505050905060008151905060008167ffffffffffffffff81111561062c5761062b612706565b5b60405190808252806020026020018201604052801561065a5781602001602082028036833780820191505090505b50905060008267ffffffffffffffff81111561067957610678612706565b5b6040519080825280602002602001820160405280156106a75781602001602082028036833780820191505090505b50905060008367ffffffffffffffff8111156106c6576106c5612706565b5b6040519080825280602002602001820160405280156106f45781602001602082028036833780820191505090505b50905060008467ffffffffffffffff81111561071357610712612706565b5b6040519080825280602002602001820160405280156107415781602001602082028036833780820191505090505b50905060008567ffffffffffffffff8111156107605761075f612706565b5b60405190808252806020026020018201604052801561078e5781602001602082028036833780820191505090505b50905060005b8681101561088f576000600160008a84815181106107b5576107b4612735565b5b60200260200101518152602001908152602001600020905080600101548783815181106107e5576107e4612735565b5b602002602001018181525050806002015486838151811061080957610808612735565b5b602002602001018181525050806003015485838151811061082d5761082c612735565b5b602002602001018181525050806004015484838151811061085157610850612735565b5b602002602001018181525050806005015483838151811061087557610874612735565b5b602002602001018181525050508080600101915050610794565b508685858585859c509c509c509c509c509c505050505050505091939550919395565b60026020528060005260406000206000915090508060000154908060010154908060020154908060030154908060040154908060050154908060060154908060070154905088565b60016020528060005260406000206000915090508060000154908060010154908060020154908060030154908060040154908060050154905086565b60096000888152602001908152602001600020600085815260200190815260200160002060009054906101000a900460ff16156109a8576040517f08c379a000000000000000000000000000000000000000000000000000000000815260040161099f906127d6565b60405180910390fd5b6000801b600160008681526020019081526020016000206000015403610a48576040518060c001604052808581526020018781526020018681526020018481526020018381526020018281525060016000868152602001908152602001600020600082015181600001556020820151816001015560408201518160020155606082015181600301556080820151816004015560a082015181600501559050505b60086000888152602001908152602001600020849080600181540180825580915050600190039060005260206000200160009091909190915055600160096000898152602001908152602001600020600086815260200190815260200160002060006101000a81548160ff02191690831515021790555083877f96289a1ff1b3040d81dccacf01cf617b4736dbc7189a052a295e780aa792ffe060405160405180910390a350505050505050565b600060606000610b186005600087815260200190815260200160002054611c4e565b905083600560008781526020019081526020016000205403610b41576001819250925050610b4a565b60008192509250505b9250929050565b60066020528160005260406000208181548110610b6d57600080fd5b90600052602060002001600091509150505481565b6000801b600460008581526020019081526020016000205414610bda576040517f08c379a0000000000000000000000000000000000000000000000000000000008152600401610bd19061288e565b60405180910390fd5b6000600260008581526020019081526020016000206001015403610c33576040517f08c379a0000000000000000000000000000000000000000000000000000000008152600401610c2a906128fa565b60405180910390fd5b6006600083815260200190815260200160002083908060018154018082558091505060019003906000526020600020016000909190919091505581600460008581526020019081526020016000208190555080600b600085815260200190815260200160002081905550505050565b600c6020528060005260406000206000915090505481565b6060806060806000806000808881526020019081526020016000206003018054905090506000806000898152602001908152602001600020600301805480602002602001604051908101604052809291908181526020018280548015610d3f57602002820191906000526020600020905b815481526020019060010190808311610d2b575b5050505050905060008267ffffffffffffffff811115610d6257610d61612706565b5b604051908082528060200260200182016040528015610d905781602001602082028036833780820191505090505b50905060008367ffffffffffffffff811115610daf57610dae612706565b5b604051908082528060200260200182016040528015610ddd5781602001602082028036833780820191505090505b50905060008467ffffffffffffffff811115610dfc57610dfb612706565b5b604051908082528060200260200182016040528015610e2a5781602001602082028036833780820191505090505b50905060005b85811015610ef65760008060008e81526020019081526020016000206004016000878481518110610e6457610e63612735565b5b6020026020010151815260200190815260200160002090508060020154858381518110610e9457610e93612735565b5b6020026020010181815250508060040154848381518110610eb857610eb7612735565b5b6020026020010181815250508060030154838381518110610edc57610edb612735565b5b602002602001018181525050508080600101915050610e30565b50838383838899509950995099509950505050505091939590929450565b600a6020528060005260406000206000915090505481565b606080606080606080600060066000898152602001908152602001600020805480602002602001604051908101604052809291908181526020018280548015610f9457602002820191906000526020600020905b815481526020019060010190808311610f80575b5050505050905060008151905060008167ffffffffffffffff811115610fbd57610fbc612706565b5b604051908082528060200260200182016040528015610feb5781602001602082028036833780820191505090505b50905060008267ffffffffffffffff81111561100a57611009612706565b5b6040519080825280602002602001820160405280156110385781602001602082028036833780820191505090505b50905060008367ffffffffffffffff81111561105757611056612706565b5b6040519080825280602002602001820160405280156110855781602001602082028036833780820191505090505b50905060008467ffffffffffffffff8111156110a4576110a3612706565b5b6040519080825280602002602001820160405280156110d25781602001602082028036833780820191505090505b50905060008567ffffffffffffffff8111156110f1576110f0612706565b5b60405190808252806020026020018201604052801561111f5781602001602082028036833780820191505090505b50905060005b8681101561122657600088828151811061114257611141612735565b5b602002602001015190506000600260008381526020019081526020016000209050806000015488848151811061117b5761117a612735565b5b602002602001018181525050806003015487848151811061119f5761119e612735565b5b60200260200101818152505080600401548684815181106111c3576111c2612735565b5b60200260200101818152505080600501548584815181106111e7576111e6612735565b5b602002602001018181525050806006015484848151811061120b5761120a612735565b5b60200260200101818152505050508080600101915050611125565b508487858585859c509c509c509c509c509c505050505050505091939550919395565b6007602052816000526040600020818154811061126557600080fd5b90600052602060002001600091509150505481565b6060806060806060806000600760008981526020019081526020016000208054806020026020016040519081016040528092919081815260200182805480156112e257602002820191906000526020600020905b8154815260200190600101908083116112ce575b5050505050905060008151905060008167ffffffffffffffff81111561130b5761130a612706565b5b6040519080825280602002602001820160405280156113395781602001602082028036833780820191505090505b50905060008267ffffffffffffffff81111561135857611357612706565b5b6040519080825280602002602001820160405280156113865781602001602082028036833780820191505090505b50905060008367ffffffffffffffff8111156113a5576113a4612706565b5b6040519080825280602002602001820160405280156113d35781602001602082028036833780820191505090505b50905060008467ffffffffffffffff8111156113f2576113f1612706565b5b6040519080825280602002602001820160405280156114205781602001602082028036833780820191505090505b50905060008567ffffffffffffffff81111561143f5761143e612706565b5b60405190808252806020026020018201604052801561146d5781602001602082028036833780820191505090505b50905060005b868110156115a75760008882815181106114905761148f612735565b5b6020026020010151905060046000828152602001908152602001600020548783815181106114c1576114c0612735565b5b60200260200101818152505060036000828152602001908152602001600020548683815181106114f4576114f3612735565b5b602002602001018181525050600a60008281526020019081526020016000205485838151811061152757611526612735565b5b602002602001018181525050600b60008281526020019081526020016000205484838151811061155a57611559612735565b5b602002602001018181525050600c60008281526020019081526020016000205483838151811061158d5761158c612735565b5b602002602001018181525050508080600101915050611473565b508684848785859c509c509c509c509c509c505050505050505091939550919395565b60096020528160005260406000206020528060005260406000206000915091509054906101000a900460ff1681565b60046020528060005260406000206000915090505481565b6000806002600084815260200190815260200160002090506000816006015490508092505050919050565b600b6020528060005260406000206000915090505481565b60036020528060005260406000206000915090505481565b60056020528060005260406000206000915090505481565b6040518061010001604052808981526020018381526020018681526020018781526020018581526020018481526020017f417661696c61626c65000000000000000000000000000000000000000000000081526020018281525060026000878152602001908152602001600020600082015181600001556020820151816001015560408201518160020155606082015181600301556080820151816004015560a0820151816005015560c0820151816006015560e0820151816007015590505087600360008781526020019081526020016000208190555080600a60008781526020019081526020016000208190555060008060008a815260200190815260200160002090506000801b8160000154036117ab578881600001819055508781600101819055505b6000805b82600201805490508110156117fb57868360020182815481106117d5576117d4612735565b5b9060005260206000200154036117ee57600191506117fb565b80806001019150506117af565b508061182d57816002018690806001815401808255809150506001900390600052602060002001600090919091909150555b6000826004016000868152602001908152602001600020905060008160000154036118a257848160000181905550888160020181905550878160010181905550868160040181905550826003018590806001815401808255809150506001900390600052602060002001600090919091909150555b8060030160008154809291906118b790612949565b91905055507fc540fbf22c1fb216605338079a638d447385a97f649f9b472c422fe37e0c12648b868a8c6040516118f19493929190612991565b60405180910390a15050505050505050505050565b6008602052816000526040600020818154811061192257600080fd5b90600052602060002001600091509150505481565b60006002600085815260200190815260200160002090506000816006015490507f417661696c61626c6500000000000000000000000000000000000000000000008103611a71577f536f6c640000000000000000000000000000000000000000000000000000000082600601819055506007600085815260200190815260200160002085908060018154018082558091505060019003906000526020600020016000909190919091505583600560008781526020019081526020016000208190555082600c6000878152602001908152602001600020819055506000826000015490506000836001015490506000806000848152602001908152602001600020905060008160040160008481526020019081526020016000209050806003016000815480929190611a67906129d6565b9190505550505050505b5050505050565b6000801b6000808581526020019081526020016000206000015414611ad2576040517f08c379a0000000000000000000000000000000000000000000000000000000008152600401611ac990612a4b565b60405180910390fd5b60008060008581526020019081526020016000209050838160000181905550828160010181905550806002018290806001815401808255809150506001900390600052602060002001600090919091909150557f84015f7ed02ad8a3075ee08ab14ec9f6df27afbacab46d846fdb0d6bc723629f848484604051611b5893929190612a6b565b60405180910390a150505050565b600080611b71611d1e565b6000600160008b81526020019081526020016000206040518060c0016040529081600082015481526020016001820154815260200160028201548152602001600382015481526020016004820154815260200160058201548152505090506000801b816000015103611bed576000808293509350935050611c42565b6000898260200151141580611c06575088826040015114155b80611c15575087826060015114155b80611c24575086826080015114155b80611c335750858260a0015114155b90506001818394509450945050505b96509650969350505050565b60606000602067ffffffffffffffff811115611c6d57611c6c612706565b5b6040519080825280601f01601f191660200182016040528015611c9f5781602001600182028036833780820191505090505b50905060005b6020811015611d1457838160208110611cc157611cc0612735565b5b1a60f81b828281518110611cd857611cd7612735565b5b60200101907effffffffffffffffffffffffffffffffffffffffffffffffffffffffffffff1916908160001a9053508080600101915050611ca5565b5080915050919050565b6040518060c001604052806000801916815260200160008019168152602001600080191681526020016000815260200160008019168152602001600080191681525090565b600080fd5b6000819050919050565b611d7b81611d68565b8114611d8657600080fd5b50565b600081359050611d9881611d72565b92915050565b600060208284031215611db457611db3611d63565b5b6000611dc284828501611d89565b91505092915050565b600081519050919050565b600082825260208201905092915050565b6000819050602082019050919050565b611e0081611d68565b82525050565b6000611e128383611df7565b60208301905092915050565b6000602082019050919050565b6000611e3682611dcb565b611e408185611dd6565b9350611e4b83611de7565b8060005b83811015611e7c578151611e638882611e06565b9750611e6e83611e1e565b925050600181019050611e4f565b5085935050505092915050565b600081519050919050565b600082825260208201905092915050565b6000819050602082019050919050565b6000819050919050565b611ec881611eb5565b82525050565b6000611eda8383611ebf565b60208301905092915050565b6000602082019050919050565b6000611efe82611e89565b611f088185611e94565b9350611f1383611ea5565b8060005b83811015611f44578151611f2b8882611ece565b9750611f3683611ee6565b925050600181019050611f17565b5085935050505092915050565b600060c0820190508181036000830152611f6b8189611e2b565b90508181036020830152611f7f8188611e2b565b90508181036040830152611f938187611e2b565b90508181036060830152611fa78186611ef3565b90508181036080830152611fbb8185611e2b565b905081810360a0830152611fcf8184611e2b565b9050979650505050505050565b611fe581611d68565b82525050565b611ff481611eb5565b82525050565b600061010082019050612010600083018b611fdc565b61201d602083018a611feb565b61202a6040830189611fdc565b6120376060830188611fdc565b6120446080830187611fdc565b61205160a0830186611feb565b61205e60c0830185611fdc565b61206b60e0830184611fdc565b9998505050505050505050565b600060c08201905061208d6000830189611fdc565b61209a6020830188611fdc565b6120a76040830187611fdc565b6120b46060830186611feb565b6120c16080830185611fdc565b6120ce60a0830184611fdc565b979650505050505050565b6120e281611eb5565b81146120ed57600080fd5b50565b6000813590506120ff816120d9565b92915050565b600080600080600080600060e0888a03121561212457612123611d63565b5b60006121328a828b01611d89565b97505060206121438a828b01611d89565b96505060406121548a828b01611d89565b95505060606121658a828b01611d89565b94505060806121768a828b016120f0565b93505060a06121878a828b01611d89565b92505060c06121988a828b01611d89565b91505092959891949750929550565b600080604083850312156121be576121bd611d63565b5b60006121cc85828601611d89565b92505060206121dd85828601611d89565b9150509250929050565b60008115159050919050565b6121fc816121e7565b82525050565b600081519050919050565b600082825260208201905092915050565b60005b8381101561223c578082015181840152602081019050612221565b60008484015250505050565b6000601f19601f8301169050919050565b600061226482612202565b61226e818561220d565b935061227e81856020860161221e565b61228781612248565b840191505092915050565b60006040820190506122a760008301856121f3565b81810360208301526122b98184612259565b90509392505050565b600080604083850312156122d9576122d8611d63565b5b60006122e785828601611d89565b92505060206122f8858286016120f0565b9150509250929050565b60006020820190506123176000830184611fdc565b92915050565b60008060006060848603121561233657612335611d63565b5b600061234486828701611d89565b935050602061235586828701611d89565b925050604061236686828701611d89565b9150509250925092565b600060a082019050818103600083015261238a8188611ef3565b9050818103602083015261239e8187611e2b565b905081810360408301526123b28186611e2b565b905081810360608301526123c68185611ef3565b90506123d56080830184611feb565b9695505050505050565b600060c08201905081810360008301526123f98189611e2b565b9050818103602083015261240d8188611e2b565b905081810360408301526124218187611e2b565b905081810360608301526124358186611e2b565b905081810360808301526124498185611ef3565b905081810360a083015261245d8184611e2b565b9050979650505050505050565b600060c08201905081810360008301526124848189611e2b565b905081810360208301526124988188611e2b565b905081810360408301526124ac8187611e2b565b905081810360608301526124c08186611e2b565b905081810360808301526124d48185611e2b565b905081810360a08301526124e88184611e2b565b9050979650505050505050565b600060208201905061250a60008301846121f3565b92915050565b600080600080600080600080610100898b03121561253157612530611d63565b5b600061253f8b828c01611d89565b98505060206125508b828c01611d89565b97505060406125618b828c01611d89565b96505060606125728b828c01611d89565b95505060806125838b828c01611d89565b94505060a06125948b828c016120f0565b93505060c06125a58b828c016120f0565b92505060e06125b68b828c01611d89565b9150509295985092959890939650565b60008060008060008060c087890312156125e3576125e2611d63565b5b60006125f189828a01611d89565b965050602061260289828a01611d89565b955050604061261389828a01611d89565b945050606061262489828a016120f0565b935050608061263589828a01611d89565b92505060a061264689828a01611d89565b9150509295509295509295565b60c0820160008201516126696000850182611df7565b50602082015161267c6020850182611df7565b50604082015161268f6040850182611df7565b5060608201516126a26060850182611ebf565b5060808201516126b56080850182611df7565b5060a08201516126c860a0850182611df7565b50505050565b6000610100820190506126e460008301866121f3565b6126f160208301856121f3565b6126fe6040830184612653565b949350505050565b7f4e487b7100000000000000000000000000000000000000000000000000000000600052604160045260246000fd5b7f4e487b7100000000000000000000000000000000000000000000000000000000600052603260045260246000fd5b7f53656c6c657220616c7265616479206173736f6369617465642077697468207460008201527f686973206d616e75666163747572657200000000000000000000000000000000602082015250565b60006127c060308361220d565b91506127cb82612764565b604082019050919050565b600060208201905081810360008301526127ef816127b3565b9050919050565b7f446f75626c652073656c6c696e67206973206e6f7420616c6c6f7765642e205060008201527f726f6475637420697320616c726561647920736f6c6420746f20736f6d65206f60208201527f746865722073656c6c6572210000000000000000000000000000000000000000604082015250565b6000612878604c8361220d565b9150612883826127f6565b606082019050919050565b600060208201905081810360008301526128a78161286b565b9050919050565b7f50726f6475637420646f65736e27742065786973740000000000000000000000600082015250565b60006128e460158361220d565b91506128ef826128ae565b602082019050919050565b60006020820190508181036000830152612913816128d7565b9050919050565b7f4e487b7100000000000000000000000000000000000000000000000000000000600052601160045260246000fd5b600061295482611eb5565b91507fffffffffffffffffffffffffffffffffffffffffffffffffffffffffffffffff82036129865761298561291a565b5b600182019050919050565b60006080820190506129a66000830187611fdc565b6129b36020830186611feb565b6129c06040830185611fdc565b6129cd6060830184611fdc565b95945050505050565b60006129e182611eb5565b9150600082036129f4576129f361291a565b5b600182039050919050565b7f4d616e75666163747572657220616c7265616479207265676973746572656400600082015250565b6000612a35601f8361220d565b9150612a40826129ff565b602082019050919050565b60006020820190508181036000830152612a6481612a28565b9050919050565b6000606082019050612a806000830186611fdc565b612a8d6020830185611fdc565b612a9a6040830184611fdc565b94935050505056fea26469706673582212200ff709cd43ae8737a148f43a308257e60db5b2b805f6eb44b6be8bb2e7061dbb64736f6c634300081c0033",
  "linkReferences": {},
  "deployedLinkReferences": {},
  "address": "0x890674026F3922842C82af8bDb3803c9A18f8CCe",
  "networkId": "1337"
}