{
  "_format": "hh-sol-artifact-1",
  "contractName": "MedicalProduct",
  "sourceName": "contracts/MedicalProduct.sol",
  "abi": [
    {
      "anonymous": false,
      "inputs": [
        {
          "indexed": false,
          "internalType": "bytes32",
          "name": "manufacturerId",
          "type": "bytes32"
        },
        {
          "indexed": false,
          "internalType": "bytes32",
          "name": "manufacturerName",
          "type": "bytes32"
        },
        {
          "indexed": false,
          "internalType": "bytes32",
          "name": "productBrand",
          "type": "bytes32"
        }
      ],
      "name": "ManufacturerRegistered",
      "type": "event"
    },
    {
      "anonymous": false,
      "inputs": [
        {
          "indexed": false,
          "internalType": "bytes32",
          "name": "manufacturerId",
          "type": "bytes32"
        },
        {
          "indexed": false,
          "internalType": "uint256",
          "name": "productId",
          "type": "uint256"
        },
        {
          "indexed": false,
          "internalType": "bytes32",
          "name": "productSN",
          "type": "bytes32"
        },
        {
          "indexed": false,
          "internalType": "bytes32",
          "name": "productName",
          "type": "bytes32"
        }
      ],
      "name": "ProductAdded",
      "type": "event"
    },
    {
      "inputs": [
        {
          "internalType": "bytes32",
          "name": "_manufacturerID",
          "type": "bytes32"
        },
        {
          "internalType": "bytes32",
          "name": "_productName",
          "type": "bytes32"
        },
        {
          "internalType": "bytes32",
          "name": "_productSN",
          "type": "bytes32"
        },
        {
          "internalType": "bytes32",
          "name": "_productBrand",
          "type": "bytes32"
        },
        {
          "internalType": "uint256",
          "name": "_productPrice",
          "type": "uint256"
        },
        {
          "internalType": "uint256",
          "name": "_productID",
          "type": "uint256"
        },
        {
          "internalType": "bytes32",
          "name": "_productTime",
          "type": "bytes32"
        }
      ],
      "name": "addProduct",
      "outputs": [],
      "stateMutability": "nonpayable",
      "type": "function"
    },
    {
      "inputs": [
        {
          "internalType": "bytes32",
          "name": "_manufacturerId",
          "type": "bytes32"
        },
        {
          "internalType": "bytes32",
          "name": "_sellerName",
          "type": "bytes32"
        },
        {
          "internalType": "bytes32",
          "name": "_sellerBrand",
          "type": "bytes32"
        },
        {
          "internalType": "bytes32",
          "name": "_sellerID",
          "type": "bytes32"
        },
        {
          "internalType": "uint256",
          "name": "_sellerNum",
          "type": "uint256"
        },
        {
          "internalType": "bytes32",
          "name": "_sellerManager",
          "type": "bytes32"
        },
        {
          "internalType": "bytes32",
          "name": "_sellerAddress",
          "type": "bytes32"
        }
      ],
      "name": "addSeller",
      "outputs": [],
      "stateMutability": "nonpayable",
      "type": "function"
    },
    {
      "inputs": [
        {
          "internalType": "bytes32",
          "name": "_productSN",
          "type": "bytes32"
        }
      ],
      "name": "checkStatus",
      "outputs": [
        {
          "internalType": "bytes32",
          "name": "",
          "type": "bytes32"
        }
      ],
      "stateMutability": "view",
      "type": "function"
    },
    {
      "inputs": [
        {
          "internalType": "bytes32",
          "name": "_consumerID",
          "type": "bytes32"
        }
      ],
      "name": "getPurchaseHistory",
      "outputs": [
        {
          "internalType": "bytes32[]",
          "name": "",
          "type": "bytes32[]"
        },
        {
          "internalType": "bytes32[]",
          "name": "",
          "type": "bytes32[]"
        },
        {
          "internalType": "bytes32[]",
          "name": "",
          "type": "bytes32[]"
        },
        {
          "internalType": "bytes32[]",
          "name": "",
          "type": "bytes32[]"
        },
        {
          "internalType": "bytes32[]",
          "name": "",
          "type": "bytes32[]"
        },
        {
          "internalType": "bytes32[]",
          "name": "",
          "type": "bytes32[]"
        }
      ],
      "stateMutability": "view",
      "type": "function"
    },
    {
      "inputs": [
        {
          "internalType": "bytes32",
          "name": "",
          "type": "bytes32"
        }
      ],
      "name": "manufacturedTime",
      "outputs": [
        {
          "internalType": "bytes32",
          "name": "",
          "type": "bytes32"
        }
      ],
      "stateMutability": "view",
      "type": "function"
    },
    {
      "inputs": [
        {
          "internalType": "bytes32",
          "name": "_productSN",
          "type": "bytes32"
        },
        {
          "internalType": "bytes32",
          "name": "_sellerID",
          "type": "bytes32"
        },
        {
          "internalType": "bytes32",
          "name": "_productTime",
          "type": "bytes32"
        }
      ],
      "name": "manufacturerSellProduct",
      "outputs": [],
      "stateMutability": "nonpayable",
      "type": "function"
    },
    {
      "inputs": [
        {
          "internalType": "bytes32",
          "name": "",
          "type": "bytes32"
        }
      ],
      "name": "manufacturerToSellerTime",
      "outputs": [
        {
          "internalType": "bytes32",
          "name": "",
          "type": "bytes32"
        }
      ],
      "stateMutability": "view",
      "type": "function"
    },
    {
      "inputs": [
        {
          "internalType": "bytes32",
          "name": "",
          "type": "bytes32"
        }
      ],
      "name": "productItems",
      "outputs": [
        {
          "internalType": "bytes32",
          "name": "manufacturerId",
          "type": "bytes32"
        },
        {
          "internalType": "uint256",
          "name": "productId",
          "type": "uint256"
        },
        {
          "internalType": "bytes32",
          "name": "productSN",
          "type": "bytes32"
        },
        {
          "internalType": "bytes32",
          "name": "productName",
          "type": "bytes32"
        },
        {
          "internalType": "bytes32",
          "name": "productBrand",
          "type": "bytes32"
        },
        {
          "internalType": "uint256",
          "name": "productPrice",
          "type": "uint256"
        },
        {
          "internalType": "bytes32",
          "name": "productStatus",
          "type": "bytes32"
        },
        {
          "internalType": "bytes32",
          "name": "productTime",
          "type": "bytes32"
        }
      ],
      "stateMutability": "view",
      "type": "function"
    },
    {
      "inputs": [
        {
          "internalType": "bytes32",
          "name": "",
          "type": "bytes32"
        }
      ],
      "name": "productsForSale",
      "outputs": [
        {
          "internalType": "bytes32",
          "name": "",
          "type": "bytes32"
        }
      ],
      "stateMutability": "view",
      "type": "function"
    },
    {
      "inputs": [
        {
          "internalType": "bytes32",
          "name": "",
          "type": "bytes32"
        }
      ],
      "name": "productsManufactured",
      "outputs": [
        {
          "internalType": "bytes32",
          "name": "",
          "type": "bytes32"
        }
      ],
      "stateMutability": "view",
      "type": "function"
    },
    {
      "inputs": [
        {
          "internalType": "bytes32",
          "name": "",
          "type": "bytes32"
        }
      ],
      "name": "productsSold",
      "outputs": [
        {
          "internalType": "bytes32",
          "name": "",
          "type": "bytes32"
        }
      ],
      "stateMutability": "view",
      "type": "function"
    },
    {
      "inputs": [
        {
          "internalType": "bytes32",
          "name": "",
          "type": "bytes32"
        },
        {
          "internalType": "uint256",
          "name": "",
          "type": "uint256"
        }
      ],
      "name": "productsWithConsumer",
      "outputs": [
        {
          "internalType": "bytes32",
          "name": "",
          "type": "bytes32"
        }
      ],
      "stateMutability": "view",
      "type": "function"
    },
    {
      "inputs": [
        {
          "internalType": "bytes32",
          "name": "",
          "type": "bytes32"
        },
        {
          "internalType": "uint256",
          "name": "",
          "type": "uint256"
        }
      ],
      "name": "productsWithSeller",
      "outputs": [
        {
          "internalType": "bytes32",
          "name": "",
          "type": "bytes32"
        }
      ],
      "stateMutability": "view",
      "type": "function"
    },
    {
      "inputs": [
        {
          "internalType": "bytes32",
          "name": "_manufacturerId",
          "type": "bytes32"
        }
      ],
      "name": "queryInventory",
      "outputs": [
        {
          "internalType": "uint256[]",
          "name": "",
          "type": "uint256[]"
        },
        {
          "internalType": "bytes32[]",
          "name": "",
          "type": "bytes32[]"
        },
        {
          "internalType": "bytes32",
          "name": "",
          "type": "bytes32"
        },
        {
          "internalType": "uint256[]",
          "name": "",
          "type": "uint256[]"
        },
        {
          "internalType": "uint256",
          "name": "",
          "type": "uint256"
        }
      ],
      "stateMutability": "view",
      "type": "function"
    },
    {
      "inputs": [
        {
          "internalType": "bytes32",
          "name": "_sellerID",
          "type": "bytes32"
        }
      ],
      "name": "queryProductsList",
      "outputs": [
        {
          "internalType": "bytes32[]",
          "name": "",
          "type": "bytes32[]"
        },
        {
          "internalType": "bytes32[]",
          "name": "",
          "type": "bytes32[]"
        },
        {
          "internalType": "bytes32[]",
          "name": "",
          "type": "bytes32[]"
        },
        {
          "internalType": "bytes32[]",
          "name": "",
          "type": "bytes32[]"
        },
        {
          "internalType": "uint256[]",
          "name": "",
          "type": "uint256[]"
        },
        {
          "internalType": "bytes32[]",
          "name": "",
          "type": "bytes32[]"
        }
      ],
      "stateMutability": "view",
      "type": "function"
    },
    {
      "inputs": [
        {
          "internalType": "bytes32",
          "name": "_manufacturerID",
          "type": "bytes32"
        }
      ],
      "name": "querySellersList",
      "outputs": [
        {
          "internalType": "bytes32[]",
          "name": "",
          "type": "bytes32[]"
        },
        {
          "internalType": "bytes32[]",
          "name": "",
          "type": "bytes32[]"
        },
        {
          "internalType": "bytes32[]",
          "name": "",
          "type": "bytes32[]"
        },
        {
          "internalType": "uint256[]",
          "name": "",
          "type": "uint256[]"
        },
        {
          "internalType": "bytes32[]",
          "name": "",
          "type": "bytes32[]"
        },
        {
          "internalType": "bytes32[]",
          "name": "",
          "type": "bytes32[]"
        }
      ],
      "stateMutability": "view",
      "type": "function"
    },
    {
      "inputs": [
        {
          "internalType": "bytes32",
          "name": "_manufacturerID",
          "type": "bytes32"
        },
        {
          "internalType": "bytes32",
          "name": "_manufacturerName",
          "type": "bytes32"
        },
        {
          "internalType": "bytes32",
          "name": "_productBrand",
          "type": "bytes32"
        }
      ],
      "name": "registerManufacturer",
      "outputs": [],
      "stateMutability": "nonpayable",
      "type": "function"
    },
    {
      "inputs": [
        {
          "internalType": "bytes32",
          "name": "_productSN",
          "type": "bytes32"
        },
        {
          "internalType": "bytes32",
          "name": "_consumerID",
          "type": "bytes32"
        },
        {
          "internalType": "bytes32",
          "name": "_productTime",
          "type": "bytes32"
        }
      ],
      "name": "sellerSellProduct",
      "outputs": [],
      "stateMutability": "nonpayable",
      "type": "function"
    },
    {
      "inputs": [
        {
          "internalType": "bytes32",
          "name": "",
          "type": "bytes32"
        }
      ],
      "name": "sellers",
      "outputs": [
        {
          "internalType": "bytes32",
          "name": "sellerId",
          "type": "bytes32"
        },
        {
          "internalType": "bytes32",
          "name": "sellerName",
          "type": "bytes32"
        },
        {
          "internalType": "bytes32",
          "name": "sellerBrand",
          "type": "bytes32"
        },
        {
          "internalType": "uint256",
          "name": "sellerNum",
          "type": "uint256"
        },
        {
          "internalType": "bytes32",
          "name": "sellerManager",
          "type": "bytes32"
        },
        {
          "internalType": "bytes32",
          "name": "sellerAddress",
          "type": "bytes32"
        }
      ],
      "stateMutability": "view",
      "type": "function"
    },
    {
      "inputs": [
        {
          "internalType": "bytes32",
          "name": "",
          "type": "bytes32"
        },
        {
          "internalType": "uint256",
          "name": "",
          "type": "uint256"
        }
      ],
      "name": "sellersWithManufacturer",
      "outputs": [
        {
          "internalType": "bytes32",
          "name": "",
          "type": "bytes32"
        }
      ],
      "stateMutability": "view",
      "type": "function"
    },
    {
      "inputs": [
        {
          "internalType": "bytes32",
          "name": "",
          "type": "bytes32"
        }
      ],
      "name": "sellingTime",
      "outputs": [
        {
          "internalType": "bytes32",
          "name": "",
          "type": "bytes32"
        }
      ],
      "stateMutability": "view",
      "type": "function"
    },
    {
      "inputs": [
        {
          "internalType": "bytes32",
          "name": "_productSN",
          "type": "bytes32"
        },
        {
          "internalType": "bytes32",
          "name": "_consumerID",
          "type": "bytes32"
        }
      ],
      "name": "verifyProduct",
      "outputs": [
        {
          "internalType": "bool",
          "name": "",
          "type": "bool"
        },
        {
          "internalType": "string",
          "name": "",
          "type": "string"
        }
      ],
      "stateMutability": "view",
      "type": "function"
    }
  ],
  "bytecode": "0x6080604052348015600f57600080fd5b5061236a8061001f6000396000f3fe608060405234801561001057600080fd5b50600436106101425760003560e01c80639cd777dd116100b8578063b7d16fb31161007c578063b7d16fb31461042b578063c20805b41461045b578063cd4f6a2e1461048b578063e262113f146104bb578063e5d194ab146104eb578063ea947b551461050757610142565b80639cd777dd1461034a5780639ea4695d1461037a578063a090f47c146103af578063a2200278146103df578063a5882b941461040f57610142565b80634b9930011161010a5780634b993001146102355780635e9794531461026557806368a6b9da1461028157806369f3363a146102b15780637b8d84de146102e557806392162bc41461031557610142565b8063130aa81f1461014757806314c52c671461017c57806318607f30146101b35780631b3658c8146101e8578063344b5d5114610204575b600080fd5b610161600480360381019061015c919061195c565b610523565b60405161017396959493929190611b0f565b60405180910390f35b6101966004803603810190610191919061195c565b61083a565b6040516101aa989796959493929190611bb8565b60405180910390f35b6101cd60048036038101906101c8919061195c565b610882565b6040516101df96959493929190611c36565b60405180910390f35b61020260048036038101906101fd9190611cc3565b6108be565b005b61021e60048036038101906102199190611d65565b610980565b60405161022c929190611e50565b60405180910390f35b61024f600480360381019061024a9190611e80565b6109db565b60405161025c9190611ec0565b60405180910390f35b61027f600480360381019061027a9190611edb565b610a0c565b005b61029b6004803603810190610296919061195c565b610a7b565b6040516102a89190611ec0565b60405180910390f35b6102cb60048036038101906102c6919061195c565b610a93565b6040516102dc959493929190611f2e565b60405180910390f35b6102ff60048036038101906102fa919061195c565b610c97565b60405161030c9190611ec0565b60405180910390f35b61032f600480360381019061032a919061195c565b610caf565b60405161034196959493929190611f96565b60405180910390f35b610364600480360381019061035f9190611e80565b610fcc565b6040516103719190611ec0565b60405180910390f35b610394600480360381019061038f919061195c565b610ffd565b6040516103a696959493929190612021565b60405180910390f35b6103c960048036038101906103c4919061195c565b61134d565b6040516103d69190611ec0565b60405180910390f35b6103f960048036038101906103f4919061195c565b611365565b6040516104069190611ec0565b60405180910390f35b610429600480360381019061042491906120ac565b611390565b005b6104456004803603810190610440919061195c565b6115af565b6040516104529190611ec0565b60405180910390f35b6104756004803603810190610470919061195c565b6115c7565b6040516104829190611ec0565b60405180910390f35b6104a560048036038101906104a0919061195c565b6115df565b6040516104b29190611ec0565b60405180910390f35b6104d560048036038101906104d09190611e80565b6115f7565b6040516104e29190611ec0565b60405180910390f35b61050560048036038101906105009190611edb565b611628565b005b610521600480360381019061051c9190611edb565b611769565b005b60608060608060608060006008600089815260200190815260200160002080548060200260200160405190810160405280929190818152602001828054801561058b57602002820191906000526020600020905b815481526020019060010190808311610577575b5050505050905060008151905060008167ffffffffffffffff8111156105b4576105b361214e565b5b6040519080825280602002602001820160405280156105e25781602001602082028036833780820191505090505b50905060008267ffffffffffffffff8111156106015761060061214e565b5b60405190808252806020026020018201604052801561062f5781602001602082028036833780820191505090505b50905060008367ffffffffffffffff81111561064e5761064d61214e565b5b60405190808252806020026020018201604052801561067c5781602001602082028036833780820191505090505b50905060008467ffffffffffffffff81111561069b5761069a61214e565b5b6040519080825280602002602001820160405280156106c95781602001602082028036833780820191505090505b50905060008567ffffffffffffffff8111156106e8576106e761214e565b5b6040519080825280602002602001820160405280156107165781602001602082028036833780820191505090505b50905060005b86811015610817576000600160008a848151811061073d5761073c61217d565b5b602002602001015181526020019081526020016000209050806001015487838151811061076d5761076c61217d565b5b60200260200101818152505080600201548683815181106107915761079061217d565b5b60200260200101818152505080600301548583815181106107b5576107b461217d565b5b60200260200101818152505080600401548483815181106107d9576107d861217d565b5b60200260200101818152505080600501548383815181106107fd576107fc61217d565b5b60200260200101818152505050808060010191505061071c565b508685858585859c509c509c509c509c509c505050505050505091939550919395565b60026020528060005260406000206000915090508060000154908060010154908060020154908060030154908060040154908060050154908060060154908060070154905088565b60016020528060005260406000206000915090508060000154908060010154908060020154908060030154908060040154908060050154905086565b6040518060c001604052808581526020018781526020018681526020018481526020018381526020018281525060016000868152602001908152602001600020600082015181600001556020820151816001015560408201518160020155606082015181600301556080820151816004015560a082015181600501559050506008600088815260200190815260200160002084908060018154018082558091505060019003906000526020600020016000909190919091505550505050505050565b6000606060006109a26005600087815260200190815260200160002054611851565b9050836005600087815260200190815260200160002054036109cb5760018192509250506109d4565b60008192509250505b9250929050565b600660205281600052604060002081815481106109f757600080fd5b90600052602060002001600091509150505481565b6006600083815260200190815260200160002083908060018154018082558091505060019003906000526020600020016000909190919091505581600460008581526020019081526020016000208190555080600a600085815260200190815260200160002081905550505050565b600b6020528060005260406000206000915090505481565b606080600060606000806000808881526020019081526020016000206003018054905090506000806000898152602001908152602001600020600301805480602002602001604051908101604052809291908181526020018280548015610b1957602002820191906000526020600020905b815481526020019060010190808311610b05575b5050505050905060008267ffffffffffffffff811115610b3c57610b3b61214e565b5b604051908082528060200260200182016040528015610b6a5781602001602082028036833780820191505090505b50905060008367ffffffffffffffff811115610b8957610b8861214e565b5b604051908082528060200260200182016040528015610bb75781602001602082028036833780820191505090505b50905060005b84811015610c5f5760008060008d81526020019081526020016000206004016000868481518110610bf157610bf061217d565b5b6020026020010151815260200190815260200160002090508060010154848381518110610c2157610c2061217d565b5b6020026020010181815250508060020154838381518110610c4557610c4461217d565b5b602002602001018181525050508080600101915050610bbd565b5060008060008c8152602001908152602001600020600201549050838382848899509950995099509950505050505091939590929450565b60096020528060005260406000206000915090505481565b606080606080606080600060066000898152602001908152602001600020805480602002602001604051908101604052809291908181526020018280548015610d1757602002820191906000526020600020905b815481526020019060010190808311610d03575b5050505050905060008151905060008167ffffffffffffffff811115610d4057610d3f61214e565b5b604051908082528060200260200182016040528015610d6e5781602001602082028036833780820191505090505b50905060008267ffffffffffffffff811115610d8d57610d8c61214e565b5b604051908082528060200260200182016040528015610dbb5781602001602082028036833780820191505090505b50905060008367ffffffffffffffff811115610dda57610dd961214e565b5b604051908082528060200260200182016040528015610e085781602001602082028036833780820191505090505b50905060008467ffffffffffffffff811115610e2757610e2661214e565b5b604051908082528060200260200182016040528015610e555781602001602082028036833780820191505090505b50905060008567ffffffffffffffff811115610e7457610e7361214e565b5b604051908082528060200260200182016040528015610ea25781602001602082028036833780820191505090505b50905060005b86811015610fa9576000888281518110610ec557610ec461217d565b5b6020026020010151905060006002600083815260200190815260200160002090508060000154888481518110610efe57610efd61217d565b5b6020026020010181815250508060030154878481518110610f2257610f2161217d565b5b6020026020010181815250508060040154868481518110610f4657610f4561217d565b5b6020026020010181815250508060050154858481518110610f6a57610f6961217d565b5b6020026020010181815250508060060154848481518110610f8e57610f8d61217d565b5b60200260200101818152505050508080600101915050610ea8565b508487858585859c509c509c509c509c509c505050505050505091939550919395565b60076020528160005260406000208181548110610fe857600080fd5b90600052602060002001600091509150505481565b60608060608060608060006007600089815260200190815260200160002080548060200260200160405190810160405280929190818152602001828054801561106557602002820191906000526020600020905b815481526020019060010190808311611051575b5050505050905060008151905060008167ffffffffffffffff81111561108e5761108d61214e565b5b6040519080825280602002602001820160405280156110bc5781602001602082028036833780820191505090505b50905060008267ffffffffffffffff8111156110db576110da61214e565b5b6040519080825280602002602001820160405280156111095781602001602082028036833780820191505090505b50905060008367ffffffffffffffff8111156111285761112761214e565b5b6040519080825280602002602001820160405280156111565781602001602082028036833780820191505090505b50905060008467ffffffffffffffff8111156111755761117461214e565b5b6040519080825280602002602001820160405280156111a35781602001602082028036833780820191505090505b50905060008567ffffffffffffffff8111156111c2576111c161214e565b5b6040519080825280602002602001820160405280156111f05781602001602082028036833780820191505090505b50905060005b8681101561132a5760008882815181106112135761121261217d565b5b6020026020010151905060046000828152602001908152602001600020548783815181106112445761124361217d565b5b60200260200101818152505060036000828152602001908152602001600020548683815181106112775761127661217d565b5b60200260200101818152505060096000828152602001908152602001600020548583815181106112aa576112a961217d565b5b602002602001018181525050600a6000828152602001908152602001600020548483815181106112dd576112dc61217d565b5b602002602001018181525050600b6000828152602001908152602001600020548383815181106113105761130f61217d565b5b6020026020010181815250505080806001019150506111f6565b508684848785859c509c509c509c509c509c505050505050505091939550919395565b60046020528060005260406000206000915090505481565b6000806002600084815260200190815260200160002090506000816006015490508092505050919050565b6040518061010001604052808881526020018381526020018681526020018781526020018581526020018481526020017f417661696c61626c65000000000000000000000000000000000000000000000081526020018281525060026000878152602001908152602001600020600082015181600001556020820151816001015560408201518160020155606082015181600301556080820151816004015560a0820151816005015560c0820151816006015560e082015181600701559050508660036000878152602001908152602001600020819055508060096000878152602001908152602001600020819055506000801b60008089815260200190815260200160002060000154036114d457866000808981526020019081526020016000206000018190555083600080898152602001908152602001600020600201819055505b6000806000898152602001908152602001600020905060008160040160008581526020019081526020016000209050600081600001540361154d57838160000181905550878160010181905550816003018490806001815401808255809150506001900390600052602060002001600090919091909150555b806002016000815480929190611562906121db565b91905055507fc540fbf22c1fb216605338079a638d447385a97f649f9b472c422fe37e0c12648985898b60405161159c9493929190612223565b60405180910390a1505050505050505050565b600a6020528060005260406000206000915090505481565b60036020528060005260406000206000915090505481565b60056020528060005260406000206000915090505481565b6008602052816000526040600020818154811061161357600080fd5b90600052602060002001600091509150505481565b60006002600085815260200190815260200160002090506000816006015490507f417661696c61626c6500000000000000000000000000000000000000000000008103611762577f536f6c640000000000000000000000000000000000000000000000000000000082600601819055506007600085815260200190815260200160002085908060018154018082558091505060019003906000526020600020016000909190919091505583600560008781526020019081526020016000208190555082600b600087815260200190815260200160002081905550600082600001549050600083600101549050600080600084815260200190815260200160002090506000816004016000848152602001908152602001600020905080600201600081548092919061175890612268565b9190505550505050505b5050505050565b6000801b60008085815260200190815260200160002060000154146117c3576040517f08c379a00000000000000000000000000000000000000000000000000000000081526004016117ba906122dd565b60405180910390fd5b8260008085815260200190815260200160002060000181905550816000808581526020019081526020016000206001018190555080600080858152602001908152602001600020600201819055507f84015f7ed02ad8a3075ee08ab14ec9f6df27afbacab46d846fdb0d6bc723629f838383604051611844939291906122fd565b60405180910390a1505050565b60606000602067ffffffffffffffff8111156118705761186f61214e565b5b6040519080825280601f01601f1916602001820160405280156118a25781602001600182028036833780820191505090505b50905060005b6020811015611917578381602081106118c4576118c361217d565b5b1a60f81b8282815181106118db576118da61217d565b5b60200101907effffffffffffffffffffffffffffffffffffffffffffffffffffffffffffff1916908160001a90535080806001019150506118a8565b5080915050919050565b600080fd5b6000819050919050565b61193981611926565b811461194457600080fd5b50565b60008135905061195681611930565b92915050565b60006020828403121561197257611971611921565b5b600061198084828501611947565b91505092915050565b600081519050919050565b600082825260208201905092915050565b6000819050602082019050919050565b6119be81611926565b82525050565b60006119d083836119b5565b60208301905092915050565b6000602082019050919050565b60006119f482611989565b6119fe8185611994565b9350611a09836119a5565b8060005b83811015611a3a578151611a2188826119c4565b9750611a2c836119dc565b925050600181019050611a0d565b5085935050505092915050565b600081519050919050565b600082825260208201905092915050565b6000819050602082019050919050565b6000819050919050565b611a8681611a73565b82525050565b6000611a988383611a7d565b60208301905092915050565b6000602082019050919050565b6000611abc82611a47565b611ac68185611a52565b9350611ad183611a63565b8060005b83811015611b02578151611ae98882611a8c565b9750611af483611aa4565b925050600181019050611ad5565b5085935050505092915050565b600060c0820190508181036000830152611b2981896119e9565b90508181036020830152611b3d81886119e9565b90508181036040830152611b5181876119e9565b90508181036060830152611b658186611ab1565b90508181036080830152611b7981856119e9565b905081810360a0830152611b8d81846119e9565b9050979650505050505050565b611ba381611926565b82525050565b611bb281611a73565b82525050565b600061010082019050611bce600083018b611b9a565b611bdb602083018a611ba9565b611be86040830189611b9a565b611bf56060830188611b9a565b611c026080830187611b9a565b611c0f60a0830186611ba9565b611c1c60c0830185611b9a565b611c2960e0830184611b9a565b9998505050505050505050565b600060c082019050611c4b6000830189611b9a565b611c586020830188611b9a565b611c656040830187611b9a565b611c726060830186611ba9565b611c7f6080830185611b9a565b611c8c60a0830184611b9a565b979650505050505050565b611ca081611a73565b8114611cab57600080fd5b50565b600081359050611cbd81611c97565b92915050565b600080600080600080600060e0888a031215611ce257611ce1611921565b5b6000611cf08a828b01611947565b9750506020611d018a828b01611947565b9650506040611d128a828b01611947565b9550506060611d238a828b01611947565b9450506080611d348a828b01611cae565b93505060a0611d458a828b01611947565b92505060c0611d568a828b01611947565b91505092959891949750929550565b60008060408385031215611d7c57611d7b611921565b5b6000611d8a85828601611947565b9250506020611d9b85828601611947565b9150509250929050565b60008115159050919050565b611dba81611da5565b82525050565b600081519050919050565b600082825260208201905092915050565b60005b83811015611dfa578082015181840152602081019050611ddf565b60008484015250505050565b6000601f19601f8301169050919050565b6000611e2282611dc0565b611e2c8185611dcb565b9350611e3c818560208601611ddc565b611e4581611e06565b840191505092915050565b6000604082019050611e656000830185611db1565b8181036020830152611e778184611e17565b90509392505050565b60008060408385031215611e9757611e96611921565b5b6000611ea585828601611947565b9250506020611eb685828601611cae565b9150509250929050565b6000602082019050611ed56000830184611b9a565b92915050565b600080600060608486031215611ef457611ef3611921565b5b6000611f0286828701611947565b9350506020611f1386828701611947565b9250506040611f2486828701611947565b9150509250925092565b600060a0820190508181036000830152611f488188611ab1565b90508181036020830152611f5c81876119e9565b9050611f6b6040830186611b9a565b8181036060830152611f7d8185611ab1565b9050611f8c6080830184611ba9565b9695505050505050565b600060c0820190508181036000830152611fb081896119e9565b90508181036020830152611fc481886119e9565b90508181036040830152611fd881876119e9565b90508181036060830152611fec81866119e9565b905081810360808301526120008185611ab1565b905081810360a083015261201481846119e9565b9050979650505050505050565b600060c082019050818103600083015261203b81896119e9565b9050818103602083015261204f81886119e9565b9050818103604083015261206381876119e9565b9050818103606083015261207781866119e9565b9050818103608083015261208b81856119e9565b905081810360a083015261209f81846119e9565b9050979650505050505050565b600080600080600080600060e0888a0312156120cb576120ca611921565b5b60006120d98a828b01611947565b97505060206120ea8a828b01611947565b96505060406120fb8a828b01611947565b955050606061210c8a828b01611947565b945050608061211d8a828b01611cae565b93505060a061212e8a828b01611cae565b92505060c061213f8a828b01611947565b91505092959891949750929550565b7f4e487b7100000000000000000000000000000000000000000000000000000000600052604160045260246000fd5b7f4e487b7100000000000000000000000000000000000000000000000000000000600052603260045260246000fd5b7f4e487b7100000000000000000000000000000000000000000000000000000000600052601160045260246000fd5b60006121e682611a73565b91507fffffffffffffffffffffffffffffffffffffffffffffffffffffffffffffffff8203612218576122176121ac565b5b600182019050919050565b60006080820190506122386000830187611b9a565b6122456020830186611ba9565b6122526040830185611b9a565b61225f6060830184611b9a565b95945050505050565b600061227382611a73565b915060008203612286576122856121ac565b5b600182039050919050565b7f4d616e75666163747572657220616c7265616479207265676973746572656400600082015250565b60006122c7601f83611dcb565b91506122d282612291565b602082019050919050565b600060208201905081810360008301526122f6816122ba565b9050919050565b60006060820190506123126000830186611b9a565b61231f6020830185611b9a565b61232c6040830184611b9a565b94935050505056fea26469706673582212202139d9707b742b12bed14de587320533064362c3501ff7cd93268148dc1684ec64736f6c634300081c0033",
  "linkReferences": {},
  "deployedLinkReferences": {},
  "address": "0xB0ec62D98762C8D88E3b8D14760fd13DA1e32330",
  "networkId": "1337"
}