{
  "_format": "hh-sol-artifact-1",
  "contractName": "MedicalProduct",
  "sourceName": "contracts/MedicalProduct.sol",
  "abi": [
    {
      "anonymous": false,
      "inputs": [
        {
          "indexed": false,
          "internalType": "bytes32",
          "name": "manufacturerId",
          "type": "bytes32"
        },
        {
          "indexed": false,
          "internalType": "bytes32",
          "name": "manufacturerName",
          "type": "bytes32"
        },
        {
          "indexed": false,
          "internalType": "bytes32",
          "name": "productBrand",
          "type": "bytes32"
        }
      ],
      "name": "ManufacturerRegistered",
      "type": "event"
    },
    {
      "anonymous": false,
      "inputs": [
        {
          "indexed": false,
          "internalType": "bytes32",
          "name": "manufacturerId",
          "type": "bytes32"
        },
        {
          "indexed": false,
          "internalType": "uint256",
          "name": "productId",
          "type": "uint256"
        },
        {
          "indexed": false,
          "internalType": "bytes32",
          "name": "productSN",
          "type": "bytes32"
        },
        {
          "indexed": false,
          "internalType": "bytes32",
          "name": "productName",
          "type": "bytes32"
        }
      ],
      "name": "ProductAdded",
      "type": "event"
    },
    {
      "inputs": [
        {
          "internalType": "bytes32",
          "name": "_manufacturerID",
          "type": "bytes32"
        },
        {
          "internalType": "bytes32",
          "name": "_manufacturerName",
          "type": "bytes32"
        },
        {
          "internalType": "bytes32",
          "name": "_productName",
          "type": "bytes32"
        },
        {
          "internalType": "bytes32",
          "name": "_productSN",
          "type": "bytes32"
        },
        {
          "internalType": "bytes32",
          "name": "_productBrand",
          "type": "bytes32"
        },
        {
          "internalType": "uint256",
          "name": "_productPrice",
          "type": "uint256"
        },
        {
          "internalType": "uint256",
          "name": "_productID",
          "type": "uint256"
        },
        {
          "internalType": "bytes32",
          "name": "_productTime",
          "type": "bytes32"
        }
      ],
      "name": "addProduct",
      "outputs": [],
      "stateMutability": "nonpayable",
      "type": "function"
    },
    {
      "inputs": [
        {
          "internalType": "bytes32",
          "name": "_manufacturerId",
          "type": "bytes32"
        },
        {
          "internalType": "bytes32",
          "name": "_sellerName",
          "type": "bytes32"
        },
        {
          "internalType": "bytes32",
          "name": "_sellerBrand",
          "type": "bytes32"
        },
        {
          "internalType": "bytes32",
          "name": "_sellerID",
          "type": "bytes32"
        },
        {
          "internalType": "uint256",
          "name": "_sellerNum",
          "type": "uint256"
        },
        {
          "internalType": "bytes32",
          "name": "_sellerManager",
          "type": "bytes32"
        },
        {
          "internalType": "bytes32",
          "name": "_sellerAddress",
          "type": "bytes32"
        }
      ],
      "name": "addSeller",
      "outputs": [],
      "stateMutability": "nonpayable",
      "type": "function"
    },
    {
      "inputs": [
        {
          "internalType": "bytes32",
          "name": "_productSN",
          "type": "bytes32"
        }
      ],
      "name": "checkStatus",
      "outputs": [
        {
          "internalType": "bytes32",
          "name": "",
          "type": "bytes32"
        }
      ],
      "stateMutability": "view",
      "type": "function"
    },
    {
      "inputs": [
        {
          "internalType": "bytes32",
          "name": "_consumerID",
          "type": "bytes32"
        }
      ],
      "name": "getPurchaseHistory",
      "outputs": [
        {
          "internalType": "bytes32[]",
          "name": "",
          "type": "bytes32[]"
        },
        {
          "internalType": "bytes32[]",
          "name": "",
          "type": "bytes32[]"
        },
        {
          "internalType": "bytes32[]",
          "name": "",
          "type": "bytes32[]"
        },
        {
          "internalType": "bytes32[]",
          "name": "",
          "type": "bytes32[]"
        },
        {
          "internalType": "bytes32[]",
          "name": "",
          "type": "bytes32[]"
        },
        {
          "internalType": "bytes32[]",
          "name": "",
          "type": "bytes32[]"
        }
      ],
      "stateMutability": "view",
      "type": "function"
    },
    {
      "inputs": [
        {
          "internalType": "bytes32",
          "name": "",
          "type": "bytes32"
        }
      ],
      "name": "manufacturedTime",
      "outputs": [
        {
          "internalType": "bytes32",
          "name": "",
          "type": "bytes32"
        }
      ],
      "stateMutability": "view",
      "type": "function"
    },
    {
      "inputs": [
        {
          "internalType": "bytes32",
          "name": "_productSN",
          "type": "bytes32"
        },
        {
          "internalType": "bytes32",
          "name": "_sellerID",
          "type": "bytes32"
        },
        {
          "internalType": "bytes32",
          "name": "_productTime",
          "type": "bytes32"
        }
      ],
      "name": "manufacturerSellProduct",
      "outputs": [],
      "stateMutability": "nonpayable",
      "type": "function"
    },
    {
      "inputs": [
        {
          "internalType": "bytes32",
          "name": "",
          "type": "bytes32"
        }
      ],
      "name": "manufacturerToSellerTime",
      "outputs": [
        {
          "internalType": "bytes32",
          "name": "",
          "type": "bytes32"
        }
      ],
      "stateMutability": "view",
      "type": "function"
    },
    {
      "inputs": [
        {
          "internalType": "bytes32",
          "name": "",
          "type": "bytes32"
        }
      ],
      "name": "productItems",
      "outputs": [
        {
          "internalType": "bytes32",
          "name": "manufacturerId",
          "type": "bytes32"
        },
        {
          "internalType": "uint256",
          "name": "productId",
          "type": "uint256"
        },
        {
          "internalType": "bytes32",
          "name": "productSN",
          "type": "bytes32"
        },
        {
          "internalType": "bytes32",
          "name": "productName",
          "type": "bytes32"
        },
        {
          "internalType": "bytes32",
          "name": "productBrand",
          "type": "bytes32"
        },
        {
          "internalType": "uint256",
          "name": "productPrice",
          "type": "uint256"
        },
        {
          "internalType": "bytes32",
          "name": "productStatus",
          "type": "bytes32"
        },
        {
          "internalType": "bytes32",
          "name": "productTime",
          "type": "bytes32"
        }
      ],
      "stateMutability": "view",
      "type": "function"
    },
    {
      "inputs": [
        {
          "internalType": "bytes32",
          "name": "",
          "type": "bytes32"
        }
      ],
      "name": "productsForSale",
      "outputs": [
        {
          "internalType": "bytes32",
          "name": "",
          "type": "bytes32"
        }
      ],
      "stateMutability": "view",
      "type": "function"
    },
    {
      "inputs": [
        {
          "internalType": "bytes32",
          "name": "",
          "type": "bytes32"
        }
      ],
      "name": "productsManufactured",
      "outputs": [
        {
          "internalType": "bytes32",
          "name": "",
          "type": "bytes32"
        }
      ],
      "stateMutability": "view",
      "type": "function"
    },
    {
      "inputs": [
        {
          "internalType": "bytes32",
          "name": "",
          "type": "bytes32"
        }
      ],
      "name": "productsSold",
      "outputs": [
        {
          "internalType": "bytes32",
          "name": "",
          "type": "bytes32"
        }
      ],
      "stateMutability": "view",
      "type": "function"
    },
    {
      "inputs": [
        {
          "internalType": "bytes32",
          "name": "",
          "type": "bytes32"
        },
        {
          "internalType": "uint256",
          "name": "",
          "type": "uint256"
        }
      ],
      "name": "productsWithConsumer",
      "outputs": [
        {
          "internalType": "bytes32",
          "name": "",
          "type": "bytes32"
        }
      ],
      "stateMutability": "view",
      "type": "function"
    },
    {
      "inputs": [
        {
          "internalType": "bytes32",
          "name": "",
          "type": "bytes32"
        },
        {
          "internalType": "uint256",
          "name": "",
          "type": "uint256"
        }
      ],
      "name": "productsWithSeller",
      "outputs": [
        {
          "internalType": "bytes32",
          "name": "",
          "type": "bytes32"
        }
      ],
      "stateMutability": "view",
      "type": "function"
    },
    {
      "inputs": [
        {
          "internalType": "bytes32",
          "name": "_manufacturerId",
          "type": "bytes32"
        }
      ],
      "name": "queryInventory",
      "outputs": [
        {
          "internalType": "uint256[]",
          "name": "",
          "type": "uint256[]"
        },
        {
          "internalType": "bytes32[]",
          "name": "",
          "type": "bytes32[]"
        },
        {
          "internalType": "bytes32[]",
          "name": "",
          "type": "bytes32[]"
        },
        {
          "internalType": "uint256[]",
          "name": "",
          "type": "uint256[]"
        },
        {
          "internalType": "uint256",
          "name": "",
          "type": "uint256"
        }
      ],
      "stateMutability": "view",
      "type": "function"
    },
    {
      "inputs": [
        {
          "internalType": "bytes32",
          "name": "_sellerID",
          "type": "bytes32"
        }
      ],
      "name": "queryProductsList",
      "outputs": [
        {
          "internalType": "bytes32[]",
          "name": "",
          "type": "bytes32[]"
        },
        {
          "internalType": "bytes32[]",
          "name": "",
          "type": "bytes32[]"
        },
        {
          "internalType": "bytes32[]",
          "name": "",
          "type": "bytes32[]"
        },
        {
          "internalType": "bytes32[]",
          "name": "",
          "type": "bytes32[]"
        },
        {
          "internalType": "uint256[]",
          "name": "",
          "type": "uint256[]"
        },
        {
          "internalType": "bytes32[]",
          "name": "",
          "type": "bytes32[]"
        }
      ],
      "stateMutability": "view",
      "type": "function"
    },
    {
      "inputs": [
        {
          "internalType": "bytes32",
          "name": "_manufacturerID",
          "type": "bytes32"
        }
      ],
      "name": "querySellersList",
      "outputs": [
        {
          "internalType": "bytes32[]",
          "name": "",
          "type": "bytes32[]"
        },
        {
          "internalType": "bytes32[]",
          "name": "",
          "type": "bytes32[]"
        },
        {
          "internalType": "bytes32[]",
          "name": "",
          "type": "bytes32[]"
        },
        {
          "internalType": "uint256[]",
          "name": "",
          "type": "uint256[]"
        },
        {
          "internalType": "bytes32[]",
          "name": "",
          "type": "bytes32[]"
        },
        {
          "internalType": "bytes32[]",
          "name": "",
          "type": "bytes32[]"
        }
      ],
      "stateMutability": "view",
      "type": "function"
    },
    {
      "inputs": [
        {
          "internalType": "bytes32",
          "name": "_manufacturerID",
          "type": "bytes32"
        },
        {
          "internalType": "bytes32",
          "name": "_manufacturerName",
          "type": "bytes32"
        },
        {
          "internalType": "bytes32",
          "name": "_productBrand",
          "type": "bytes32"
        }
      ],
      "name": "registerManufacturer",
      "outputs": [],
      "stateMutability": "nonpayable",
      "type": "function"
    },
    {
      "inputs": [
        {
          "internalType": "bytes32",
          "name": "_productSN",
          "type": "bytes32"
        },
        {
          "internalType": "bytes32",
          "name": "_consumerID",
          "type": "bytes32"
        },
        {
          "internalType": "bytes32",
          "name": "_productTime",
          "type": "bytes32"
        }
      ],
      "name": "sellerSellProduct",
      "outputs": [],
      "stateMutability": "nonpayable",
      "type": "function"
    },
    {
      "inputs": [
        {
          "internalType": "bytes32",
          "name": "",
          "type": "bytes32"
        }
      ],
      "name": "sellers",
      "outputs": [
        {
          "internalType": "bytes32",
          "name": "sellerId",
          "type": "bytes32"
        },
        {
          "internalType": "bytes32",
          "name": "sellerName",
          "type": "bytes32"
        },
        {
          "internalType": "bytes32",
          "name": "sellerBrand",
          "type": "bytes32"
        },
        {
          "internalType": "uint256",
          "name": "sellerNum",
          "type": "uint256"
        },
        {
          "internalType": "bytes32",
          "name": "sellerManager",
          "type": "bytes32"
        },
        {
          "internalType": "bytes32",
          "name": "sellerAddress",
          "type": "bytes32"
        }
      ],
      "stateMutability": "view",
      "type": "function"
    },
    {
      "inputs": [
        {
          "internalType": "bytes32",
          "name": "",
          "type": "bytes32"
        },
        {
          "internalType": "uint256",
          "name": "",
          "type": "uint256"
        }
      ],
      "name": "sellersWithManufacturer",
      "outputs": [
        {
          "internalType": "bytes32",
          "name": "",
          "type": "bytes32"
        }
      ],
      "stateMutability": "view",
      "type": "function"
    },
    {
      "inputs": [
        {
          "internalType": "bytes32",
          "name": "",
          "type": "bytes32"
        }
      ],
      "name": "sellingTime",
      "outputs": [
        {
          "internalType": "bytes32",
          "name": "",
          "type": "bytes32"
        }
      ],
      "stateMutability": "view",
      "type": "function"
    },
    {
      "inputs": [
        {
          "internalType": "bytes32",
          "name": "_productSN",
          "type": "bytes32"
        },
        {
          "internalType": "bytes32",
          "name": "_consumerID",
          "type": "bytes32"
        }
      ],
      "name": "verifyProduct",
      "outputs": [
        {
          "internalType": "bool",
          "name": "",
          "type": "bool"
        },
        {
          "internalType": "string",
          "name": "",
          "type": "string"
        }
      ],
      "stateMutability": "view",
      "type": "function"
    }
  ],
  "bytecode": "0x6080604052348015600f57600080fd5b506126198061001f6000396000f3fe608060405234801561001057600080fd5b50600436106101425760003560e01c80639cd777dd116100b8578063c20805b41161007c578063c20805b41461043f578063cd4f6a2e1461046f578063d277893c1461049f578063e262113f146104bb578063e5d194ab146104eb578063ea947b551461050757610142565b80639cd777dd1461034a5780639ea4695d1461037a578063a090f47c146103af578063a2200278146103df578063b7d16fb31461040f57610142565b80634b9930011161010a5780634b993001146102355780635e9794531461026557806368a6b9da1461028157806369f3363a146102b15780637b8d84de146102e557806392162bc41461031557610142565b8063130aa81f1461014757806314c52c671461017c57806318607f30146101b35780631b3658c8146101e8578063344b5d5114610204575b600080fd5b610161600480360381019061015c9190611acc565b610523565b60405161017396959493929190611c7f565b60405180910390f35b61019660048036038101906101919190611acc565b61083a565b6040516101aa989796959493929190611d28565b60405180910390f35b6101cd60048036038101906101c89190611acc565b610882565b6040516101df96959493929190611da6565b60405180910390f35b61020260048036038101906101fd9190611e33565b6108be565b005b61021e60048036038101906102199190611ed5565b610980565b60405161022c929190611fc0565b60405180910390f35b61024f600480360381019061024a9190611ff0565b6109db565b60405161025c9190612030565b60405180910390f35b61027f600480360381019061027a919061204b565b610a0c565b005b61029b60048036038101906102969190611acc565b610b2c565b6040516102a89190612030565b60405180910390f35b6102cb60048036038101906102c69190611acc565b610b44565b6040516102dc95949392919061209e565b60405180910390f35b6102ff60048036038101906102fa9190611acc565b610d9e565b60405161030c9190612030565b60405180910390f35b61032f600480360381019061032a9190611acc565b610db6565b6040516103419695949392919061210d565b60405180910390f35b610364600480360381019061035f9190611ff0565b6110d3565b6040516103719190612030565b60405180910390f35b610394600480360381019061038f9190611acc565b611104565b6040516103a696959493929190612198565b60405180910390f35b6103c960048036038101906103c49190611acc565b611454565b6040516103d69190612030565b60405180910390f35b6103f960048036038101906103f49190611acc565b61146c565b6040516104069190612030565b60405180910390f35b61042960048036038101906104249190611acc565b611497565b6040516104369190612030565b60405180910390f35b61045960048036038101906104549190611acc565b6114af565b6040516104669190612030565b60405180910390f35b61048960048036038101906104849190611acc565b6114c7565b6040516104969190612030565b60405180910390f35b6104b960048036038101906104b49190612223565b6114df565b005b6104d560048036038101906104d09190611ff0565b611761565b6040516104e29190612030565b60405180910390f35b6105056004803603810190610500919061204b565b611792565b005b610521600480360381019061051c919061204b565b6118d3565b005b60608060608060608060006008600089815260200190815260200160002080548060200260200160405190810160405280929190818152602001828054801561058b57602002820191906000526020600020905b815481526020019060010190808311610577575b5050505050905060008151905060008167ffffffffffffffff8111156105b4576105b36122d9565b5b6040519080825280602002602001820160405280156105e25781602001602082028036833780820191505090505b50905060008267ffffffffffffffff811115610601576106006122d9565b5b60405190808252806020026020018201604052801561062f5781602001602082028036833780820191505090505b50905060008367ffffffffffffffff81111561064e5761064d6122d9565b5b60405190808252806020026020018201604052801561067c5781602001602082028036833780820191505090505b50905060008467ffffffffffffffff81111561069b5761069a6122d9565b5b6040519080825280602002602001820160405280156106c95781602001602082028036833780820191505090505b50905060008567ffffffffffffffff8111156106e8576106e76122d9565b5b6040519080825280602002602001820160405280156107165781602001602082028036833780820191505090505b50905060005b86811015610817576000600160008a848151811061073d5761073c612308565b5b602002602001015181526020019081526020016000209050806001015487838151811061076d5761076c612308565b5b602002602001018181525050806002015486838151811061079157610790612308565b5b60200260200101818152505080600301548583815181106107b5576107b4612308565b5b60200260200101818152505080600401548483815181106107d9576107d8612308565b5b60200260200101818152505080600501548383815181106107fd576107fc612308565b5b60200260200101818152505050808060010191505061071c565b508685858585859c509c509c509c509c509c505050505050505091939550919395565b60026020528060005260406000206000915090508060000154908060010154908060020154908060030154908060040154908060050154908060060154908060070154905088565b60016020528060005260406000206000915090508060000154908060010154908060020154908060030154908060040154908060050154905086565b6040518060c001604052808581526020018781526020018681526020018481526020018381526020018281525060016000868152602001908152602001600020600082015181600001556020820151816001015560408201518160020155606082015181600301556080820151816004015560a082015181600501559050506008600088815260200190815260200160002084908060018154018082558091505060019003906000526020600020016000909190919091505550505050505050565b6000606060006109a260056000878152602001908152602001600020546119c1565b9050836005600087815260200190815260200160002054036109cb5760018192509250506109d4565b60008192509250505b9250929050565b600660205281600052604060002081815481106109f757600080fd5b90600052602060002001600091509150505481565b6000801b600460008581526020019081526020016000205414610a64576040517f08c379a0000000000000000000000000000000000000000000000000000000008152600401610a5b906123cf565b60405180910390fd5b6000600260008581526020019081526020016000206001015403610abd576040517f08c379a0000000000000000000000000000000000000000000000000000000008152600401610ab49061243b565b60405180910390fd5b6006600083815260200190815260200160002083908060018154018082558091505060019003906000526020600020016000909190919091505581600460008581526020019081526020016000208190555080600a600085815260200190815260200160002081905550505050565b600b6020528060005260406000206000915090505481565b6060806060806000806000808881526020019081526020016000206003018054905090506000806000898152602001908152602001600020600301805480602002602001604051908101604052809291908181526020018280548015610bc957602002820191906000526020600020905b815481526020019060010190808311610bb5575b5050505050905060008267ffffffffffffffff811115610bec57610beb6122d9565b5b604051908082528060200260200182016040528015610c1a5781602001602082028036833780820191505090505b50905060008367ffffffffffffffff811115610c3957610c386122d9565b5b604051908082528060200260200182016040528015610c675781602001602082028036833780820191505090505b50905060008467ffffffffffffffff811115610c8657610c856122d9565b5b604051908082528060200260200182016040528015610cb45781602001602082028036833780820191505090505b50905060005b85811015610d805760008060008e81526020019081526020016000206004016000878481518110610cee57610ced612308565b5b6020026020010151815260200190815260200160002090508060020154858381518110610d1e57610d1d612308565b5b6020026020010181815250508060040154848381518110610d4257610d41612308565b5b6020026020010181815250508060030154838381518110610d6657610d65612308565b5b602002602001018181525050508080600101915050610cba565b50838383838899509950995099509950505050505091939590929450565b60096020528060005260406000206000915090505481565b606080606080606080600060066000898152602001908152602001600020805480602002602001604051908101604052809291908181526020018280548015610e1e57602002820191906000526020600020905b815481526020019060010190808311610e0a575b5050505050905060008151905060008167ffffffffffffffff811115610e4757610e466122d9565b5b604051908082528060200260200182016040528015610e755781602001602082028036833780820191505090505b50905060008267ffffffffffffffff811115610e9457610e936122d9565b5b604051908082528060200260200182016040528015610ec25781602001602082028036833780820191505090505b50905060008367ffffffffffffffff811115610ee157610ee06122d9565b5b604051908082528060200260200182016040528015610f0f5781602001602082028036833780820191505090505b50905060008467ffffffffffffffff811115610f2e57610f2d6122d9565b5b604051908082528060200260200182016040528015610f5c5781602001602082028036833780820191505090505b50905060008567ffffffffffffffff811115610f7b57610f7a6122d9565b5b604051908082528060200260200182016040528015610fa95781602001602082028036833780820191505090505b50905060005b868110156110b0576000888281518110610fcc57610fcb612308565b5b602002602001015190506000600260008381526020019081526020016000209050806000015488848151811061100557611004612308565b5b602002602001018181525050806003015487848151811061102957611028612308565b5b602002602001018181525050806004015486848151811061104d5761104c612308565b5b602002602001018181525050806005015485848151811061107157611070612308565b5b602002602001018181525050806006015484848151811061109557611094612308565b5b60200260200101818152505050508080600101915050610faf565b508487858585859c509c509c509c509c509c505050505050505091939550919395565b600760205281600052604060002081815481106110ef57600080fd5b90600052602060002001600091509150505481565b60608060608060608060006007600089815260200190815260200160002080548060200260200160405190810160405280929190818152602001828054801561116c57602002820191906000526020600020905b815481526020019060010190808311611158575b5050505050905060008151905060008167ffffffffffffffff811115611195576111946122d9565b5b6040519080825280602002602001820160405280156111c35781602001602082028036833780820191505090505b50905060008267ffffffffffffffff8111156111e2576111e16122d9565b5b6040519080825280602002602001820160405280156112105781602001602082028036833780820191505090505b50905060008367ffffffffffffffff81111561122f5761122e6122d9565b5b60405190808252806020026020018201604052801561125d5781602001602082028036833780820191505090505b50905060008467ffffffffffffffff81111561127c5761127b6122d9565b5b6040519080825280602002602001820160405280156112aa5781602001602082028036833780820191505090505b50905060008567ffffffffffffffff8111156112c9576112c86122d9565b5b6040519080825280602002602001820160405280156112f75781602001602082028036833780820191505090505b50905060005b8681101561143157600088828151811061131a57611319612308565b5b60200260200101519050600460008281526020019081526020016000205487838151811061134b5761134a612308565b5b602002602001018181525050600360008281526020019081526020016000205486838151811061137e5761137d612308565b5b60200260200101818152505060096000828152602001908152602001600020548583815181106113b1576113b0612308565b5b602002602001018181525050600a6000828152602001908152602001600020548483815181106113e4576113e3612308565b5b602002602001018181525050600b60008281526020019081526020016000205483838151811061141757611416612308565b5b6020026020010181815250505080806001019150506112fd565b508684848785859c509c509c509c509c509c505050505050505091939550919395565b60046020528060005260406000206000915090505481565b6000806002600084815260200190815260200160002090506000816006015490508092505050919050565b600a6020528060005260406000206000915090505481565b60036020528060005260406000206000915090505481565b60056020528060005260406000206000915090505481565b6040518061010001604052808981526020018381526020018681526020018781526020018581526020018481526020017f417661696c61626c65000000000000000000000000000000000000000000000081526020018281525060026000878152602001908152602001600020600082015181600001556020820151816001015560408201518160020155606082015181600301556080820151816004015560a0820151816005015560c0820151816006015560e0820151816007015590505087600360008781526020019081526020016000208190555080600960008781526020019081526020016000208190555060008060008a815260200190815260200160002090506000801b816000015403611606578881600001819055508781600101819055505b6000805b826002018054905081101561165657868360020182815481106116305761162f612308565b5b9060005260206000200154036116495760019150611656565b808060010191505061160a565b508061168857816002018690806001815401808255809150506001900390600052602060002001600090919091909150555b6000826004016000868152602001908152602001600020905060008160000154036116fd57848160000181905550888160020181905550878160010181905550868160040181905550826003018590806001815401808255809150506001900390600052602060002001600090919091909150555b8060030160008154809291906117129061248a565b91905055507fc540fbf22c1fb216605338079a638d447385a97f649f9b472c422fe37e0c12648b868a8c60405161174c94939291906124d2565b60405180910390a15050505050505050505050565b6008602052816000526040600020818154811061177d57600080fd5b90600052602060002001600091509150505481565b60006002600085815260200190815260200160002090506000816006015490507f417661696c61626c65000000000000000000000000000000000000000000000081036118cc577f536f6c640000000000000000000000000000000000000000000000000000000082600601819055506007600085815260200190815260200160002085908060018154018082558091505060019003906000526020600020016000909190919091505583600560008781526020019081526020016000208190555082600b60008781526020019081526020016000208190555060008260000154905060008360010154905060008060008481526020019081526020016000209050600081600401600084815260200190815260200160002090508060030160008154809291906118c290612517565b9190505550505050505b5050505050565b6000801b600080858152602001908152602001600020600001541461192d576040517f08c379a00000000000000000000000000000000000000000000000000000000081526004016119249061258c565b60405180910390fd5b60008060008581526020019081526020016000209050838160000181905550828160010181905550806002018290806001815401808255809150506001900390600052602060002001600090919091909150557f84015f7ed02ad8a3075ee08ab14ec9f6df27afbacab46d846fdb0d6bc723629f8484846040516119b3939291906125ac565b60405180910390a150505050565b60606000602067ffffffffffffffff8111156119e0576119df6122d9565b5b6040519080825280601f01601f191660200182016040528015611a125781602001600182028036833780820191505090505b50905060005b6020811015611a8757838160208110611a3457611a33612308565b5b1a60f81b828281518110611a4b57611a4a612308565b5b60200101907effffffffffffffffffffffffffffffffffffffffffffffffffffffffffffff1916908160001a9053508080600101915050611a18565b5080915050919050565b600080fd5b6000819050919050565b611aa981611a96565b8114611ab457600080fd5b50565b600081359050611ac681611aa0565b92915050565b600060208284031215611ae257611ae1611a91565b5b6000611af084828501611ab7565b91505092915050565b600081519050919050565b600082825260208201905092915050565b6000819050602082019050919050565b611b2e81611a96565b82525050565b6000611b408383611b25565b60208301905092915050565b6000602082019050919050565b6000611b6482611af9565b611b6e8185611b04565b9350611b7983611b15565b8060005b83811015611baa578151611b918882611b34565b9750611b9c83611b4c565b925050600181019050611b7d565b5085935050505092915050565b600081519050919050565b600082825260208201905092915050565b6000819050602082019050919050565b6000819050919050565b611bf681611be3565b82525050565b6000611c088383611bed565b60208301905092915050565b6000602082019050919050565b6000611c2c82611bb7565b611c368185611bc2565b9350611c4183611bd3565b8060005b83811015611c72578151611c598882611bfc565b9750611c6483611c14565b925050600181019050611c45565b5085935050505092915050565b600060c0820190508181036000830152611c998189611b59565b90508181036020830152611cad8188611b59565b90508181036040830152611cc18187611b59565b90508181036060830152611cd58186611c21565b90508181036080830152611ce98185611b59565b905081810360a0830152611cfd8184611b59565b9050979650505050505050565b611d1381611a96565b82525050565b611d2281611be3565b82525050565b600061010082019050611d3e600083018b611d0a565b611d4b602083018a611d19565b611d586040830189611d0a565b611d656060830188611d0a565b611d726080830187611d0a565b611d7f60a0830186611d19565b611d8c60c0830185611d0a565b611d9960e0830184611d0a565b9998505050505050505050565b600060c082019050611dbb6000830189611d0a565b611dc86020830188611d0a565b611dd56040830187611d0a565b611de26060830186611d19565b611def6080830185611d0a565b611dfc60a0830184611d0a565b979650505050505050565b611e1081611be3565b8114611e1b57600080fd5b50565b600081359050611e2d81611e07565b92915050565b600080600080600080600060e0888a031215611e5257611e51611a91565b5b6000611e608a828b01611ab7565b9750506020611e718a828b01611ab7565b9650506040611e828a828b01611ab7565b9550506060611e938a828b01611ab7565b9450506080611ea48a828b01611e1e565b93505060a0611eb58a828b01611ab7565b92505060c0611ec68a828b01611ab7565b91505092959891949750929550565b60008060408385031215611eec57611eeb611a91565b5b6000611efa85828601611ab7565b9250506020611f0b85828601611ab7565b9150509250929050565b60008115159050919050565b611f2a81611f15565b82525050565b600081519050919050565b600082825260208201905092915050565b60005b83811015611f6a578082015181840152602081019050611f4f565b60008484015250505050565b6000601f19601f8301169050919050565b6000611f9282611f30565b611f9c8185611f3b565b9350611fac818560208601611f4c565b611fb581611f76565b840191505092915050565b6000604082019050611fd56000830185611f21565b8181036020830152611fe78184611f87565b90509392505050565b6000806040838503121561200757612006611a91565b5b600061201585828601611ab7565b925050602061202685828601611e1e565b9150509250929050565b60006020820190506120456000830184611d0a565b92915050565b60008060006060848603121561206457612063611a91565b5b600061207286828701611ab7565b935050602061208386828701611ab7565b925050604061209486828701611ab7565b9150509250925092565b600060a08201905081810360008301526120b88188611c21565b905081810360208301526120cc8187611b59565b905081810360408301526120e08186611b59565b905081810360608301526120f48185611c21565b90506121036080830184611d19565b9695505050505050565b600060c08201905081810360008301526121278189611b59565b9050818103602083015261213b8188611b59565b9050818103604083015261214f8187611b59565b905081810360608301526121638186611b59565b905081810360808301526121778185611c21565b905081810360a083015261218b8184611b59565b9050979650505050505050565b600060c08201905081810360008301526121b28189611b59565b905081810360208301526121c68188611b59565b905081810360408301526121da8187611b59565b905081810360608301526121ee8186611b59565b905081810360808301526122028185611b59565b905081810360a08301526122168184611b59565b9050979650505050505050565b600080600080600080600080610100898b03121561224457612243611a91565b5b60006122528b828c01611ab7565b98505060206122638b828c01611ab7565b97505060406122748b828c01611ab7565b96505060606122858b828c01611ab7565b95505060806122968b828c01611ab7565b94505060a06122a78b828c01611e1e565b93505060c06122b88b828c01611e1e565b92505060e06122c98b828c01611ab7565b9150509295985092959890939650565b7f4e487b7100000000000000000000000000000000000000000000000000000000600052604160045260246000fd5b7f4e487b7100000000000000000000000000000000000000000000000000000000600052603260045260246000fd5b7f446f75626c652073656c6c696e67206973206e6f7420616c6c6f7765642e205060008201527f726f6475637420616c726561647920736f6c6420746f20736f6d65206f74686560208201527f722073656c6c6572210000000000000000000000000000000000000000000000604082015250565b60006123b9604983611f3b565b91506123c482612337565b606082019050919050565b600060208201905081810360008301526123e8816123ac565b9050919050565b7f50726f6475637420646f65736e27742065786973740000000000000000000000600082015250565b6000612425601583611f3b565b9150612430826123ef565b602082019050919050565b6000602082019050818103600083015261245481612418565b9050919050565b7f4e487b7100000000000000000000000000000000000000000000000000000000600052601160045260246000fd5b600061249582611be3565b91507fffffffffffffffffffffffffffffffffffffffffffffffffffffffffffffffff82036124c7576124c661245b565b5b600182019050919050565b60006080820190506124e76000830187611d0a565b6124f46020830186611d19565b6125016040830185611d0a565b61250e6060830184611d0a565b95945050505050565b600061252282611be3565b9150600082036125355761253461245b565b5b600182039050919050565b7f4d616e75666163747572657220616c7265616479207265676973746572656400600082015250565b6000612576601f83611f3b565b915061258182612540565b602082019050919050565b600060208201905081810360008301526125a581612569565b9050919050565b60006060820190506125c16000830186611d0a565b6125ce6020830185611d0a565b6125db6040830184611d0a565b94935050505056fea26469706673582212200d7d595a27ed16dc14d6623e9aed4a2a59ca598263fbd2a3a19cf153030a83a964736f6c634300081c0033",
  "linkReferences": {},
  "deployedLinkReferences": {},
  "address": "0xE356d267537Aa9739c4fD791Eb91167c920A52FA",
  "networkId": "1337"
}